:100000000C9434000C9451000C9451000C94510049
:100010000C9474010C9451000C9451000C945100F8
:100020000C9451000C9451000C9451000C9451000C
:100030000C9451000C9451000C9451000C945100FC
:100040000C946F000C9451000C9451000C945100CE
:100050000C9451000C9451000C9451000C945100DC
:100060000C9451000C94510011241FBECFEFD8E026
:10007000DEBFCDBF14E0A0E0B1E0E4E8FCE102C0E7
:1000800005900D92A63BB107D9F726E0A6EBB4E0A8
:1000900001C01D92AB35B207E1F70E94C2020C9479
:1000A000400E0C940000FC019191992359F080912D
:1000B000C00085FFFCCF8091C00085FFFCCF9093EE
:1000C000C600F2CF08952FB7F8946091570670914B
:1000D00058068091590690915A062FBF08951F9295
:1000E0000F920FB60F9211242F933F938F939F93EC
:1000F000AF93BF938091570690915806A0915906EF
:10010000B0915A063091560626E0230F2D3720F481
:100110000296A11DB11D05C029E8230F0396A11D5C
:10012000B11D209356068093570690935806A093CE
:100130005906B0935A068091520690915306A091A9
:100140005406B09155060196A11DB11D809352062B
:1001500090935306A0935406B0935506BF91AF9168
:100160009F918F913F912F910F900FBE0F901F90F5
:1001700018958F929F92AF92BF92CF92DF92EF929B
:10018000FF92262F30E0382BAEE7B1E00E94230E1D
:1001900028EE33E040E050E00E94010E69017A0150
:1001A000A0E1B7E20E94F60D24EE822E2CE0922E02
:1001B000A12CB12CA50194012C193D094E095F0910
:1001C0000E94010EE4E2F1E080E090E06191719123
:1001D0006B01E12CF12CC216D306E406F50620F0E3
:1001E00001968635910591F7FF90EF90DF90CF90C3
:1001F000BF90AF909F908F90089587E290E0DC01D0
:10020000A754BB4F2C91FC01E854FB4F60814091F7
:10021000B6045091B70430E0362B4217530740F430
:100220002C91408130E0342B3093B7042093B604F6
:100230002C916081409100015091010130E0362BFA
:100240002417350740F42C91408130E0342B309353
:1002500001012093000102968334910581F60895EF
:10026000CF93DF931F92CDB7DEB7198290ED980F31
:100270009A3010F499830CC09FEB980F963010F4CD
:10028000875305C09FE9980F963010F487558983EE
:1002900089818F700F90DF91CF9108950E94530054
:1002A00083EB94E00C9453009091C00095FFFCCF39
:1002B0009091C00095FFFCCF8093C6000895CF9326
:1002C000C82F82958F708A3010F0895C01C0805DE4
:1002D0000E9454018C2F8F708A3010F0895C01C00D
:1002E000805DCF910C9454011F920F920FB60F9224
:1002F00011242F933F934F935F936F937F938F932B
:100300009F93AF93BF93EF93FF9360E880E00E94C9
:100310007402809147058F5F80934705FF91EF91AD
:10032000BF91AF919F918F917F916F915F914F910D
:100330003F912F910F900FBE0F901F90189571E075
:100340005F98579A56985E9A000000000000C7D048
:1003500057985F9AC4D0A8940000000000004F9BFB
:10036000AAD0D2F088944E990894771F48F75F98E6
:10037000579A803019F056985E9A02C05E98569A45
:10038000000000000000ABD057985F9AA8940000CE
:1003900000004F9B90D0A3D0000000005F98579AB8
:1003A000872F9927089580E208950894881F01C037
:1003B000880FD9F05F98579A00000000000020F4E1
:1003C000000056985E9A03C05E98569A00C087D087
:1003D00057985F9AA8940000000000004F9B6BD0D4
:1003E00012F4882715C07BD0E3CF5F98579A00009E
:1003F000000056985E9A73D09927882757985F9A7D
:10040000A89400004F9B57D062F34E9B81E067D0C9
:10041000000000005F98579A089581E008955F9862
:10042000579A5E98569A5BD057985F9A58D04F9BD0
:1004300042D056985E9A53D008958F93F1E0E4EF3E
:100440008F918F934F9B37D05E98569A48D0ADDFEF
:10045000882321F4E4DF319709F0F2CF99270F9038
:10046000089508955F98579A3AD056985E9A37D073
:1004700057985F9A34D04F9B1ED05E98569A2FD0D3
:1004800094DF089581E008954F9B15D05E98569AA9
:1004900026D08BDF089581E00895569857985E9A8C
:1004A0005F9A882799274E9B08954F9B089581E076
:1004B000089581E00895B7E0A0ED002409D032F45A
:1004C0000A94E1F71197C9F7289408C0A89406C0C8
:1004D000A8944F9901C0289400000895089592E3CC
:1004E0009A95F1F708950895CF93DF9300D000D047
:1004F00000D0CDB7DEB790E199838A836B831D82EC
:1005000080E090E040E837E04E83E1E0F0E0EC0F7F
:10051000FD1FE80FF91F2E812223B9F02D8127FF3F
:1005200006C02D81220F2D832D81232702C02D810E
:10053000220F2D835E812081252319F02D81232711
:100540002D832E8126952E83E6CF0196833091054B
:10055000D9F68D818C8389810E9444028A810E9410
:10056000D5018B810E94D5018C810E94D5010E940A
:100570000F0226960FB6F894DEBF0FBECDBFDF91F7
:10058000CF910895CF93DF93CDB7DEB72E970FB6F7
:10059000F894DEBF0FBECDBF789484B5826084BD71
:1005A00084B5816084BD85B5826085BD85B5816077
:1005B00085BD80916E00816080936E0010928100F5
:1005C00080918100826080938100809181008160B0
:1005D0008093810080918000816080938000809171
:1005E000B10084608093B1008091B00081608093FD
:1005F000B00080917A00846080937A0080917A00C4
:10060000826080937A0080917A008E7F80937A0056
:1006100080917A00806880937A001092C100209ABD
:1006200087B1836087B92898409A419A83E38D8780
:100630008D851092C5008D858093C40088E18093DC
:10064000C1008EE08093C20080ED91E00E944E01D7
:1006500087EE91E00E944E0180E090E00E94AF0D95
:100660008093B80481E090E00E94AF0D8093B904BC
:1006700083E090E00E94AF0D8093380584E090E025
:100680000E94AF0D8093390585E090E00E94AF0D88
:1006900080933A0586E090E00E94AF0D80933B0581
:1006A00087E090E00E94AF0D80933C0588E090E0E9
:1006B0000E94AF0D80933D0589E090E00E94AF0D50
:1006C00080930F058AE090E00E94AF0D80931D0596
:1006D0008BE090E00E94AF0D80931E058CE090E0CF
:1006E0000E94AF0D809301058DE090E00E94AF0D58
:1006F000809302058EE090E00E94AF0D80930D057F
:100700008FE090E00E94AF0D80931B0580E190E0A8
:100710000E94AF0D80931C0581E190E00E94AF0D17
:100720008093030582E190E00E94AF0D8093040561
:1007300083E190E00E94AF0D8093110584E190E089
:100740000E94AF0D8093120585E190E00E94AF0DED
:1007500080931F0586E190E00E94AF0D80932005F5
:1007600087E190E00E94AF0D8093050588E190E05D
:100770000E94AF0D8093060589E190E00E94AF0DC5
:10078000809313058AE190E00E94AF0D80931405D9
:100790008BE190E00E94AF0D809321058CE190E009
:1007A0000E94AF0D809322058DE190E00E94AF0D75
:1007B000809307058EE190E00E94AF0D80930805BD
:1007C0008FE190E00E94AF0D8093190580E290E0E8
:1007D0000E94AF0D8093240581E290E00E94AF0D4E
:1007E0008093090582E290E00E94AF0D80930A0594
:1007F00083E290E00E94AF0D80931A0584E290E0BE
:100800000E94AF0D8093250585E290E00E94AF0D18
:1008100080930B0586E290E00E94AF0D80930C055B
:1008200087E290E00E94AF0D8093420588E290E05D
:100830000E94AF0D8093430589E290E00E94AF0DC6
:10084000809344058AE290E00E94AF0D80931505E5
:100850008BE290E00E94AF0D809316058CE290E051
:100860000E94AF0D809317058DE290E00E94AF0DBE
:100870008093180581E390E00E94AF0D8093BE0441
:1008800082E390E00E94AF0D8093BF0480E490E08B
:100890000E94AF0D80933E0581E490E00E94AF0D71
:1008A00080933F0582E490E00E94AF0D8093400565
:1008B00083E490E00E94AF0D8093DB0482E092E03D
:1008C0000E944E016091380584E00E94740260919C
:1008D000390585E00E94740260913A0586E00E9425
:1008E000740260913B0587E00E94740260913C05B0
:1008F00088E00E94740260913D058BE00E947402C2
:1009000060910F0589E00E94740260910D058AE0F4
:100910000E94740260913E0581E00E947402609121
:100920003F0582E00E9474026091400583E00E94CE
:10093000740289E292E00E944E01F894809168006E
:1009400082608093680080916C00886080936C0066
:1009500078946FEF80E00E94740239E9232E3EE123
:10096000332E412C512C47E2A42EB12C59E7852E71
:10097000912CFF24F39485E0E82E98E2792E20E074
:10098000C22E20E0D22E80914705843008F431C673
:10099000F89480E10E941D0281110EC08BE492E068
:1009A0000E944E012FEF89E698E12150804090404F
:1009B000E1F700C00000F2C080E00E94D50181E1B3
:1009C0000E94320281E00E949F01809337050E94BD
:1009D0000F0280E10E941D02882301F38AE20E9437
:1009E000D50181E10E94320281E00E949F01809343
:1009F000BA048AE20E94D50181E10E94320281E0BC
:100A00000E949F018093BB040E940F0280E10E941C
:100A10001D02882319F282E30E94D50181E10E9420
:100A2000320281E00E949F018093BC0482E30E9415
:100A3000D50181E10E94320281E00E949F018093F2
:100A4000BD040E940F02F0924F0585EA80934E0587
:100A50002091BB048091BA0430E0382B2D3BE2E7B3
:100A60003E07B0F02735F1E93F07A0F4C901A0E047
:100A7000B0E09C01AD012D5B324741095109A4E66C
:100A8000B0E00E94F60DA20191010E94D70D03C0B3
:100A900020E001C024E62093C0049091C00480911E
:100AA000DB04891730F48091B80484FD02C08FE024
:100AB00001C080E08093C10480E10E941D02882370
:100AC00009F46CCF85E00E94D50181E10E943202D9
:100AD00081E00E949F0183708093C2040E940F02F4
:100AE00080E10E941D02882309F458CF8EE20E9403
:100AF000D50181E10E94320281E00E949F01182FFE
:100B000080934D058EE20E94D50181E10E94320260
:100B100081E00E949F0180934C058E870E940F0206
:100B20008E85682F812F0E94B900182F80934B0566
:100B30008093C30480E10E941D02882309F42ECF14
:100B400080E30E94D50181E10E94320281E00E948F
:100B50009F01082F80934A0580E30E94D50181E11F
:100B60000E94320281E00E949F01809349058E8796
:100B70000E940F028E85682F802F0E94B9008093FB
:100B800048058093C404181728F4809341051093F6
:100B9000450504C01093410580934505F092310549
:100BA00023E720933205E09233058CEF80933405E0
:100BB0007092C50483E28093C6048091C004809340
:100BC000C704F092C80484E28093C90489E3809347
:100BD000CA0489E18093CB049FE49093CC0480E81D
:100BE0008093CD049093CE0420E22093CF04909381
:100BF000D0049DE29093D104E092D2048093D30478
:100C00002FE82093D4049FEF9093D5042093D6042B
:100C10009093D7048093D8041092D90480E18093F4
:100C2000DA041092DD041092DE040E941D0281118C
:100C30000EC08BE492E00E944E019FEFE9E6F8E1DE
:100C40009150E040F040E1F700C000009DC18CE011
:100C50000E94D50181E10E94320281E00E949F0141
:100C60008093DF048CE00E94D50181E10E94320272
:100C700081E00E949F018093E0040E940F0280E1C6
:100C80000E941D028823A9F28EE00E94D50181E115
:100C90000E94320281E00E949F018093E1048EE075
:100CA0000E94D50181E10E94320281E00E949F01F1
:100CB0008093E2040E940F0280E10E941D028823BB
:100CC00009F4B7CF80E10E94D50181E10E94320290
:100CD00081E00E949F018093E30480E10E94D5019E
:100CE00081E10E94320281E00E949F018093E4042E
:100CF0000E940F0280E10E941D02882309F499CF0F
:100D000082E10E94D50181E10E94320281E00E94CD
:100D10009F018093E50482E10E94D50181E10E9458
:100D2000320281E00E949F018093E6040E940F023C
:100D300080E10E941D02882309F47BCF84E10E9498
:100D4000D50181E10E94320281E00E949F018093DF
:100D5000E70484E10E94D50181E10E94320281E032
:100D60000E949F018093E8040E940F0280E10E948C
:100D70001D02882309F45DCF86E10E94D50181E13F
:100D80000E94320281E00E949F018093E90486E183
:100D90000E94D50181E10E94320281E00E949F0100
:100DA0008093EA040E940F0280E10E941D028823C2
:100DB00009F43FCF88E10E94D50181E10E9432020F
:100DC00081E00E949F018093EB0488E10E94D5019D
:100DD00081E10E94320281E00E949F018093EC0435
:100DE0000E940F0280E10E941D02882309F421CF96
:100DF0008AE10E94D50181E10E94320281E00E94D5
:100E00009F018093ED048AE10E94D50181E10E9457
:100E1000320281E00E949F018093EE040E940F0243
:100E200080E10E941D02882309F403CF8CE10E9417
:100E3000D50181E10E94320281E00E949F018093EE
:100E4000EF048CE10E94D50181E10E94320281E031
:100E50000E949F018093F0040E940F0280E10E9493
:100E60001D02882309F4E5CE8EE10E94D50181E1BF
:100E70000E94320281E00E949F018093F1048EE182
:100E80000E94D50181E10E94320281E00E949F010F
:100E90008093F2040E940F0280E10E941D028823C9
:100EA00009F4C7CE80E20E94D50181E10E9432029E
:100EB00081E00E949F018093F30480E20E94D501AB
:100EC00081E10E94320281E00E949F018093F4043C
:100ED0000E940F0280E10E941D02882309F4A9CE1E
:100EE00082E20E94D50181E10E94320281E00E94EB
:100EF0009F018093F50482E20E94D50181E10E9466
:100F0000320281E00E949F018093F6040E940F024A
:100F100080E10E941D02882309F48BCE84E20E94A6
:100F2000D50181E10E94320281E00E949F018093FD
:100F3000F70484E20E94D50181E10E94320281E03F
:100F40000E949F018093F8040E940F0280E10E949A
:100F50001D02882309F46DCE88E20E94D50181E14B
:100F60000E94320281E00E949F018093F90488E28E
:100F70000E94D50181E10E94320281E00E949F011E
:100F80008093FA040E940F028091370582FF2DC0E2
:100F90008091B804807549F58091B8048068809389
:100FA000B8046091B80480E090E00E94B70D809191
:100FB00002058F3F09F057C3809101058F5F809331
:100FC000010510920205609102058DE090E00E94FB
:100FD000B70D609101058CE090E00E94B70D8BE5A4
:100FE00092E00E944E01109249068091370583FFDE
:100FF0002DC08091B804887249F58091B80480644E
:101000008093B8046091B80480E090E00E94B70D2E
:10101000809104058F3F09F02CC3809103058F5FF9
:1010200080930305109204056091040582E190E02D
:101030000E94B70D6091030581E190E00E94B70D19
:1010400082E792E00E944E01109249062091BB0473
:101050009091BA04809112054091110530E0392B2E
:1010600090E0942B8217930788F58091B8048471DF
:1010700069F562E485E00E9474021092490680914D
:10108000B80480628093B8046091B80480E090E076
:101090000E94B70D809106058F3F09F0F0C2809144
:1010A00005058F5F80930505109206056091060582
:1010B00082E190E00E94B70D6091050581E190E02A
:1010C0000E94B70D8AE892E00E944E012091BB0475
:1010D0009091BA04809114054091130530E0392BAA
:1010E00090E0942B2817390788F58091B80484FD87
:1010F0002DC061E485E00E9474021092490680913F
:10110000B80480618093B8046091B80480E090E0F6
:101110000E94B70D809108058F3F09F0B6C28091FB
:1011200007058F5F809307051092080560910805F9
:1011300082E190E00E94B70D6091070581E190E0A7
:101140000E94B70D81EA92E00E944E012091BD04F9
:101150009091BC04809116054091150530E0392B23
:1011600090E0942B82179307D8F58091BC0487FDFB
:1011700037C062E485E00E947402109249068091B3
:10118000B80482608093B8046091B80480E090E075
:101190000E94B70D8091FE048F3F09F07CC28091C0
:1011A000FD048F5F8093FD041092FE046091FE04A5
:1011B00082E190E00E94B70D6091FD0481E190E032
:1011C0000E94B70D89EB92E00E944E010E946300DD
:1011D0006093500570935105809352059093530589
:1011E0008091BD048091BC0487FF4BC02091BD0459
:1011F0009091BC04809118054091170530E0392B7F
:1012000090E0942B28173907E0F561E485E00E940F
:101210007402109249068091B80481608093B804EA
:101220006091B80480E090E00E94B70D80910005C5
:101230008F3F41F48091FF048F5F8093FF041092F1
:10124000000505C0809100058F5F809300056091C7
:10125000000582E190E00E94B70D6091FF0481E1FA
:1012600090E00E94B70D81EE92E00E944E010E9434
:1012700063006093500570935105809352059093DD
:1012800053059091410580911905891788F5809142
:10129000B80483FD2DC060E485E00E9474021092C2
:1012A00049068091B80488608093B8046091B804BE
:1012B00080E090E00E94B70D809100058F3F09F01B
:1012C000F0C180910A058F5F80930A05109209058D
:1012D00060910A0582E190E00E94B70D60910905D6
:1012E00081E190E00E94B70D8CE093E00E944E01F6
:1012F0009091450580911A05981788F58091B8045A
:1013000082FD2DC060E485E00E94740210924906BF
:101310008091B80484608093B8046091B80480E040
:1013200090E00E94B70D80910C058F3F09F0BFC17E
:1013300080910C058F5F80930C0510920B056091D6
:101340000C0582E190E00E94B70D60910B0581E1F0
:1013500090E00E94B70D88E293E00E944E018091D8
:10136000B80487FF29C00E94FD002091B604309187
:10137000B70480911E0540911D0590E0942B28171D
:101380003907D0F48091B8048F778093B8046091C6
:10139000B80480E090E00E94B70D64E080E00E9415
:1013A000740285E493E00E944E0163E485E00E94AC
:1013B000740280E4809349068091B80486FF29C0B6
:1013C0000E94FD00209100013091010180911C05D7
:1013D00040911B0590E0942B82179307D0F48091E5
:1013E000B8048F7B8093B8046091B80480E090E0EB
:1013F0000E94B70D68E080E00E9474028FE593E0E0
:101400000E944E0163E485E00E94740280E48093B0
:1014100049068091B80485FF25C02091BB049091B6
:10142000BA048091200540911F0530E0392B90E0EF
:10143000942B28173907B0F48091B8048F7D8093DE
:10144000B8046091B80480E090E00E94B70D8BE78B
:1014500093E00E944E0163E485E00E94740280E400
:10146000809349068091B80484FF25C02091BB0475
:101470009091BA04809122054091210530E0392BEA
:1014800090E0942B82179307B0F48091B8048F7E7C
:101490008093B8046091B80480E090E00E94B70D9A
:1014A00084E993E00E944E0163E485E00E947402A7
:1014B00080E4809349068091B80481FD04C0809146
:1014C000B80480FF3AC00E9463000091500510915B
:1014D00051052091520530915305DC01CB01801B51
:1014E000910BA20BB30B80369A4EA105B10528F1E2
:1014F0000E946300609345067093460680934706FA
:10150000909348068091B8048E7F8093B8048091B0
:10151000B8048D7F8093B8046091B80480E090E0B7
:101520000E94B70D8EEA93E00E944E0163E485E0CD
:101530000E94740280E4809349068091B80483FF7E
:101540001CC090914105809124059817B0F48091BA
:10155000B804877F8093B8046091B80480E090E07D
:101560000E94B70D8AEC93E00E944E0163E485E08F
:101570000E94740280E4809349068091B80482FF3F
:101580001CC090914505809125058917B0F4809184
:10159000B8048B7F8093B8046091B80480E090E039
:1015A0000E94B70D88EE93E00E944E0163E485E04F
:1015B0000E94740280E48093490610924705789453
:1015C0006FEF80E00E94740214C09D3021F5F0920C
:1015D00055058091C00087FF70C09091C6009A3079
:1015E000A1F780915505813031F010925405109289
:1015F000570510E0EECF1092550510915405E12FDC
:10160000F0E0E95AFA4F1082112319F010925405B4
:10161000E0CF11E0DECF80915405983059F4882353
:10162000C1F2E82FF0E0E95AFA4F1082815080931E
:101630005405CFCF882391F0282F30E0F901E95AE3
:10164000FA4F2A3E31052CF48F5F80935405908326
:10165000C0CF108210925405182FBBCFF0925405C2
:1016600090935705B6CF809102058F5F8093020556
:10167000AACC809104058F5F80930405D5CC80911E
:1016800006058F5F8093060511CD809108058F5F59
:10169000809308054BCD8091FE048F5F8093FE04FC
:1016A00085CD80910A058F5F80930A0511CE8091C8
:1016B0000A058F5F80930A0542CE109356051123C9
:1016C00009F44BC287E595E0909343068093420668
:1016D0001092440642E050E0BC0182E291E00E9498
:1016E000320E892B09F457C044E050E067E575E0FD
:1016F0008EE191E00E94320E892B09F44EC044E045
:1017000050E067E575E08AE191E00E94320E892B96
:1017100009F445C044E050E067E575E086E191E0FA
:101720000E94320E892BE9F142E050E067E575E056
:1017300084E191E00E94320E892BA9F146E050E04D
:1017400067E575E08EE091E00E94320E892B69F426
:10175000173068F186E080934406EDE5F5E0F093FC
:101760004306E093420687E023C046E050E067E589
:1017700075E088E091E00E94320E892BB1F046E0DE
:1017800050E067E575E082E091E00E94320E892B1F
:1017900071F489E00DC082E00BC083E009C084E0F1
:1017A00007C085E005C086E003C088E001C080E096
:1017B00080934A0680914A06811103C087E094E035
:1017C00076C1823051F5F8941C861B868B859C85EA
:1017D0000B9704F5EB85FC85E854FB4F80810E9454
:1017E0005F018B859C850A9764F08AE30E9454010F
:1017F000809141050E945F018DE00E9454018AE0C2
:1018000001C08AE30E9454018B859C8501969C87C8
:101810008B87DCCF78946FEF88C0833009F045C0A8
:1018200098868F828F8198858D37910584F4EF811A
:10183000F885E854FB4F80810E945F018AE30E9493
:1018400054018F819885019698878F83EBCF809183
:10185000BE040E945F018AE30E9454018091BF048C
:101860000E945F018AE30E9454018BE090E09A8716
:10187000898789859A8583970CF03FC1E985FA8528
:10188000E854FB4F80810E945F0189859A85829789
:101890002CF08DE00E9454018AE001C08AE30E948E
:1018A000540189859A850196E2CF843081F5F894B8
:1018B000809131050E945F018AE30E94540180916A
:1018C00032050E945F018AE30E945401BE82AD820C
:1018D0008D819E818334910534F5ED81FE81E8543C
:1018E000FB4F80810E945F018D819E818234910532
:1018F0002CF08DE00E9454018AE001C08AE30E942E
:1019000054018D819E8101969E838D83E1CF853028
:1019100031F5F89483E490E09C838B838B819C81E8
:101920008535910524F0789460E880E0E4C0EB818F
:10193000FC81E854FB4F80810E945F018B819C8178
:10194000843591052CF08DE00E9454018AE001C09D
:101950008AE30E9454018B819C810196DDCF863001
:1019600011F5F894ECE1F0E0FA83E98389819A813A
:10197000C897CCF6E981FA81E854FB4F80810E9438
:101980005F0189819A81C7972CF08DE00E945401F4
:101990008AE001C08AE30E94540189819A810196FC
:1019A0009A838983E3CF873009F084C0809144060D
:1019B000882309F4A2C0E0914206F0914306808199
:1019C0008A3309F072C0F8940091420610914306E0
:1019D000F8018181873709F05BC083810E94300163
:1019E000682EF80184810E943001F0E16F9E900121
:1019F0001124822B8630E1F0833209F049C0F801CE
:101A000086810E943001682EF80187810E94300192
:101A1000F0E16F9E90011124822B8093DB04609192
:101A2000DB0483E490E00E94C90D87E594E02EC0BA
:101A3000F80186810E943001682EF80187810E949A
:101A40003001F0E16F9E90011124822B8093BE043F
:101A5000F80180850E943001682EF80181850E947E
:101A60003001F0E16F9E90011124822B8093BF041E
:101A70006091BE0481E390E00E94C90D6091BF04B3
:101A800082E390E00E94C90D86E294E00E944E013C
:101A9000E0914206F09143068181823709F043CFFD
:101AA0008DE894E00E944E013ECF8EE994E00E94C2
:101AB0004E0123C08830D9F42091B8048091B90434
:101AC00090E0820F911D892BC1F463E485E00E94B0
:101AD000740280E4809349060E9463006093450687
:101AE00070934606809347069093480606C0893057
:101AF00021F463E485E00E947402809149068034F9
:101B000019F50E9463000091450610914606209148
:101B1000470630914806DC01CB01801B910BA20BDC
:101B2000B30B80369A4EA105B10570F08091BD04CB
:101B30002091BC0490E0922B479730F460E485E05C
:101B40000E94740210924906C114D10411F40C943D
:101B5000C3040E9400000C94B90481E029CEF999D5
:101B6000FECF92BD81BDF89A992780B50895262FA2
:101B7000F999FECF92BD81BDF89A019700B4021683
:101B800039F01FBA20BD0FB6F894FA9AF99A0FBE31
:101B90000895262FF999FECF1FBA92BD81BD20BDB1
:101BA0000FB6F894FA9AF99A0FBE01960895052E89
:101BB00097FB1EF400940E94EE0D57FD07D00E9483
:101BC000010E07FC03D04EF40C94EE0D5095409599
:101BD000309521953F4F4F4F5F4F089590958095D9
:101BE000709561957F4F8F4F9F4F08950E94230EF0
:101BF000A59F900DB49F900DA49F800D911D112461
:101C00000895A1E21A2EAA1BBB1BFD010DC0AA1F3D
:101C1000BB1FEE1FFF1FA217B307E407F50720F055
:101C2000A21BB30BE40BF50B661F771F881F991FD0
:101C30001A9469F760957095809590959B01AC0119
:101C4000BD01CF010895A29FB001B39FC001A39F22
:101C5000700D811D1124911DB29F700D811D1124E5
:101C6000911D0895FB01DC014150504030F08D91F1
:101C70000190801919F40020B9F7881B990B089579
:101C8000F894FFCFFFFF7268673A46306B65793A88
:101C90004646636F6E6669677073627370696273DC
:101CA0006376627362696462A06A2566E061CE5DF4
:101CB000EE593B56B552584F234C134927465D43C6
:101CC000B340283EBA3B67392E370F3507331631FC
:101CD0003A2F732DBF2B1E2A8E280F27A1254224B1
:101CE000F122AE217920501F331E221D1C1C201B07
:101CF0002F1A471968189217C516FF1541158B142E
:101D0000DC1333139012F4115E11CD104210BC0F8E
:101D10003B0FBF0E470ED40D650DFA0C920C2F0C25
:101D2000CF0B720B190BC30A700A1F0AD20987095D
:101D30003F09F908B60875083608F907BF0786078E
:101D40004F071A07E706B506850657062A06FF0558
:101D5000D505AC055772697474696E672076616C3D
:101D600075657320746F20414645004C6F6164694E
:101D70006E672076616C7565732066726F6D2045A5
:101D80004550524F4D0056616C756573206C6F6104
:101D9000646165642066726F6D20454550524F4DF9
:101DA0002073756365737366756C6C790056616C2E
:101DB000756573207772697474656E20746F204145
:101DC00046452073756365737366756C6C7900495D
:101DD00032432064657669636520627573790063B8
:101DE000656C6C206F766572766F6C7461676520C8
:101DF0006661756C740043656C6C20756E64657209
:101E0000766F6C74616765206661756C74007061D3
:101E1000636B206F766572766F6C746167652066A0
:101E200061756C74007061636B20756E64657276A9
:101E30006F6C74616765206661756C7400706163B6
:101E40006B206F7665722063757272656E742064A4
:101E50007572696E67206368617267696E67206674
:101E600061756C74007061636B206F7665722063BE
:101E7000757272656E7420647572696E672064692C
:101E8000736368617267696E67206661756C740060
:101E90007061636B206F7665722074656D7065721A
:101EA0006174757265206661756C74007061636B36
:101EB00020756E6465722074656D706572617475ED
:101EC0007265206661756C740043656C6C206F767A
:101ED0006572766F6C746167652072656C6561739D
:101EE00065640063656C6C20756E64657220766F46
:101EF0006C746167652072656C6561736564007000
:101F000061636B206F766572766F6C7461676520B4
:101F100072656C65617365007061636B20756E64DA
:101F20006572766F6C746167652072656C6561734C
:101F300065006F76657263757272656E7420696E86
:101F400020432F442072656C656173656400706185
:101F5000636B206F76657274656D70657261747500
:101F600072652072656C6561736564007061636B96
:101F700020756E64657274656D70657261747572DA
:101F8000652072656C65617365640020424C3A207F
:101F9000556E6B6E6F776E20436F6D6D616E642052
:101FA0005265636569766564200043757272656E7B
:101FB000742063616C6C6962726174696F6E206613
:101FC0006163746F722075706461746564207375E9
:101FD0006365737366756C6C792100726563686103
:101FE0007267652069636F6E202563656E74616733
:101FF00065207468726573686F6C642075706461C5
:102000007465642073756365737366756C6C792190
:102010000056616C756520746F2062652072656181
:10202000640077726F6E6720636F6E666967206306
:102030006F6D6D616E64000D0A00FFFFFFFFFFFF13
:10204000FFFFFFFFFFFFFFFFFFFFFFFFFFFFFFFFA0
:10205000FFFFFFFFFFFFFFFFFFFFFFFFFFFFFFFF90
:10206000FFFFFFFFFFFFFFFFFFFFFFFFFFFFFFFF80
:10207000FFFFFFFFFFFFFFFFFFFFFFFFFFFFFFFF70
:00000001FF
