:100000000C9434000C9451000C9451000C94510049
:100010000C9474010C9451000C9451000C945100F8
:100020000C9451000C9451000C9451000C9451000C
:100030000C9451000C9451000C9451000C945100FC
:100040000C946F000C9451000C9451000C945100CE
:100050000C9451000C9451000C9451000C945100DC
:100060000C9451000C94510011241FBECFEFD8E026
:10007000DEBFCDBF17E0A0E0B1E0EEE3F0E202C0EA
:1000800005900D92A830B107D9F728E0A8E0B7E0B5
:1000900001C01D92AF3AB207E1F70E94C2020C9470
:1000A0001D100C940000FC019191992359F080914E
:1000B000C00085FFFCCF8091C00085FFFCCF9093EE
:1000C000C600F2CF08952FB7F8946091AB087091F5
:1000D000AC088091AD089091AE082FBF08951F9293
:1000E0000F920FB60F9211242F933F938F939F93EC
:1000F000AF93BF938091AB089091AC08A091AD08ED
:10010000B091AE083091AA0826E0230F2D3720F4D5
:100110000296A11DB11D05C029E8230F0396A11D5C
:10012000B11D2093AA088093AB089093AC08A093CC
:10013000AD08B093AE088091A6089091A708A09151
:10014000A808B091A9080196A11DB11D8093A60829
:100150009093A708A093A808B093A908BF91AF9166
:100160009F918F913F912F910F900FBE0F901F90F5
:1001700018958F929F92AF92BF92CF92DF92EF929B
:10018000FF92262F30E0382BAEE7B1E00E9400103E
:1001900028EE33E040E050E00E94DE0F69017A0172
:1001A000A0E1B7E20E94D30F24EE822E2CE0922E23
:1001B000A12CB12CA50194012C193D094E095F0910
:1001C0000E94DE0FE4E2F1E080E090E06191719145
:1001D0006B01E12CF12CC216D306E406F50620F0E3
:1001E00001968635910591F7FF90EF90DF90CF90C3
:1001F000BF90AF909F908F90089587E290E0DC01D0
:10020000A55FB84F2C91FC01E65FF84F60814091EB
:1002100008075091090730E0362B4217530740F486
:100220002C91408130E0342B30930907209308074C
:100230002C916081409100015091010130E0362BFA
:100240002417350740F42C91408130E0342B309353
:1002500001012093000102968334910581F60895EF
:10026000CF93DF931F92CDB7DEB7198290ED980F31
:100270009A3010F499830CC09FEB980F963010F4CD
:10028000875305C09FE9980F963010F487558983EE
:1002900089818F700F90DF91CF9108950E94530054
:1002A00085E097E00C9453009091C00095FFFCCF3F
:1002B0009091C00095FFFCCF8093C6000895CF9326
:1002C000C82F82958F708A3010F0895C01C0805DE4
:1002D0000E9454018C2F8F708A3010F0895C01C00D
:1002E000805DCF910C9454011F920F920FB60F9224
:1002F00011242F933F934F935F936F937F938F932B
:100300009F93AF93BF93EF93FF9360E880E00E94C9
:100310007402809199078F5F80939907FF91EF9105
:10032000BF91AF919F918F917F916F915F914F910D
:100330003F912F910F900FBE0F901F90189571E075
:100340005F98579A56985E9A000000000000C7D048
:1003500057985F9AC4D0A8940000000000004F9BFB
:10036000AAD0D2F088944E990894771F48F75F98E6
:10037000579A803019F056985E9A02C05E98569A45
:10038000000000000000ABD057985F9AA8940000CE
:1003900000004F9B90D0A3D0000000005F98579AB8
:1003A000872F9927089580E208950894881F01C037
:1003B000880FD9F05F98579A00000000000020F4E1
:1003C000000056985E9A03C05E98569A00C087D087
:1003D00057985F9AA8940000000000004F9B6BD0D4
:1003E00012F4882715C07BD0E3CF5F98579A00009E
:1003F000000056985E9A73D09927882757985F9A7D
:10040000A89400004F9B57D062F34E9B81E067D0C9
:10041000000000005F98579A089581E008955F9862
:10042000579A5E98569A5BD057985F9A58D04F9BD0
:1004300042D056985E9A53D008958F93F1E0E4EF3E
:100440008F918F934F9B37D05E98569A48D0ADDFEF
:10045000882321F4E4DF319709F0F2CF99270F9038
:10046000089508955F98579A3AD056985E9A37D073
:1004700057985F9A34D04F9B1ED05E98569A2FD0D3
:1004800094DF089581E008954F9B15D05E98569AA9
:1004900026D08BDF089581E00895569857985E9A8C
:1004A0005F9A882799274E9B08954F9B089581E076
:1004B000089581E00895B7E0A0ED002409D032F45A
:1004C0000A94E1F71197C9F7289408C0A89406C0C8
:1004D000A8944F9901C0289400000895089592E3CC
:1004E0009A95F1F708950895CF93DF9300D000D047
:1004F00000D0CDB7DEB790E199838A836B831D82EC
:1005000080E090E040E837E04E83E1E0F0E0EC0F7F
:10051000FD1FE80FF91F2E812223B9F02D8127FF3F
:1005200006C02D81220F2D832D81232702C02D810E
:10053000220F2D835E812081252319F02D81232711
:100540002D832E8126952E83E6CF0196833091054B
:10055000D9F68D818C8389810E9444028A810E9410
:10056000D5018B810E94D5018C810E94D5010E940A
:100570000F0226960FB6F894DEBF0FBECDBFDF91F7
:10058000CF910895CF93DF93CDB7DEB72E970FB6F7
:10059000F894DEBF0FBECDBF789484B5826084BD71
:1005A00084B5816084BD85B5826085BD85B5816077
:1005B00085BD80916E00816080936E0010928100F5
:1005C00080918100826080938100809181008160B0
:1005D0008093810080918000816080938000809171
:1005E000B10084608093B1008091B00081608093FD
:1005F000B00080917A00846080937A0080917A00C4
:10060000826080937A0080917A008E7F80937A0056
:1006100080917A00806880937A001092C100209ABD
:1006200087B1836087B92898409A419A83E38D8780
:100630008D851092C5008D858093C40088E18093DC
:10064000C1008EE08093C20080ED91E00E944E01D7
:1006500087EE91E00E944E0180E090E00E948C0FB6
:1006600080930A0781E090E00E948C0F80930B0733
:1006700083E090E00E948C0F80938A0784E090E0F2
:100680000E948C0F80938B0785E090E00E948C0F76
:1006900080938C0786E090E00E948C0F80938D07FA
:1006A00087E090E00E948C0F80938E0788E090E0B6
:1006B0000E948C0F80938F0789E090E00E948C0F3E
:1006C000809361078AE090E00E948C0F80936F070F
:1006D0008BE090E00E948C0F809370078CE090E09C
:1006E0000E948C0F809353078DE090E00E948C0F46
:1006F000809354078EE090E00E948C0F80935F07F8
:100700008FE090E00E948C0F80936D0780E190E075
:100710000E948C0F80936E0781E190E00E948C0F05
:100720008093550782E190E00E948C0F80935607DA
:1007300083E190E00E948C0F8093630784E190E056
:100740000E948C0F8093640785E190E00E948C0FDB
:100750008093710786E190E00E948C0F809372076E
:1007600087E190E00E948C0F8093570788E190E02A
:100770000E948C0F8093580789E190E00E948C0FB3
:10078000809365078AE190E00E948C0F8093660752
:100790008BE190E00E948C0F809373078CE190E0D6
:1007A0000E948C0F809374078DE190E00E948C0F63
:1007B000809359078EE190E00E948C0F80935A0736
:1007C0008FE190E00E948C0F80936B0780E290E0B5
:1007D0000E948C0F8093760781E290E00E948C0F3C
:1007E00080935B0782E290E00E948C0F80935C070D
:1007F00083E290E00E948C0F80936C0784E290E08B
:100800000E948C0F8093770785E290E00E948C0F06
:1008100080935D0786E290E00E948C0F80935E07D4
:1008200087E290E00E948C0F8093940788E290E02A
:100830000E948C0F8093950789E290E00E948C0FB4
:10084000809396078AE290E00E948C0F809367075E
:100850008BE290E00E948C0F809368078CE290E01E
:100860000E948C0F809369078DE290E00E948C0FAC
:1008700080936A0781E390E00E948C0F80931007B9
:1008800082E390E00E948C0F8093110780E490E057
:100890000E948C0F8093900781E490E00E948C0F5F
:1008A0008093910782E490E00E948C0F80939207DE
:1008B00083E490E00E948C0F80932D0782E092E009
:1008C0000E944E0160918A0784E00E947402609148
:1008D0008B0785E00E94740260918C0786E00E947D
:1008E000740260918D0787E00E94740260918E0708
:1008F00088E00E94740260918F078BE00E9474026E
:100900006091610789E00E94740260915F078AE04C
:100910000E9474026091900781E00E9474026091CD
:10092000910782E00E9474026091920783E00E9426
:10093000740289E292E00E944E01F894809168006E
:1009400082608093680080916C00886080936C0066
:1009500078946FEF80E00E94740229E9222E2EE144
:10096000322E412C512C37E2A32EB12C49E7842E94
:10097000912CFF24F39485E0E82E90E0C92E90E0BE
:10098000D92E80919907843008F454C6F89480E1F8
:100990000E941D0281110EC08BE492E00E944E0164
:1009A0002FEF89E698E1215080409040E1F700C0A8
:1009B0000000F2C080E00E94D50181E10E94320275
:1009C00081E00E949F01809389070E940F0280E1CD
:1009D0000E941D02882301F38AE20E94D50181E171
:1009E0000E94320281E00E949F0180930C078AE2FC
:1009F0000E94D50181E10E94320281E00E949F01A4
:100A000080930D070E940F0280E10E941D0288233F
:100A100019F282E30E94D50181E10E94320281E055
:100A20000E949F0180930E0782E30E94D50181E11D
:100A30000E94320281E00E949F0180930F070E9472
:100A40000F02F092A10785EA8093A00720910D077D
:100A500080910C0730E0382B2D3BE2E73E07B0F0E9
:100A60002735F1E93F07A0F4C901A0E0B0E09C01FF
:100A7000AD012D5B324741095109A4E6B0E00E9467
:100A8000D30FA20191010E94B40F03C020E001C066
:100A900024E6209312079091120780912D07891761
:100AA00030F480910A0784FD02C08FE001C080E02D
:100AB0008093130780E10E941D02882309F46CCF04
:100AC00085E00E94D50181E10E94320281E00E940E
:100AD0009F018370809314070E940F0280E10E949F
:100AE0001D02882309F458CF8EE20E94D50181E1CE
:100AF0000E94320281E00E949F01182F80939F077D
:100B00008EE20E94D50181E10E94320281E00E94C2
:100B10009F0180939E078E870E940F028E85682F0B
:100B2000812F0E94B900182F80939D07809315078D
:100B300080E10E941D02882309F42ECF80E30E94E9
:100B4000D50181E10E94320281E00E949F01082FBD
:100B500080939C0780E30E94D50181E10E943202CC
:100B600081E00E949F0180939B078E870E940F0265
:100B70008E85682F802F0E94B90080939A078093FA
:100B80001607181728F4809393071093970704C04B
:100B90001093930780939707F092830723E720939E
:100BA0008407E09285078CEF8093860798E2909304
:100BB000170783E280931807809112078093190723
:100BC000F0921A0784E280931B0789E380931C0745
:100BD00089E180931D079FE490931E0780E880932E
:100BE0001F079093200720E220932107909322076C
:100BF0009DE290932307E0922407809325072FE836
:100C0000209326079FEF9093270720932807909320
:100C1000290780932A0710922B0780E180932C07E5
:100C200010922F07109230070E941D0281110EC0F2
:100C30008BE492E00E944E01EFEFF9E628E1E150EB
:100C4000F0402040E1F700C000009DC18CE00E9410
:100C5000D50181E10E94320281E00E949F018093D0
:100C600031078CE00E94D50181E10E94320281E0CF
:100C70000E949F01809332070E940F0280E10E9430
:100C80001D028823A9F28EE00E94D50181E10E9415
:100C9000320281E00E949F01809333078EE00E9420
:100CA000D50181E10E94320281E00E949F01809380
:100CB00034070E940F0280E10E941D02882309F47C
:100CC000B7CF80E10E94D50181E10E94320281E02C
:100CD0000E949F018093350780E10E94D50181E148
:100CE0000E94320281E00E949F01809336070E9499
:100CF0000F0280E10E941D02882309F499CF82E14E
:100D00000E94D50181E10E94320281E00E949F0190
:100D10008093370782E10E94D50181E10E9432026F
:100D200081E00E949F01809338070E940F0280E1BA
:100D30000E941D02882309F47BCF84E10E94D50123
:100D400081E10E94320281E00E949F018093390775
:100D500084E10E94D50181E10E94320281E00E947B
:100D60009F0180933A070E940F0280E10E941D02BA
:100D7000882309F45DCF86E10E94D50181E10E94BC
:100D8000320281E00E949F0180933B0786E10E942E
:100D9000D50181E10E94320281E00E949F0180938F
:100DA0003C070E940F0280E10E941D02882309F483
:100DB0003FCF88E10E94D50181E10E94320281E0AB
:100DC0000E949F0180933D0788E10E94D50181E147
:100DD0000E94320281E00E949F0180933E070E94A0
:100DE0000F0280E10E941D02882309F421CF8AE1CD
:100DF0000E94D50181E10E94320281E00E949F01A0
:100E000080933F078AE10E94D50181E10E9432026E
:100E100081E00E949F01809340070E940F0280E1C1
:100E20000E941D02882309F403CF8CE10E94D501A2
:100E300081E10E94320281E00E949F01809341077C
:100E40008CE10E94D50181E10E94320281E00E9482
:100E50009F01809342070E940F0280E10E941D02C1
:100E6000882309F4E5CE8EE10E94D50181E10E943C
:100E7000320281E00E949F01809343078EE10E942D
:100E8000D50181E10E94320281E00E949F0180939E
:100E900044070E940F0280E10E941D02882309F48A
:100EA000C7CE80E20E94D50181E10E94320281E03A
:100EB0000E949F018093450780E20E94D50181E155
:100EC0000E94320281E00E949F01809346070E94A7
:100ED0000F0280E10E941D02882309F4A9CE82E25C
:100EE0000E94D50181E10E94320281E00E949F01AF
:100EF0008093470782E20E94D50181E10E9432027D
:100F000081E00E949F01809348070E940F0280E1C8
:100F10000E941D02882309F48BCE84E20E94D50131
:100F200081E10E94320281E00E949F018093490783
:100F300084E20E94D50181E10E94320281E00E9498
:100F40009F0180934A070E940F0280E10E941D02C8
:100F5000882309F46DCE88E20E94D50181E10E94C8
:100F6000320281E00E949F0180934B0788E20E9439
:100F7000D50181E10E94320281E00E949F018093AD
:100F80004C070E940F020E94FD008091890782FD9C
:100F90000DC02091080730910907809162074091A8
:100FA000610790E0942B8217930788F580910A07D8
:100FB000807569F562E485E00E94740280910A07F9
:100FC000806880930A0760910A0780E090E00E94A1
:100FD000940F809154078F3F09F066C380915307A7
:100FE0008F5F8093530710925407609154078DE0F0
:100FF00090E00E94940F609153078CE090E00E9473
:10100000940F8BE592E00E944E0110929D08809112
:10101000890783FD0DC0209100013091010180916D
:10102000600740915F0790E0942B2817390788F5F7
:1010300080910A07887269F561E485E00E94740274
:1010400080910A07806480930A0760910A0780E014
:1010500090E00E94940F809156078F3F09F02AC3B9
:10106000809155078F5F80935507109256076091C6
:10107000560782E190E00E94940F6091550781E14C
:1010800090E00E94940F82E792E00E944E0110923D
:101090009D0820910D0790910C0780916407409165
:1010A000630730E0392B90E0942B8217930788F583
:1010B00080910A07847169F562E485E00E947402F8
:1010C00010929D0880910A07806280930A076091C0
:1010D0000A0780E090E00E94940F809158078F3FAC
:1010E00009F0EEC2809157078F5F809357071092E7
:1010F00058076091580782E190E00E94940F609138
:10110000570781E190E00E94940F8AE892E00E94E4
:101110004E0120910D0790910C0780916607409138
:10112000650730E0392B90E0942B2817390788F5B4
:1011300080910A0784FD2DC061E485E00E9474025D
:1011400010929D0880910A07806180930A07609140
:101150000A0780E090E00E94940F80915A078F3F29
:1011600009F0B4C2809159078F5F8093590710929C
:101170005A0760915A0782E190E00E94940F6091B3
:10118000590781E190E00E94940F81EA92E00E9469
:101190004E0120910F0790910E07809168074091B2
:1011A000670730E0392B90E0942B82179307D8F52E
:1011B00080910E0787FD37C062E485E00E947402CB
:1011C00010929D0880910A07826080930A076091BF
:1011D0000A0780E090E00E94940F809150078F3FB3
:1011E00009F07AC280914F078F5F80934F0710926A
:1011F00050076091500782E190E00E94940F609147
:101200004F0781E190E00E94940F89EB92E00E94E9
:101210004E010E9463006093A2077093A30780931E
:10122000A4079093A50780910F0780910E0787FF71
:101230004BC020910F0790910E0780916A07409153
:10124000690730E0392B90E0942B28173907E0F537
:1012500061E485E00E94740210929D0880910A0763
:10126000816080930A0760910A0780E090E00E9405
:10127000940F809152078F3F41F4809151078F5F07
:10128000809351071092520705C0809152078F5FDB
:10129000809352076091520782E190E00E94940F80
:1012A0006091510781E190E00E94940F81EE92E0FD
:1012B0000E944E010E9463006093A2077093A307EF
:1012C0008093A4079093A5079091930780916B0753
:1012D000891788F580910A0783FD2DC060E485E0B9
:1012E0000E94740210929D0880910A078860809382
:1012F0000A0760910A0780E090E00E94940F8091B5
:1013000052078F3F09F0EEC180915C078F5F809399
:101310005C0710925B0760915C0782E190E00E949D
:10132000940F60915B0781E190E00E94940F8CE044
:1013300093E00E944E019091970780916C07981757
:1013400088F580910A0782FD2DC060E485E00E9447
:10135000740210929D0880910A07846080930A07A6
:1013600060910A0780E090E00E94940F80915E07F0
:101370008F3F09F0BDC180915E078F5F80935E074C
:1013800010925D0760915E0782E190E00E94940FE9
:1013900060915D0781E190E00E94940F88E293E004
:1013A0000E944E0180910A0787FF27C020910807FD
:1013B000309109078091700740916F0790E0942B5E
:1013C00028173907D0F480910A078F7780930A078E
:1013D00060910A0780E090E00E94940F64E080E052
:1013E0000E94740285E493E00E944E0163E485E06C
:1013F0000E94740280E480939D0880910A0786FF12
:1014000029C00E94FD0020910001309101018091CE
:101410006E0740916D0790E0942B82179307D0F4EC
:1014200080910A078F7B80930A0760910A0780E00A
:1014300090E00E94940F68E080E00E9474028FE5C3
:1014400093E00E944E0163E485E00E94740280E410
:1014500080939D0880910A0785FF25C020910D0784
:1014600090910C07809172074091710730E0392B01
:1014700090E0942B28173907B0F480910A078F7DEC
:1014800080930A0760910A0780E090E00E94940F21
:101490008BE793E00E944E0163E485E00E947402B2
:1014A00080E480939D0880910A0784FF25C02091E5
:1014B0000D0790910C07809174074091730730E0FD
:1014C000392B90E0942B82179307B0F480910A0790
:1014D0008F7E80930A0760910A0780E090E00E9467
:1014E000940F84E993E00E944E0163E485E00E943A
:1014F000740280E480939D0880910A0781FD04C0F6
:1015000080910A0780FF3AC00E9463000091A20701
:101510001091A3072091A4073091A507DC01CB010E
:10152000801B910BA20BB30B80369A4EA105B1051F
:1015300028F10E9463006093990870939A08809341
:101540009B0890939C0880910A078E7F80930A07DE
:1015500080910A078D7F80930A0760910A0780E0D7
:1015600090E00E94940F8EEA93E00E944E0163E4A3
:1015700085E00E94740280E480939D0880910A07B0
:1015800083FF1CC090919307809176079817B0F461
:1015900080910A07877F80930A0760910A0780E09D
:1015A00090E00E94940F8AEC93E00E944E0163E465
:1015B00085E00E94740280E480939D0880910A0770
:1015C00082FF1CC090919707809177078917B0F42C
:1015D00080910A078B7F80930A0760910A0780E059
:1015E00090E00E94940F88EE93E00E944E0163E425
:1015F00085E00E94740280E480939D081092990710
:1016000078946FEF80E00E94740214C09D3021F541
:10161000F092A7078091C00087FF70C09091C6002C
:101620009A30A1F78091A707813031F01092A60778
:101630001092A90710E0EECF1092A7071091A6070D
:10164000E12FF0E0E755F84F1082112319F01092C6
:10165000A607E0CF11E0DECF8091A607983059F4BD
:101660008823C1F2E82FF0E0E755F84F108281504F
:101670008093A607CFCF882391F0282F30E0F9017F
:10168000E755F84F2A3E31052CF48F5F8093A6076B
:101690009083C0CF10821092A607182FBBCFF09274
:1016A000A6079093A907B6CF809154078F5F8093C8
:1016B00054079BCC809156078F5F80935607D7CCF9
:1016C000809158078F5F8093580713CD80915A07F8
:1016D0008F5F80935A074DCD809150078F5F809325
:1016E000500787CD80915C078F5F80935C0713CE96
:1016F00080915C078F5F80935C0744CE1093A807AE
:10170000112309F4F3C389EA97E090939708809333
:1017100096081092980842E050E0BC0182E291E005
:101720000E940F10892B09F457C044E050E069EA89
:1017300077E08EE191E00E940F10892B09F44EC0F2
:1017400044E050E069EA77E08AE191E00E940F10FE
:10175000892B09F445C044E050E069EA77E086E16E
:1017600091E00E940F10892BE9F142E050E069EA14
:1017700077E084E191E00E940F10892BA9F146E007
:1017800050E069EA77E08EE091E00E940F10892B2B
:1017900069F4173068F186E080939808EFEAF7E083
:1017A000F0939708E093960887E023C046E050E066
:1017B00069EA77E088E091E00E940F10892BB1F090
:1017C00046E050E069EA77E082E091E00E940F1085
:1017D000892B71F489E00DC082E00BC083E009C061
:1017E00084E007C085E005C086E003C088E001C052
:1017F00080E080939E0880919E08811103C087E05D
:1018000094E01AC3823051F5F8941C861B868B85B0
:101810009C850B9704F5EB85FC85E65FF84F80818E
:101820000E945F018B859C850A9764F08AE30E9481
:101830005401809193070E945F018DE00E94540142
:101840008AE001C08AE30E9454018B859C85019641
:101850009C878B87DCCF78946FEF88C0833009F04A
:1018600045C098868F828F8198858D37910584F445
:10187000EF81F885E65FF84F80810E945F018AE37F
:101880000E9454018F819885019698878F83EBCFB2
:10189000809110070E945F018AE30E9454018091A9
:1018A00011070E945F018AE30E9454018BE090E0DF
:1018B0009A87898789859A8583970CF0E7C2E9859D
:1018C000FA85E65FF84F80810E945F0189859A85DD
:1018D00082972CF08DE00E9454018AE001C08AE3D7
:1018E0000E94540189859A850196E2CF843081F562
:1018F000F894809183070E945F018AE30E9454015B
:10190000809184070E945F018AE30E945401BE8295
:10191000AD828D819E818334910534F5ED81FE8108
:10192000E65FF84F80810E945F018D819E81823445
:1019300091052CF08DE00E9454018AE001C08AE3F9
:101940000E9454018D819E8101969E838D83E1CFFB
:10195000853031F5F89483E490E09C838B838B8110
:101960009C818535910524F0789460E880E0D1C2AF
:10197000EB81FC81E65FF84F80810E945F018B81E3
:101980009C81843591052CF08DE00E9454018AE001
:1019900001C08AE30E9454018B819C810196DDCFB6
:1019A000863011F5F894ECE1F0E0FA83E98389815F
:1019B0009A81C897CCF6E981FA81E65FF84F808179
:1019C0000E945F0189819A81C7972CF08DE00E9467
:1019D00054018AE001C08AE30E94540189819A81FE
:1019E00001969A838983E3CF873009F028C28091DA
:1019F0009808882309F44AC2E0919608F091970864
:101A000080818A3309F016C2F894009196081091EB
:101A10009708F8018181873709F0FFC183810E940F
:101A20003001682EF80184810E943001F0E16F9E40
:101A300090011124822B873509F421C1E8F58D30FE
:101A400009F4C1C090F5863009F0E7C1F80186813C
:101A50000E943001682EF80187810E943001F0E178
:101A60006F9E90011124822B80931007F8018085CE
:101A70000E943001682EF80181850E943001F0E15A
:101A80006F9E90011124822B8093110760911007A3
:101A900081E390E00E94A60F6091110782E390E03D
:101AA0000E94A60F86E294E05CC0833209F441C034
:101AB000853509F4A1C0B1C18B3509F466C120F4A4
:101AC000893509F41FC1A9C1893709F44DC08B3785
:101AD00009F0A3C1F80186810E943001682EF80147
:101AE00087810E943001F0E16F9E90011124822BCA
:101AF00080938507F80180850E943001682EF801E7
:101B000081850E943001F0E16F9E90011124822BAB
:101B1000809386076091850786E390E00E94A60F78
:101B20006091860787E390E00E94A60F83EC94E023
:101B300018C0F80186810E943001682EF801878163
:101B40000E943001F0E16F9E90011124822B80935E
:101B50002D0760912D0783E490E00E94A60F87E592
:101B600094E00E944E0159C1F80186810E94300123
:101B7000682EF80187810E943001F0E16F9E90018C
:101B80001124822B80938307F80180850E94300105
:101B9000682EF80181850E943001F0E16F9E90016E
:101BA0001124822B809384076091830784E390E063
:101BB0000E94A60F6091840785E390E00E94A60F23
:101BC0008DE894E0CECFF80186810E943001682E26
:101BD000F80187810E943001F0E16F9E900111248D
:101BE000822B809317076091170787E390E00E948C
:101BF000A60F89EF94E0B5CFF80186810E943001ED
:101C0000682EF80187810E943001F0E16F9E9001FB
:101C10001124782E722A70929508F80180850E940E
:101C20003001682EF80181850E943001F0E16F9E3D
:101C300090011124282B2093940840916E078091E5
:101C40006D07622F70E0772950E0582B64177507F5
:101C500098F470925F072093600760915F0786E4B5
:101C600090E00E94A60F6091600787E490E00E94D8
:101C7000A60F8FE195E0CBC086E595E0C8C0F801DE
:101C800086810E943001682EF80187810E94300110
:101C9000F0E16F9E90011124782E722A70929508BF
:101CA000F80180850E943001682EF80181850E942C
:101CB0003001F0E16F9E90011124282B20939408AD
:101CC0004091700780916F07622F70E0772950E094
:101CD000582B4617570798F47092610720936207B4
:101CE0006091610786E490E00E94A60F6091620710
:101CF00087E490E00E94A60F8EE895E088C084EC0F
:101D000095E085C0F80186810E943001682EF801B7
:101D100087810E943001F0E16F9E90011124782E9E
:101D2000722A70929508F80180850E943001682E11
:101D3000F80181850E943001F0E16F9E900111242D
:101D4000282B209394084091720780917107622F8D
:101D500070E0772950E0582B4617570798F4709297
:101D60006307209364076091630786E490E00E9414
:101D7000A60F6091640787E490E00E94A60F88EFA9
:101D800095E045C080E396E042C0F80186810E945C
:101D90003001682EF80187810E943001F0E16F9ECA
:101DA00090011124782E722A70929508F80180858E
:101DB0000E943001682EF80181850E943001F0E117
:101DC0006F9E90011124282B209394084091740752
:101DD00080917307622F70E0772950E0582B6417C9
:101DE000750798F470926507209366076091650700
:101DF00086E490E00E94A60F6091660787E490E079
:101E00000E94A60F84E696E002C08DE996E00E944B
:101E10004E011092940810929508E0919608F09166
:101E200097088181823709F09FCD8FED96E00E945F
:101E30004E019ACD80EF96E00E944E0127C0883077
:101E4000D9F420910A0780910B0790E0820F911D31
:101E5000892BE1F463E485E00E94740280E48093BE
:101E60009D080E9463006093990870939A0880937C
:101E70009B0890939C080AC0893041F480910A071E
:101E800084FD36C080910A0786FD32C080919D088E
:101E9000803419F50E9463000091990810919A0806
:101EA00020919B0830919C08DC01CB01801B910B99
:101EB000A20BB30B80369A4EA105B10570F080914C
:101EC0000F0720910E0790E0922B479730F460E4C3
:101ED00085E00E94740210929D08C114D10411F48F
:101EE0000C94C1040E9400000C94B90481E081CCE0
:101EF00080910A078F7E80930A0760910A0780E02D
:101F000090E00E94940F84E993E00E944E0163E404
:101F100085E00E947402BACFF999FECF92BD81BDCF
:101F2000F89A992780B50895262FF999FECF92BD8A
:101F300081BDF89A019700B4021639F01FBA20BD8E
:101F40000FB6F894FA9AF99A0FBE0895262FF999C8
:101F5000FECF1FBA92BD81BD20BD0FB6F894FA9A8C
:101F6000F99A0FBE01960895052E97FB1EF4009472
:101F70000E94CB0F57FD07D00E94DE0F07FC03D055
:101F80004EF40C94CB0F50954095309521953F4FD2
:101F90004F4F5F4F089590958095709561957F4F55
:101FA0008F4F9F4F08950E940010A59F900DB49FE2
:101FB000900DA49F800D911D11240895A1E21A2E69
:101FC000AA1BBB1BFD010DC0AA1FBB1FEE1FFF1FDD
:101FD000A217B307E407F50720F0A21BB30BE40B2D
:101FE000F50B661F771F881F991F1A9469F7609574
:101FF0007095809590959B01AC01BD01CF0108952E
:10200000A29FB001B39FC001A39F700D811D112439
:10201000911DB29F700D811D1124911D0895FB012A
:10202000DC014150504030F08D910190801919F43D
:102030000020B9F7881B990B0895F894FFCFFFFF94
:102040007268673A46306B65793A4646636F6E66EA
:1020500069677073627370696273637662736269D1
:102060006462A06A2566E061CE5DEE593B56B552CA
:10207000584F234C134927465D43B340283EBA3B93
:1020800067392E370F35073316313A2F732DBF2B93
:102090001E2A8E280F27A1254224F122AE21792065
:1020A000501F331E221D1C1C201B2F1A4719681895
:1020B0009217C516FF1541158B14DC1333139012BC
:1020C000F4115E11CD104210BC0F3B0FBF0E470E36
:1020D000D40D650DFA0C920C2F0CCF0B720B190B53
:1020E000C30A700A1F0AD20987093F09F908B6080E
:1020F00075083608F907BF0786074F071A07E7066E
:10210000B506850657062A06FF05D505AC055772A4
:10211000697474696E672076616C75657320746F7D
:1021200020414645004C6F6164696E672076616CA2
:102130007565732066726F6D20454550524F4D0096
:1021400056616C756573206C6F61646165642066AF
:10215000726F6D20454550524F4D20737563657306
:102160007366756C6C790056616C75657320777257
:10217000697474656E20746F2041464520737563E1
:1021800065737366756C6C790049324320646576BB
:1021900069636520627573790063656C6C206F7686
:1021A0006572766F6C74616765206661756C74002A
:1021B00043656C6C20756E646572766F6C746167D4
:1021C00065206661756C74007061636B206F766565
:1021D00072766F6C74616765206661756C740070EF
:1021E00061636B20756E646572766F6C7461676590
:1021F000206661756C74007061636B206F76657228
:102200002063757272656E7420647572696E6720E2
:102210006368617267696E67206661756C740070CF
:1022200061636B206F7665722063757272656E7480
:1022300020647572696E6720646973636861726790
:10224000696E67206661756C74007061636B206FE6
:102250007665722074656D70657261747572652043
:102260006661756C74007061636B20756E64657275
:102270002074656D70657261747572652066617534
:102280006C740043656C6C206F766572766F6C744D
:102290006167652072656C65617365640063656C78
:1022A0006C20756E64657220766F6C746167652052
:1022B00072656C6561736564007061636B206F7635
:1022C0006572766F6C746167652072656C656173A9
:1022D00065007061636B20756E646572766F6C74F7
:1022E0006167652072656C65617365006F76657204
:1022F00063757272656E7420696E20432F4420727C
:10230000656C6561736564007061636B206F7665F1
:102310007274656D70657261747572652072656C3A
:102320006561736564007061636B20756E646572CE
:1023300074656D70657261747572652072656C6527
:10234000617365640020424C3A20556E6B6E6F7766
:102350006E20436F6D6D616E6420526563656976B2
:102360006564200043757272656E742063616C6CE5
:102370006962726174696F6E20666163746F722046
:1023800075706461746564207375636573736675D5
:102390006C6C79210072656368617267652069639E
:1023A0006F6E202563656E74616765207468726561
:1023B00073686F6C642075706461746564207375F4
:1023C0006365737366756C6C79210043656C6C2072
:1023D000766F6C746167652063616C6C69627261B1
:1023E00074696F6E20666163746F722075706461CA
:1023F0007465642073756365737366756C6C79219D
:10240000005061636B20766F6C7461676520636157
:102410006C6C6962726174696F6E20666163746F5F
:10242000722075706461746564207375636573737D
:1024300066756C6C7921004E6F6D696E616C2063FE
:10244000617061636974792075706461746564207A
:1024500073756365737366756C6C79210043656C85
:102460006C20756E64657220766F6C746167652090
:1024700074726970207468726573686F6C6420751B
:102480007064617465642073756365737366756CDD
:102490006C79210043656C6C20756E6465722076E2
:1024A0006F6C7461676520747269702063616E205F
:1024B0006E6F742062652067726561746572207446
:1024C00068656E2072656C656173650043656C6C50
:1024D000206F76657220766F6C7461676520747208
:1024E0006970207468726573686F6C6420757064BD
:1024F000617465642073756365737366756C6C795C
:10250000210043656C6C206F76657220766F6C7469
:1025100061676520747269702063616E206E6F74EC
:10252000206265206C657373207468656E20726527
:102530006C65617365005061636B206F7665722016
:10254000766F6C74616765206375746F666620745E
:1025500068726573686F6C6420757064617465641B
:102560002073756365737366756C6C7921005061B7
:10257000636B206F76657220766F6C74616765207F
:10258000747269702063616E206E6F7420626520C2
:102590006C657373207468656E2072656C65617319
:1025A00065005061636B20756E64657220766F6C98
:1025B00074616765206375746F6666207468726500
:1025C00073686F6C642075706461746564207375E2
:1025D0006365737366756C6C7921005061636B2061
:1025E000756E64657220766F6C74616765207472B5
:1025F00069702063616E206E6F742062652067725F
:102600006561746572207468656E2072656C6561C1
:102610007365207468726573686F6C640056616CD2
:10262000756520746F206265207265616400777241
:102630006F6E6720636F6E66696720636F6D6D6193
:102640006E64000D0A00FFFFFFFFFFFFFFFFFFFFAB
:10265000FFFFFFFFFFFFFFFFFFFFFFFFFFFFFFFF8A
:10266000FFFFFFFFFFFFFFFFFFFFFFFFFFFFFFFF7A
:10267000FFFFFFFFFFFFFFFFFFFFFFFFFFFFFFFF6A
:10268000FFFFFFFFFFFFFFFFFFFFFFFFFFFFFFFF5A
:00000001FF
