:100000000C9434000C9451000C9451000C94510049
:100010000C9403070C9451000C9451000C94510063
:100020000C9451000C9451000C9451000C9451000C
:100030000C9451000C9451000C9451000C945100FC
:100040000C948D000C9451000C9451000C945100B0
:100050000C9451000C9451000C9451000C945100DC
:100060000C9451000C94510011241FBECFEFD8E026
:10007000DEBFCDBF13E0A0E0B1E0E0E9F8E202C0EE
:1000800005900D92A037B107D9F725E0A0E7B3E0BE
:1000900001C01D92A231B207E1F70E9451080C94F1
:1000A00046140C940000CF93DF931F92CDB7DEB7B8
:1000B000198290ED980F9A3010F499830CC09FEB41
:1000C000980F963010F4875305C09FE9980F96302B
:1000D00010F48755898389818F700F90DF91CF91BC
:1000E0000895FC019191992359F08091C00085FFFA
:1000F000FCCF8091C00085FFFCCF9093C600F2CF6B
:1001000008952FB7F89460910E0570910F058091B6
:100110001005909111052FBF08951F920F920FB6F1
:100120000F9211242F933F938F939F93AF93BF937D
:1001300080910E0590910F05A0911005B0911105C9
:1001400030910D0526E0230F2D3720F40296A11DD6
:10015000B11D05C029E8230F0396A11DB11D2093F1
:100160000D0580930E0590930F05A0931005B09395
:1001700011058091090590910A05A0910B05B09198
:100180000C050196A11DB11D8093090590930A05E8
:10019000A0930B05B0930C05BF91AF919F918F91E8
:1001A0003F912F910F900FBE0F901F9018958F9237
:1001B0009F92AF92BF92CF92DF92EF92FF92262F43
:1001C00030E0382BAEE7B1E00E94291428EE33E08E
:1001D00040E050E00E94071469017A01A0E1B7E213
:1001E0000E94FC1324EE822E2CE0922EA12CB12C26
:1001F000A50194012C193D094E095F090E940714BD
:10020000E4E2F1E080E090E0619171916B01E12C1A
:10021000F12CC216D306E406F50620F001968635C9
:10022000910591F7FF90EF90DF90CF90BF90AF9046
:100230009F908F9008950E9471008CE693E00C943B
:1002400071009091C00095FFFCCF9091C00095FF88
:10025000FCCF8093C6000895CF93DF93EC018D2FE0
:1002600082958F708A3010F0895C01C0805D0E9499
:1002700021018D2F8F708A3010F0895C01C0805D64
:100280000E942101CE0124E0969587952A95E1F7F9
:100290008F708A3010F0895C01C0805D0E9421015E
:1002A000CF70CA3010F087E301C080E38C0FDF917C
:1002B000CF910C942101CF93C82F82958F708A30F3
:1002C00010F0895C01C0805D0E9421018C2F8F702D
:1002D0008A3010F0895C01C0805DCF910C942101BF
:1002E000CF93DF9380917003882309F487C5E09151
:1002F0007103F091720380818A3309F078C5F89414
:10030000E0917103F09172038181873709F0AAC4EB
:1003100083810E945300C82FE0917103F091720312
:1003200084810E9453008093070590E1C99F90014A
:100330001124282B20930805E0917103F09172039A
:10034000223609F4FFC208F05DC0273509F49EC1CA
:1003500008F046C02D3009F438C1D8F5263009F030
:1003600081C486810E945300C82FE0917103F091EF
:10037000720387810E94530090E1C99F900111246C
:10038000D82FD22BD0930805E0917103F09172031E
:1003900080850E945300C82FE0917103F091720391
:1003A00081850E94530090E1C99F90011124822B06
:1003B00080930705D093790380937A036091790342
:1003C00081E390E00E94CF1360917A0382E390E092
:1003D00044C4233209F4AAC0253509F411C142C42A
:1003E0002D3509F421C238F4293509F493C12B3590
:1003F00009F4D5C137C42F3509F44EC2213609F4AA
:1004000083C230C42C3609F4CFC350F5273609F423
:1004100041C338F4233609F4B3C2253609F4F5C2D2
:1004200021C4293609F47BC32B3609F01BC486810D
:100430000E945300C82FE0917103F09172038781ED
:100440000E94530090E1C99F90011124822B809358
:1004500008058093DE036091DE038FE290E0FDC328
:100460002B3709F47CC0F0F52D3609F4BBC32937CE
:1004700009F0F8C386810E945300C82FE0917103F0
:10048000F091720387810E94530090E1C99F90010F
:100490001124D82FD22BD0930805E0917103F0914D
:1004A000720380850E945300C82FE0917103F09180
:1004B000720381850E94530090E1C99F900111242D
:1004C000822B80930705D093EC038093ED0360911A
:1004D000EC0384E390E00E94CF136091ED0385E389
:1004E00090E0BBC32D3709F49BC32E3709F0BAC384
:1004F00086810E945300C82FE0917103F09172032E
:1005000087810E94530090E1C99F90011124822BA2
:10051000809308058093F1036091F1038AE00E94C3
:1005200003086091F1038EE090E097C386810E94FA
:100530005300C82FE0917103F091720387810E94EC
:10054000530090E1C99F90011124822B80930805EC
:10055000809396036091960383E490E07EC3868146
:100560000E945300C82FE0917103F09172038781BC
:100570000E94530090E1C99F90011124D82FD22BE3
:10058000D0930805E0917103F091720380850E9479
:100590005300C82FE0917103F091720381850E948E
:1005A000530090E1C99F90011124822B809307058D
:1005B000D093EE038093EF036091EE0386E390E027
:1005C0000E94CF136091EF0318C010920705868137
:1005D0000E945300C82FE0917103F091720387814C
:1005E0000E94530090E1C99F90011124822B8093B7
:1005F0000805809380036091800387E390E02DC31A
:1006000086810E945300C82FE0917103F09172031C
:1006100087810E94530090E1C99F90011124D82F37
:10062000D22BD0930805E0917103F091720380857D
:100630000E945300C82FE0917103F09172038185ED
:100640000E94530090E1C99F90011124282B209310
:1006500007058091D7033091D603422F50E05D2BE0
:1006600090E0932B4817590778F4D093C803209350
:10067000C9036091C80386E490E00E94CF136091A3
:10068000C90387E490E0E9C280E0EAC286810E9463
:100690005300C82FE0917103F091720387810E948B
:1006A000530090E1C99F90011124D82FD22BD093F1
:1006B0000805E0917103F091720380850E94530058
:1006C000C82FE0917103F091720381850E9453005D
:1006D00090E1C99F90011124282B20930705809158
:1006E000D9033091D803422F50E05D2B90E0932B3B
:1006F0008417950748F6D093CA032093CB036091E3
:10070000CA0384E490E00E94CF136091CB0385E498
:1007100090E0A3C286810E945300C82FE09171032C
:10072000F091720387810E94530090E1C99F90016C
:100730001124D82FD22BD0930805E0917103F091AA
:10074000720380850E945300C82FE0917103F091DD
:10075000720381850E94530090E1C99F900111248A
:10076000282B209307058091DB033091DA03422F79
:1007700050E05D2B90E0932B8417950708F084CF11
:10078000D093CC032093CD036091CC0383E190E020
:100790000E94CF136091CD0384E190E05EC2868118
:1007A0000E945300C82FE0917103F091720387817A
:1007B0000E94530090E1C99F90011124D82FD22BA1
:1007C000D0930805E0917103F091720380850E9437
:1007D0005300C82FE0917103F091720381850E944C
:1007E000530090E1C99F90011124282B2093070505
:1007F0008091DD033091DC03422F50E05D2B90E0CF
:10080000932B4817590708F03FCFD093CE0320937E
:10081000CF036091CE0389E190E00E94CF136091F5
:10082000CF038AE190E019C286810E945300C82F4D
:10083000E0917103F091720387810E94530090E16F
:10084000C99F90011124D82FD22BD0930805E09195
:100850007103F091720380850E945300C82FE091CC
:100860007103F091720381850E94530090E1C99F4A
:1008700090011124822B80930705D093D00380939D
:10088000D1036091D0038AE290E00E94CF1360917F
:10089000D1038BE290E0E1C186810E945300C82F12
:1008A000E0917103F091720387810E94530090E1FF
:1008B000C99F90011124D82FD22BD0930805E09125
:1008C0007103F091720380850E945300C82FE0915C
:1008D0007103F091720381850E94530090E1C99FDA
:1008E00090011124822B80930705D093D20380932B
:1008F000D3036091D2038CE290E00E94CF13609109
:10090000D3038DE290E0A9C186810E945300C82FD5
:10091000E0917103F091720387810E94530090E18E
:10092000C99F90011124822B809308059091DF03C9
:10093000981708F0A9CE8093D4036091D4038FE177
:1009400090E08BC186810E945300C82FE091710313
:10095000F091720387810E94530090E1C99F90013A
:100960001124822B809308059091E003891708F0E9
:100970008BCE8093D5036091D50383E290E06DC167
:1009800086810E945300C82FE0917103F091720399
:1009900087810E94530090E1C99F90011124D82FB4
:1009A000D22BD0930805E0917103F09172038085FA
:1009B0000E945300C82FE0917103F091720381856A
:1009C0000E94530090E1C99F90011124282B20938D
:1009D00007058091C9033091C803422F50E05D2B79
:1009E00090E0932B8417950708F04ECED093D60352
:1009F0002093D7036091D6038FE090E00E94CF133D
:100A00006091D70380E190E028C186810E94530065
:100A1000C82FE0917103F091720387810E94530007
:100A200090E1C99F90011124D82FD22BD0930805B3
:100A3000E0917103F091720380850E945300C82FEA
:100A4000E0917103F091720381850E94530090E15F
:100A5000C99F90011124282B209307058091CB0377
:100A60003091CA03422F50E05D2B90E0932B481742
:100A7000590708F009CED093D8032093D903609189
:100A8000D8038AE090E00E94CF136091D9038BE0F5
:100A900090E0E3C086810E945300C82FE09171036B
:100AA000F091720387810E94530090E1C99F9001E9
:100AB0001124D82FD22BD0930805E0917103F09127
:100AC000720380850E945300C82FE0917103F0915A
:100AD000720381850E94530090E1C99F9001112407
:100AE000282B209307058091CD033091CC03422F12
:100AF00050E05D2B90E0932B4817590708F0C4CDC8
:100B0000D093DA032093DB036091DA0385E190E070
:100B10000E94CF136091DB0386E190E09EC0868146
:100B20000E945300C82FE0917103F09172038781F6
:100B30000E94530090E1C99F90011124D82FD22B1D
:100B4000D0930805E0917103F091720380850E94B3
:100B50005300C82FE0917103F091720381850E94C8
:100B6000530090E1C99F90011124282B2093070581
:100B70008091CF033091CE03422F50E05D2B90E067
:100B8000932B8417950708F07FCDD093DC03209337
:100B9000DD036091DC038BE190E00E94CF13609154
:100BA000DD038CE190E059C086810E945300C82F7C
:100BB000E0917103F091720387810E94530090E1EC
:100BC000C99F90011124822B809308059091D40332
:100BD000891708F059CD8093DF036091DF0380E22D
:100BE00090E03BC086810E945300C82FE0917103C2
:100BF000F091720387810E94530090E1C99F900198
:100C00001124822B809308059091D503981708F042
:100C10003BCD8093E0036091E00384E290E01DC04F
:100C200086810E945300C82FE0917103F0917203F6
:100C300087810E94530090E1C99F90011124822B6B
:100C4000809308058093F0036091F00389E00E948F
:100C500003086091F00389E090E00E94CF138FEFCA
:100C60000E945B01E0917103F091720381818237F0
:100C700009F0BDC083810E945300C82FE091710329
:100C8000F091720384810E9453008093070590E1E4
:100C9000C99F90011124282B20930805223609F4BE
:100CA0008AC098F5273509F472C0B8F42D3009F4DC
:100CB0006BC040F4263009F09AC080917A032091ED
:100CC00079035DC0233209F453C0253509F08FC084
:100CD0008091C9032091C80352C02D3509F461C029
:100CE00058F4293509F458C02B3509F080C080919B
:100CF000CF032091CE0343C02F3509F457C02136CE
:100D000009F075C08091D40370C02C3609F465C019
:100D1000C0F4273609F457C058F4233609F44EC0FE
:100D2000253609F064C08091D9032091D80327C0EB
:100D3000293609F44DC02B3609F059C08091DE03E5
:100D400054C02B37C1F058F42D3609F449C0293767
:100D500009F04DC08091ED032091EC0310C02D37B8
:100D600009F441C02E3709F042C08091F1033DC023
:100D7000809196033AC08091EF032091EE0390E0BA
:100D8000922B0E942C0133C0809180032EC0809151
:100D9000CB032091CA03F3CF8091CD032091CC03E4
:100DA000EECF8091D1032091D003E9CF8091D3037E
:100DB0002091D203E4CF8091D50317C08091D7034F
:100DC0002091D603DCCF8091DB032091DA03D7CFCB
:100DD0008091DD032091DC03D2CF8091DF0305C039
:100DE0008091E00302C08091F0030E945B0178943F
:100DF0006FEF80E0DF91CF910C94030880E0DF91EA
:100E0000CF910C945B011F920F920FB60F92112499
:100E10002F933F934F935F936F937F938F939F9302
:100E2000AF93BF93EF93FF936FEF80E00E940308AF
:100E3000809102048F5F80930204FF91EF91BF9134
:100E4000AF919F918F917F916F915F914F913F9162
:100E50002F910F900FBE0F901F90189571E05F9823
:100E6000579A56985E9A000000000000C7D0579825
:100E70005F9AC4D0A8940000000000004F9BAAD045
:100E8000D2F088944E990894771F48F75F98579A44
:100E9000803019F056985E9A02C05E98569A00000B
:100EA00000000000ABD057985F9AA89400000000A3
:100EB0004F9B90D0A3D0000000005F98579A872FD7
:100EC0009927089580E208950894881F01C0880F2B
:100ED000D9F05F98579A00000000000020F400004D
:100EE00056985E9A03C05E98569A00C087D057986D
:100EF0005F9AA8940000000000004F9B6BD012F492
:100F0000882715C07BD0E3CF5F98579A0000000078
:100F100056985E9A73D09927882757985F9AA89415
:100F200000004F9B57D062F34E9B81E067D00000DA
:100F300000005F98579A089581E008955F98579A46
:100F40005E98569A5BD057985F9A58D04F9B42D084
:100F500056985E9A53D008958F93F1E0E4EF8F9105
:100F60008F934F9B37D05E98569A48D0ADDF882339
:100F700021F4E4DF319709F0F2CF99270F9008951B
:100F800008955F98579A3AD056985E9A37D05798F6
:100F90005F9A34D04F9B1ED05E98569A2FD094DF24
:100FA000089581E008954F9B15D05E98569A26D0FB
:100FB0008BDF089581E00895569857985E9A5F9A5E
:100FC000882799274E9B08954F9B089581E00895A7
:100FD00081E00895B7E0A0ED002409D032F40A942E
:100FE000E1F71197C9F7289408C0A89406C0A894FF
:100FF0004F9901C0289400000895089592E39A95AE
:10100000F1F708950895CF93DF9300D000D000D07A
:10101000CDB7DEB790E199838A836B831D8280E030
:1010200090E040E837E04E83E1E0F0E0EC0FFD1F98
:10103000E80FF91F2E812223B9F02D8127FF06C06A
:101040002D81220F2D832D81232702C02D81220F78
:101050002D835E812081252319F02D8123272D8367
:101060002E8126952E83E6CF019683309105D9F601
:101070008D818C8389810E94D3078A810E946407B5
:101080008B810E9464078C810E9464070E949E07E6
:1010900026960FB6F894DEBF0FBECDBFDF91CF917D
:1010A0000895CF93DF93CDB7DEB72E970FB6F894A0
:1010B000DEBF0FBECDBF789484B5826084BD84B599
:1010C000816084BD85B5826085BD85B5816085BD43
:1010D00080916E00816080936E00109281008091FB
:1010E0008100826080938100809181008160809383
:1010F0008100809180008160809380008091B100A8
:1011000084608093B1008091B00081608093B000D2
:1011100080917A00846080937A0080917A00826066
:1011200080937A0080917A008E7F80937A008091FC
:101130007A00806880937A001092C100209A87B16B
:10114000836087B92898409A419A83E38D878D857B
:101150001092C5008D858093C40088E18093C10002
:101160008EE08093C20081E00E945B0181E00E94DA
:101170005B0180E090E00E94B5138093730381E0EF
:1011800090E00E94B5138093740383E090E00E9486
:10119000B5138093F30384E090E00E94B51380932D
:1011A000F40385E090E00E94B5138093F50386E098
:1011B00090E00E94B5138093F60387E090E00E94D0
:1011C000B5138093F70388E090E00E94B5138093F5
:1011D000F80389E090E00E94B5138093CA038AE087
:1011E00090E00E94B5138093D8038BE090E00E94BA
:1011F000B5138093D9038CE090E00E94B5138093DF
:10120000BC038DE090E00E94B5138093BD038EE097
:1012100090E00E94B5138093C8038FE090E00E9495
:10122000B5138093D60380E190E00E94B5138093BC
:10123000D70381E190E00E94B5138093BE0382E161
:1012400090E00E94B5138093BF0383E190E00E9479
:10125000B5138093CC0384E190E00E94B513809392
:10126000CD0385E190E00E94B5138093DA0386E117
:1012700090E00E94B5138093DB0387E190E00E9429
:10128000B5138093C00388E190E00E94B51380936A
:10129000C10389E190E00E94B5138093CE038AE1F7
:1012A00090E00E94B5138093CF038BE190E00E9401
:1012B000B5138093DC038CE190E00E94B51380931A
:1012C000DD038DE190E00E94B5138093C2038EE1AF
:1012D00090E00E94B5138093C3038FE190E00E94D9
:1012E000B5138093D40380E290E00E94B5138093FD
:1012F000DF0381E290E00E94B5138093C40382E291
:1013000090E00E94B5138093C50383E290E00E94B1
:10131000B5138093D50384E290E00E94B5138093C7
:10132000E00385E290E00E94B5138093C60386E255
:1013300090E00E94B5138093C70387E290E00E947B
:10134000B5138093FD0388E290E00E94B51380936B
:10135000FE0389E290E00E94B5138093FF038AE2C6
:1013600090E00E94B5138093D0038BE290E00E943E
:10137000B5138093D1038CE290E00E94B513809363
:10138000D2038DE290E00E94B5138093D3038FE2E5
:1013900090E00E94B5138093DE0381E390E00E9409
:1013A000B5138093790382E390E00E94B513809394
:1013B0007A0384E390E00E94B5138093EC0385E305
:1013C00090E00E94B5138093ED0386E390E00E94C5
:1013D000B5138093EE0387E390E00E94B5138093EA
:1013E000EF0389E090E00E94B5138093F0038EE054
:1013F00090E00E94B5138093F10380E490E00E9496
:10140000B5138093F90381E490E00E94B5138093B3
:10141000FA0382E490E00E94B5138093FB0383E417
:1014200090E00E94B5138093960384E490E00E94BC
:10143000B5138093CA0385E490E00E94B5138093AE
:10144000CB0386E490E00E94B5138093C80387E441
:1014500090E00E94B5138093C9038FEF0E945B0157
:1014600068E184E00E94030860E485E00E940308CC
:1014700062E186E00E94030868E087E00E940308BA
:101480006091F70388E00E94030869E18BE00E9405
:1014900003086091F00389E00E9403086091F10362
:1014A0008AE00E94030860E081E00E94030860E097
:1014B00082E00E94030860E083E00E9403088FEF4F
:1014C0000E945B01F89480916800826080936800BC
:1014D00080916C00886080936C0078946FEF80E05E
:1014E0000E94030899E9892E9EE1992EA12CB12C26
:1014F0002AE1422E24E0522E3CE1632E712C43E47B
:10150000C42ED12C11E005E08BE0E82EF12C809167
:101510000204843008F4C4C6F89480E10E94AC0749
:1015200081110DC080E00E945B012FEF89E698E1F8
:10153000215080409040E1F700C0000012C180E0DF
:101540000E94640781E10E94C10781E00E942E078A
:101550008093F2030E949E0780E10E94AC078823DB
:1015600009F38AE20E94640781E10E94C10781E0D9
:101570000E942E07809375038AE20E94640781E12E
:101580000E94C10781E00E942E07809376030E948B
:101590009E0780E10E94AC07882321F282E30E942B
:1015A000640781E10E94C10781E00E942E078093B9
:1015B000770382E30E94640781E10E94C10781E012
:1015C0000E942E07809378030E949E0710930A04BE
:1015D00085EA80930904209176038091750330E0B9
:1015E000382B2D3B82E73807B0F0273591E93907D2
:1015F000A0F4C901A0E0B0E09C01AD012D5B324731
:1016000041095109A4E6B0E00E94FC13A501940130
:101610000E94DD1303C020E001C024E620937B0379
:1016200080917B0390917303892F807194FD06C094
:101630009091730396FD03C08FE001C080E080931A
:101640007C0380E10E94AC07882309F46BCF85E01E
:101650000E94640781E10E94C10781E00E942E0779
:10166000837080937D030E949E0780E10E94AC07F7
:10167000882309F457CF8EE20E94640781E10E941B
:10168000C10781E00E942E07382E809308048EE265
:101690000E94640781E10E94C10781E00E942E0739
:1016A000809307048E870E949E078E85682F832D66
:1016B0000E94D700382E8093060480937E0380E139
:1016C0000E94AC07882309F42DCF80E30E946407B1
:1016D00081E10E94C10781E00E942E07282E80939D
:1016E000050480E30E94640781E10E94C10781E054
:1016F0000E942E07809304048E870E949E078E8589
:10170000682F822D0E94D7008093030480937F036B
:10171000381628F48093FC033092000404C0309201
:10172000FC038093000480E10E94AC07882309F445
:10173000F9CE89E00E94640781E10E94C10781E03F
:101740000E942E078093F00389E00E94640781E1E4
:101750000E94C10781E00E942E078093F1030E943E
:101760009E071093EC0323E72093ED030093EE0311
:101770008CEF8093EF0388E28093800383E2809371
:10178000810380917B03809382031093830384E21F
:101790008093840389E38093850389E180938603A2
:1017A0009FE49093870380E8809388039093890354
:1017B00020E220938A0390938B039DE290938C0305
:1017C00000938D0380938E032FE820938F039FEF68
:1017D00090939003209391039093920380939303AB
:1017E0001092940380E180939503109298031092D5
:1017F00099030E94AC07811104C080E00E945B0144
:1018000083C18CE00E94640781E10E94C10781E0EE
:101810000E942E0780939A038CE00E94640781E166
:101820000E94C10781E00E942E0780939B030E94C3
:101830009E0780E10E94AC078823F9F28EE00E94A7
:10184000640781E10E94C10781E00E942E07809316
:101850009C038EE00E94640781E10E94C10781E041
:101860000E942E0780939D030E949E0780E10E94A4
:10187000AC07882311F280E10E94640781E10E9495
:10188000C10781E00E942E0780939E0380E10E94A1
:10189000640781E10E94C10781E00E942E078093C6
:1018A0009F030E949E0780E10E94AC07882309F4F1
:1018B000A4CF82E10E94640781E10E94C10781E018
:1018C0000E942E078093A00382E10E94640781E1B9
:1018D0000E94C10781E00E942E078093A1030E940D
:1018E0009E0780E10E94AC07882309F486CF84E13B
:1018F0000E94640781E10E94C10781E00E942E07D7
:101900008093A20384E10E94640781E10E94C107E1
:1019100081E00E942E078093A3030E949E0780E12E
:101920000E94AC07882309F468CF86E10E9464070F
:1019300081E10E94C10781E00E942E078093A403E9
:1019400086E10E94640781E10E94C10781E00E9454
:101950002E078093A5030E949E0780E10E94AC079A
:10196000882309F44ACF88E10E94640781E10E943C
:10197000C10781E00E942E078093A60388E10E94A0
:10198000640781E10E94C10781E00E942E078093D5
:10199000A7030E949E0780E10E94AC07882309F4F8
:1019A0002CCF8AE10E94640781E10E94C10781E097
:1019B0000E942E078093A8038AE10E94640781E1B8
:1019C0000E94C10781E00E942E078093A9030E9414
:1019D0009E0780E10E94AC07882309F40ECF8CE1BA
:1019E0000E94640781E10E94C10781E00E942E07E6
:1019F0008093AA038CE10E94640781E10E94C107E1
:101A000081E00E942E078093AB030E949E0780E135
:101A10000E94AC07882309F4F0CE8EE10E9464078F
:101A200081E10E94C10781E00E942E078093AC03F0
:101A30008EE10E94640781E10E94C10781E00E945B
:101A40002E078093AD030E949E0780E10E94AC07A1
:101A5000882309F4D2CE80E20E94640781E10E94CB
:101A6000C10781E00E942E078093AE0380E20E94AE
:101A7000640781E10E94C10781E00E942E078093E4
:101A8000AF030E949E0780E10E94AC07882309F4FF
:101A9000B4CE82E20E94640781E10E94C10781E026
:101AA0000E942E078093B00382E20E94640781E1C6
:101AB0000E94C10781E00E942E078093B1030E941B
:101AC0009E0780E10E94AC07882309F496CE84E249
:101AD0000E94640781E10E94C10781E00E942E07F5
:101AE0008093B20384E20E94640781E10E94C107EF
:101AF00081E00E942E078093B3030E949E0780E13D
:101B00000E94AC0781110AC09FEF29E688E191503D
:101B100020408040E1F700C0000018C088E20E9429
:101B2000640781E10E94C10781E00E942E07809333
:101B3000B40388E20E94640781E10E94C10781E04A
:101B40000E942E078093B5030E949E0710921004F6
:101B500010920F048FEF9FEF90930101809300018B
:101B600087E290E0DC01AC58BC4F2C91FC01ED58B1
:101B7000FC4F608140910F045091100430E0362BEF
:101B80004217530740F42C91408130E0342B3093BE
:101B9000100420930F044C9160812091000130913A
:101BA000010150E0562B4217530740F42C9140811D
:101BB00030E0342B309301012093000102968334EE
:101BC000910581F680E10E94AC0781110CC00E9452
:101BD0005B019FEF29E688E1915020408040E1F7CA
:101BE00000C000000DC280E00E94640781E10E94F5
:101BF000C10781E00E942E078E870E949E078E8576
:101C00008072382E332091F081E090E00E942C0108
:101C10009FEF29E688E1915020408040E1F700C025
:101C2000000060E280E00E940308ECCF8091F203A4
:101C300082FD0DC020910F04309110048091CB03E0
:101C40004091CA0390E0942B8217930728F4809167
:101C5000730387FF1092FF048091F20383FD0DC090
:101C600020910001309101018091C9034091C80386
:101C700090E0942B2817390768F58091730386FD4F
:101C800029C061E485E00E940308809173038064A9
:101C9000809373036091730380E090E00E94BD1312
:101CA0008091BF038F3F09F036C38091BE038F5FE1
:101CB0008093BE031092BF036091BF0382E190E066
:101CC0000E94BD136091BE0381E190E00E94BD13AC
:101CD0001092040520917603909175038091CD03B5
:101CE0004091CC0330E0392B90E0942B821793077E
:101CF000A8F58091730385FD31C062E485E00E9400
:101D0000030882E090E00E942C011092040580916B
:101D100073038062809373036091730380E090E0AB
:101D20000E94BD138091C1038F3F09F0FAC28091D8
:101D3000C0038F5F8093C0031092C1036091C10301
:101D400082E190E00E94BD136091C00381E190E0C8
:101D50000E94BD1380ED91E00E941B01209176034B
:101D6000909175038091CF034091CE0330E0392BE1
:101D700090E0942B2817390788F58091730384FD30
:101D80002DC061E485E00E94030810920405809153
:101D900073038061809373036091730380E090E02C
:101DA0000E94BD138091C3038F3F09F0C0C2809190
:101DB000C2038F5F8093C2031092C3036091C30379
:101DC00082E190E00E94BD136091C20381E190E046
:101DD0000E94BD1387EE91E00E941B0120917803C1
:101DE000909177038091D1034091D00330E0392B5B
:101DF00090E0942B8217930708F03FC080917703FF
:101E000081FD3BC062E485E00E94030882E090E02F
:101E10000E942C01109204058091730382608093CC
:101E200073036091730380E090E00E94BD13809182
:101E3000B9038F3F09F081C28091B8038F5F80930F
:101E4000B8031092B9036091B90382E190E00E9457
:101E5000BD136091B80381E190E00E94BD138FEF44
:101E600091E00E941B010E94810060930B0470931B
:101E70000C0480930D0490930E048091780380915C
:101E8000770387FF4FC08091770380FD4BC020917F
:101E90007803909177038091D3034091D20330E08F
:101EA000392B90E0942B28173907B8F561E485E0C9
:101EB0000E9403081092040580917303816080934F
:101EC00073036091730380E090E00E94BD138091E2
:101ED000BB038F3F09F037C28091BA038F5F8093B5
:101EE000BA031092BB036091BB0382E190E00E94B1
:101EF000BD136091BA0381E190E00E94BD1387E2B7
:101F000092E00E941B010E94810060930B04709379
:101F10000C0480930D0490930E048091FF04803490
:101F200009F417C29091FC038091D403891788F5B6
:101F30008091730383FD2DC060E485E00E94030857
:101F400010920405809173038860809373036091FD
:101F5000730380E090E00E94BD138091BB038F3F2C
:101F600009F008C28091C5038F5F8093C50310926A
:101F7000C4036091C50382E190E00E94BD136091AB
:101F8000C40381E190E00E94BD1382E592E00E94CB
:101F90001B01909100048091D503981788F58091DA
:101FA000730382FD2DC060E485E00E940308109257
:101FB00004058091730384608093730360917303BD
:101FC00080E090E00E94BD138091C7038F3F09F02D
:101FD000D7C18091C7038F5F8093C7031092C60358
:101FE0006091C70382E190E00E94BD136091C60337
:101FF00081E190E00E94BD138EE692E00E941B01F9
:102000008091730387FF27C020910F043091100443
:102010008091D9034091D80390E0942B2817390779
:10202000D0F4809173038F7780937303609173036F
:1020300080E090E00E94BD1364E080E00E9403080D
:102040008BE892E00E941B0163E485E00E94030894
:1020500080E4809304058091730386FF2CC0209157
:102060000001309101018091D7034091D60390E0A7
:10207000942B82179307F8F4809173038F7B8093DE
:1020800073036091730380E090E00E94BD1368E0E9
:1020900080E00E94030885EA92E00E941B0163E44D
:1020A00085E00E94030880E4809304051092FF04F9
:1020B0008FE080937C038091730385FF25C020917E
:1020C0007603909175038091DB034091DA0330E051
:1020D000392B90E0942B28173907B0F480917303C3
:1020E0008F7D809373036091730380E090E00E9482
:1020F000BD1381EC92E00E941B0163E485E00E9425
:10210000030880E4809304058091730384FF2AC050
:1021100020917603909175038091DD034091DC035B
:1021200030E0392B90E0942B82179307D8F48091FC
:1021300073038F7E809373036091730380E090E05C
:102140000E94BD138AED92E00E941B0163E485E0CA
:102150000E94030880E4809304051092FF048FE03E
:1021600080937C038091730381FD04C0809173038D
:1021700080FF3AC00E94810020910B0430910C0432
:1021800040910D0450910E04DC01CB01821B930B96
:10219000A40BB50B80369A4EA105B10528F10E941B
:1021A0008100609300057093010580930205909370
:1021B0000305809173038E7F809373038091730373
:1021C0008D7F809373036091730380E090E00E94A1
:1021D000BD1384EF92E00E941B0163E485E00E943E
:1021E000030880E4809304058091730383FF1CC07F
:1021F0009091FC038091DF039817B0F480917303F2
:10220000877F809373036091730380E090E00E9466
:10221000BD1380E193E00E941B0163E485E00E940E
:10222000030880E4809304058091730382FF1CC03F
:10223000909100048091E0038917B0F480917303BA
:102240008B7F809373036091730380E090E00E9422
:10225000BD138EE293E00E941B0163E485E00E94BF
:10226000030880E4809304051092020478946FEFD1
:1022700080E00E94030814C09D3029F510931204D9
:102280008091C00087FF82C09091C6009A30A1F76C
:1022900080911204813031F01092110410921404D4
:1022A000312CEECF1092120430901104E32DF0E0A7
:1022B000EC5EFB4F1082332019F010921104E0CF36
:1022C00033243394DDCF80911104983059F488235E
:1022D000B9F2E82FF0E0EC5EFB4F10828150809362
:1022E0001104CECF882391F0282F30E0F901EC5E65
:1022F000FB4F2A3E31052CF48F5F809311049083AD
:10230000BFCF108210921104382EBACF109311044F
:1023100090931404B5CF8091BF038F5F8093BF0368
:10232000CBCC8091C1038F5F8093C10307CD809197
:10233000C3038F5F8093C30341CD8091B9038F5F47
:102340008093B90380CD8091BB038F5F8093BB03E3
:10235000CACD809178032091770390E0922B843F3F
:102360009F4F08F0DFCD61E485E00E9403081092E2
:10237000FF04D8CD8091C5038F5F8093C503F9CD4D
:102380008091C5038F5F8093C5032ACE30921304DA
:10239000332009F4D5C184E194E0909372038093D3
:1023A00071031092700342E050E0BC0182E291E0C0
:1023B0000E943814892B09F456C044E050E064E1CF
:1023C00074E08EE191E00E943814892B09F44DC02D
:1023D00044E050E064E174E08AE191E00E94381446
:1023E000892B09F444C044E050E064E174E086E1E4
:1023F00091E00E943814892BE1F142E050E064E161
:1024000074E084E191E00E943814892BA1F146E048
:1024100050E064E174E08EE091E00E943814892B72
:1024200061F496E0931558F586E08093700350921E
:1024300072034092710387E023C046E050E064E1FC
:1024400074E088E091E00E943814892BB1F046E0F6
:1024500050E064E174E082E091E00E943814892B3E
:1024600071F489E00DC082E00BC083E009C084E014
:1024700007C085E005C086E003C088E001C080E0B9
:102480008093050580910505811105C08DE493E0D9
:102490000E941B0115C1823039F51C861B868B8575
:1024A0009C850B970CF00CC1EB85FC85ED58FC4F1F
:1024B00080810E945B018B859C850A9764F08AE38A
:1024C0000E9421018091FC030E945B018DE00E942B
:1024D00021018AE001C08AE30E9421018B859C854D
:1024E00001969C878B87DBCF833009F045C089E755
:1024F00090E098878F838F8198858D37910574F44C
:10250000EF81F885ED58FC4F80810E945B018AE3E2
:102510000E9421018F8198850196EBCF80917903EC
:102520000E945B018AE30E94210180917A030E944C
:102530005B018AE30E942101FA86E98689859A85F2
:1025400083970CF0BDC0E985FA85ED58FC4F80817A
:102550000E945B0189859A8582972CF08DE00E940C
:1025600021018AE001C08AE30E94210189859A85C0
:1025700001969A878987E2CF843081F58091EC03B8
:102580000E945B018AE30E9421018091ED030E9479
:102590005B018AE30E94210187E290E09E838D83A4
:1025A0008D819E81833491050CF08AC0ED81FE817E
:1025B000ED58FC4F80810E945B018D819E818234A9
:1025C00091052CF08DE00E9421018AE001C08AE390
:1025D0000E9421018D819E810196E0CF853011F509
:1025E000DC82CB828B819C81853591050CF068C0A3
:1025F000EB81FC81ED58FC4F80810E945B018B8157
:102600009C81843591052CF08DE00E9421018AE0A7
:1026100001C08AE30E9421018B819C8101969C83E9
:102620008B83E0CF863001F57A82698289819A8135
:10263000C8970CF045C0E981FA81ED58FC4F8081C4
:102640000E945B0189819A81C7972CF08DE00E94DE
:1026500021018AE001C08AE30E94210189819A81D7
:1026600001969A838983E2CF873019F40E94700122
:1026700027C08830D9F4209173038091740390E0CF
:10268000820F911D892BE1F463E485E00E94030829
:1026900080E4809304050E9481006093000570939C
:1026A000010580930205909303050AC0893041F427
:1026B0008091730384FD46C08091730386FD42C000
:1026C00080910405803491F50E94810020910005DD
:1026D000309101054091020550910305DC01CB01C9
:1026E000821B930BA40BB50B80369A4EA105B10546
:1026F000E8F0809178032091770390E0922B479740
:1027000030F460E485E00E94030810920405809193
:1027100078032091770390E0922B8A3E9F4F30F010
:1027200060E485E00E9403081092040580E090E0D8
:10273000892B11F40C94870A0E9400000C94820AE1
:1027400081E09ECE809173038F7E809373036091AE
:10275000730380E090E00E94BD1363E485E00E9473
:10276000030880E48093FF04ABCFF999FECF92BDBC
:1027700081BDF89A992780B50895262FF999FECF43
:1027800092BD81BDF89A019700B4021639F01FBAC4
:1027900020BD0FB6F894FA9AF99A0FBE0895262F25
:1027A000F999FECF1FBA92BD81BD20BD0FB6F89436
:1027B000FA9AF99A0FBE01960895052E97FB1EF41A
:1027C00000940E94F41357FD07D00E94071407FCE1
:1027D00003D04EF40C94F413509540953095219508
:1027E0003F4F4F4F5F4F089590958095709561953D
:1027F0007F4F8F4F9F4F08950E942914A59F900DE2
:10280000B49F900DA49F800D911D11240895A1E205
:102810001A2EAA1BBB1BFD010DC0AA1FBB1FEE1F5A
:10282000FF1FA217B307E407F50720F0A21BB30BA5
:10283000E40BF50B661F771F881F991F1A9469F721
:1028400060957095809590959B01AC01BD01CF017D
:102850000895A29FB001B39FC001A39F700D811D79
:102860001124911DB29F700D811D1124911D089599
:10287000FB01DC014150504030F08D9101908019F6
:1028800019F40020B9F7881B990B0895F894FFCF2D
:10289000FFFF7268673A46306B65793A4646636F68
:1028A0006E66696770736273706962736376627370
:1028B00062696462A06A2566E061CE5DEE593B56AE
:1028C000B552584F234C134927465D43B340283E29
:1028D000BA3B67392E370F35073316313A2F732D30
:1028E000BF2B1E2A8E280F27A1254224F122AE21BC
:1028F0007920501F331E221D1C1C201B2F1A471924
:1029000068189217C516FF1541158B14DC13331385
:102910009012F4115E11CD104210BC0F3B0FBF0E90
:10292000470ED40D650DFA0C920C2F0CCF0B720BC9
:10293000190BC30A700A1F0AD20987093F09F9084F
:10294000B60875083608F907BF0786074F071A0744
:10295000E706B506850657062A06FF05D505AC0528
:102960007061636B206F766572766F6C74616765FA
:10297000206661756C74007061636B20756E6465B0
:1029800072766F6C74616765206661756C74007037
:1029900061636B206F7665722063757272656E7409
:1029A00020647572696E67206368617267696E671B
:1029B000206661756C74007061636B206F76657260
:1029C0002063757272656E7420647572696E67201B
:1029D0006469736368617267696E67206661756CAC
:1029E00074007061636B206F7665722074656D7022
:1029F00065726174757265206661756C74007061D2
:102A0000636B20756E6465722074656D70657261AC
:102A100074757265206661756C740043656C6C201A
:102A20006F766572766F6C746167652072656C6530
:102A3000617365640063656C6C20756E64657220FB
:102A4000766F6C746167652072656C65617365642F
:102A5000007061636B206F766572766F6C7461676E
:102A6000652072656C65617365007061636B2075CC
:102A70006E646572766F6C746167652072656C65F3
:102A8000617365006F76657263757272656E74202E
:102A9000696E20432F442072656C65617365640024
:102AA0007061636B206F76657274656D70657261BD
:102AB000747572652072656C656173656400706120
:102AC000636B20756E64657274656D706572617498
:102AD0007572652072656C65617365640020424C97
:102AE0003A20556E6B6E6F776E20436F6D6D616E21
:102AF0006420526563656976656420000D0A0000F4
:102B0000FFFFFFFFFFFFFFFFFFFFFFFFFFFFFFFFD5
:102B1000FFFFFFFFFFFFFFFFFFFFFFFFFFFFFFFFC5
:102B2000FFFFFFFFFFFFFFFFFFFFFFFFFFFFFFFFB5
:102B3000FFFFFFFFFFFFFFFFFFFFFFFFFFFFFFFFA5
:00000001FF
