:100000000C9434000C9451000C9451000C94510049
:100010000C9474010C9451000C9451000C945100F8
:100020000C9451000C9451000C9451000C9451000C
:100030000C9451000C9451000C9451000C945100FC
:100040000C946F000C9451000C9451000C945100CE
:100050000C9451000C9451000C9451000C945100DC
:100060000C9451000C94510011241FBECFEFD8E026
:10007000DEBFCDBF14E0A0E0B1E0E2EAFCE102C0E7
:1000800005900D92A038B107D9F726E0A0E8B4E0BA
:1000900001C01D92A532B207E1F70E94C2020C9482
:1000A0004F0E0C940000FC019191992359F080911E
:1000B000C00085FFFCCF8091C00085FFFCCF9093EE
:1000C000C600F2CF08952FB7F89460912106709181
:1000D000220680912306909124062FBF08951F9237
:1000E0000F920FB60F9211242F933F938F939F93EC
:1000F000AF93BF938091210690912206A091230691
:10010000B09124063091200626E0230F2D3720F4ED
:100110000296A11DB11D05C029E8230F0396A11D5C
:10012000B11D209320068093210690932206A09370
:100130002306B093240680911C0690911D06A09181
:100140001E06B0911F060196A11DB11D80931C06CD
:1001500090931D06A0931E06B0931F06BF91AF910A
:100160009F918F913F912F910F900FBE0F901F90F5
:1001700018958F929F92AF92BF92CF92DF92EF929B
:10018000FF92262F30E0382BAEE7B1E00E94320E0E
:1001900028EE33E040E050E00E94100E69017A0141
:1001A000A0E1B7E20E94050E24EE822E2CE0922EF2
:1001B000A12CB12CA50194012C193D094E095F0910
:1001C0000E94100EE4E2F1E080E090E06191719114
:1001D0006B01E12CF12CC216D306E406F50620F0E3
:1001E00001968635910591F7FF90EF90DF90CF90C3
:1001F000BF90AF909F908F90089587E290E0DC01D0
:10020000AD57BB4F2C91FC01EE57FB4F60814091E5
:1002100080045091810430E0362B4217530740F49C
:100220002C91408130E0342B309381042093800462
:100230002C916081409100015091010130E0362BFA
:100240002417350740F42C91408130E0342B309353
:1002500001012093000102968334910581F60895EF
:10026000CF93DF931F92CDB7DEB7198290ED980F31
:100270009A3010F499830CC09FEB980F963010F4CD
:10028000875305C09FE9980F963010F487558983EE
:1002900089818F700F90DF91CF9108950E94530054
:1002A0008DE794E00C9453009091C00095FFFCCF33
:1002B0009091C00095FFFCCF8093C6000895CF9326
:1002C000C82F82958F708A3010F0895C01C0805DE4
:1002D0000E9454018C2F8F708A3010F0895C01C00D
:1002E000805DCF910C9454011F920F920FB60F9224
:1002F00011242F933F934F935F936F937F938F932B
:100300009F93AF93BF93EF93FF9360E880E00E94C9
:100310007402809111058F5F80931105FF91EF9119
:10032000BF91AF919F918F917F916F915F914F910D
:100330003F912F910F900FBE0F901F90189571E075
:100340005F98579A56985E9A000000000000C7D048
:1003500057985F9AC4D0A8940000000000004F9BFB
:10036000AAD0D2F088944E990894771F48F75F98E6
:10037000579A803019F056985E9A02C05E98569A45
:10038000000000000000ABD057985F9AA8940000CE
:1003900000004F9B90D0A3D0000000005F98579AB8
:1003A000872F9927089580E208950894881F01C037
:1003B000880FD9F05F98579A00000000000020F4E1
:1003C000000056985E9A03C05E98569A00C087D087
:1003D00057985F9AA8940000000000004F9B6BD0D4
:1003E00012F4882715C07BD0E3CF5F98579A00009E
:1003F000000056985E9A73D09927882757985F9A7D
:10040000A89400004F9B57D062F34E9B81E067D0C9
:10041000000000005F98579A089581E008955F9862
:10042000579A5E98569A5BD057985F9A58D04F9BD0
:1004300042D056985E9A53D008958F93F1E0E4EF3E
:100440008F918F934F9B37D05E98569A48D0ADDFEF
:10045000882321F4E4DF319709F0F2CF99270F9038
:10046000089508955F98579A3AD056985E9A37D073
:1004700057985F9A34D04F9B1ED05E98569A2FD0D3
:1004800094DF089581E008954F9B15D05E98569AA9
:1004900026D08BDF089581E00895569857985E9A8C
:1004A0005F9A882799274E9B08954F9B089581E076
:1004B000089581E00895B7E0A0ED002409D032F45A
:1004C0000A94E1F71197C9F7289408C0A89406C0C8
:1004D000A8944F9901C0289400000895089592E3CC
:1004E0009A95F1F708950895CF93DF9300D000D047
:1004F00000D0CDB7DEB790E199838A836B831D82EC
:1005000080E090E040E837E04E83E1E0F0E0EC0F7F
:10051000FD1FE80FF91F2E812223B9F02D8127FF3F
:1005200006C02D81220F2D832D81232702C02D810E
:10053000220F2D835E812081252319F02D81232711
:100540002D832E8126952E83E6CF0196833091054B
:10055000D9F68D818C8389810E9444028A810E9410
:10056000D5018B810E94D5018C810E94D5010E940A
:100570000F0226960FB6F894DEBF0FBECDBFDF91F7
:10058000CF910895CF93DF93CDB7DEB72E970FB6F7
:10059000F894DEBF0FBECDBF789484B5826084BD71
:1005A00084B5816084BD85B5826085BD85B5816077
:1005B00085BD80916E00816080936E0010928100F5
:1005C00080918100826080938100809181008160B0
:1005D0008093810080918000816080938000809171
:1005E000B10084608093B1008091B00081608093FD
:1005F000B00080917A00846080937A0080917A00C4
:10060000826080937A0080917A008E7F80937A0056
:1006100080917A00806880937A001092C100209ABD
:1006200087B1836087B92898409A419A83E38D8780
:100630008D851092C5008D858093C40088E18093DC
:10064000C1008EE08093C20080ED91E00E944E01D7
:1006500087EE91E00E944E0180E090E00E94BE0D86
:100660008093820481E090E00E94BE0D8093830419
:1006700083E090E00E94BE0D8093020584E090E04C
:100680000E94BE0D8093030585E090E00E94BE0DA0
:100690008093040586E090E00E94BE0D80930505DE
:1006A00087E090E00E94BE0D8093060588E090E010
:1006B0000E94BE0D8093070589E090E00E94BE0D68
:1006C0008093D9048AE090E00E94BE0D8093E704F5
:1006D0008BE090E00E94BE0D8093E8048CE090E0F7
:1006E0000E94BE0D8093CB048DE090E00E94BE0D71
:1006F0008093CC048EE090E00E94BE0D8093D704DE
:100700008FE090E00E94BE0D8093E50480E190E0D0
:100710000E94BE0D8093E60481E190E00E94BE0D30
:100720008093CD0482E190E00E94BE0D8093CE04C0
:1007300083E190E00E94BE0D8093DB0484E190E0B1
:100740000E94BE0D8093DC0485E190E00E94BE0D06
:100750008093E90486E190E00E94BE0D8093EA0454
:1007600087E190E00E94BE0D8093CF0488E190E085
:100770000E94BE0D8093D00489E190E00E94BE0DDE
:100780008093DD048AE190E00E94BE0D8093DE0438
:100790008BE190E00E94BE0D8093EB048CE190E031
:1007A0000E94BE0D8093EC048DE190E00E94BE0D8E
:1007B0008093D1048EE190E00E94BE0D8093D2041C
:1007C0008FE190E00E94BE0D8093E30480E290E010
:1007D0000E94BE0D8093EE0481E290E00E94BE0D67
:1007E0008093D30482E290E00E94BE0D8093D404F3
:1007F00083E290E00E94BE0D8093E40484E290E0E6
:100800000E94BE0D8093EF0485E290E00E94BE0D31
:100810008093D50486E290E00E94BE0D8093D604BA
:1008200087E290E00E94BE0D80930C0588E290E084
:100830000E94BE0D80930D0589E290E00E94BE0DDE
:1008400080930E058AE290E00E94BE0D8093DF0443
:100850008BE290E00E94BE0D8093E0048CE290E079
:100860000E94BE0D8093E1048DE290E00E94BE0DD7
:100870008093E20481E390E00E94BE0D809388049F
:1008800082E390E00E94BE0D8093890480E490E0B2
:100890000E94BE0D8093080581E490E00E94BE0D89
:1008A0008093090582E490E00E94BE0D80930A05C2
:1008B00082E092E00E944E016091020584E00E9475
:1008C00074026091030585E00E9474026091040542
:1008D00086E00E9474026091050587E00E94740220
:1008E0006091060588E00E947402609107058BE024
:1008F0000E9474026091D90489E00E9474026091A0
:10090000D7048AE00E9474026091080581E00E9489
:1009100074026091090582E00E94740260910A05E8
:1009200083E00E94740289E292E00E944E01F894F2
:100930008091680082608093680080916C0088607C
:1009400080936C0078946FEF80E00E94740229E934
:10095000222E2EE1322E412C512C3CE1C32ED12CE3
:1009600043E4A42EB12C57E2852E912CFF24F3945E
:1009700085E0E82E9BE0692E712C80911105843072
:1009800008F46CC6F89480E10E941D0281110EC02B
:100990008BE492E00E944E012FEF89E698E121500E
:1009A00080409040E1F700C00000ECC080E00E9471
:1009B000D50181E10E94320281E00E949F01809373
:1009C00001050E940F0280E10E941D02882301F3AD
:1009D0008AE20E94D50181E10E94320281E00E94F8
:1009E0009F01809384048AE20E94D50181E10E94E4
:1009F000320281E00E949F01809385040E940F02D1
:100A000080E10E941D02882319F282E30E94D50131
:100A100081E10E94320281E00E949F01809386045E
:100A200082E30E94D50181E10E94320281E00E94AE
:100A30009F01809387040E940F02F092190585EAB6
:100A400080931805209185048091840430E0382B30
:100A50002D3BE2E73E07B0F02735F1E93F07A0F470
:100A6000C901A0E0B0E09C01AD012D5B3247410916
:100A70005109A4E6B0E00E94050EA20191010E9476
:100A8000E60D03C020E001C024E620938A04809193
:100A90008A048B3010F08FE001C080E080938B04DB
:100AA00080E10E941D02882309F472CF85E00E9434
:100AB000D50181E10E94320281E00E949F01837092
:100AC00080938C040E940F0280E10E941D02882303
:100AD00009F45ECF8EE20E94D50181E10E943202CC
:100AE00081E00E949F01182F809317058EE20E94DB
:100AF000D50181E10E94320281E00E949F01809332
:100B000016058E870E940F028E85682F812F0E9406
:100B1000B900182F8093150580938D0480E10E9401
:100B20001D02882309F434CF80E30E94D50181E1BE
:100B30000E94320281E00E949F01082F80931405D9
:100B400080E30E94D50181E10E94320281E00E948F
:100B50009F01809313058E870E940F028E85682F58
:100B6000802F0E94B9008093120580938E0418177D
:100B700028F480930B0510930F0504C010930B0508
:100B800080930F05F092FB0423E72093FC04E0928E
:100B9000FD048CEF8093FE0488E280938F0483E24F
:100BA0008093900480918A0480939104F09292043F
:100BB00084E28093930489E38093940489E1809391
:100BC00095049FE49093960480E880939704909313
:100BD000980420E22093990490939A049DE29093C4
:100BE0009B04E0929C0480939D042FE820939E0434
:100BF0009FEF90939F042093A0049093A10480936F
:100C0000A2041092A30480E18093A4041092A7048C
:100C10001092A8040E941D0281110EC08BE492E084
:100C20000E944E019FEFE9E6F8E19150E040F0406C
:100C3000E1F700C000009DC18CE00E94D50181E178
:100C40000E94320281E00E949F018093A9048CE0FF
:100C50000E94D50181E10E94320281E00E949F0141
:100C60008093AA040E940F0280E10E941D02882343
:100C7000A9F28EE00E94D50181E10E94320281E05A
:100C80000E949F018093AB048EE00E94D50181E118
:100C90000E94320281E00E949F018093AC040E9476
:100CA0000F0280E10E941D02882309F4B7CF80E182
:100CB0000E94D50181E10E94320281E00E949F01E1
:100CC0008093AD0480E10E94D50181E10E9432024F
:100CD00081E00E949F018093AE040E940F0280E198
:100CE0000E941D02882309F499CF82E10E94D50158
:100CF00081E10E94320281E00E949F018093AF0453
:100D000082E10E94D50181E10E94320281E00E94CD
:100D10009F018093B0040E940F0280E10E941D0297
:100D2000882309F47BCF84E10E94D50181E10E94F0
:100D3000320281E00E949F018093B10484E10E940D
:100D4000D50181E10E94320281E00E949F018093DF
:100D5000B2040E940F0280E10E941D02882309F460
:100D60005DCF86E10E94D50181E10E94320281E0DF
:100D70000E949F018093B30486E10E94D50181E126
:100D80000E94320281E00E949F018093B4040E947D
:100D90000F0280E10E941D02882309F43FCF88E101
:100DA0000E94D50181E10E94320281E00E949F01F0
:100DB0008093B50488E10E94D50181E10E9432024E
:100DC00081E00E949F018093B6040E940F0280E19F
:100DD0000E941D02882309F421CF8AE10E94D501D7
:100DE00081E10E94320281E00E949F018093B7045A
:100DF0008AE10E94D50181E10E94320281E00E94D5
:100E00009F018093B8040E940F0280E10E941D029E
:100E1000882309F403CF8CE10E94D50181E10E946F
:100E2000320281E00E949F018093B9048CE10E940C
:100E3000D50181E10E94320281E00E949F018093EE
:100E4000BA040E940F0280E10E941D02882309F467
:100E5000E5CE8EE10E94D50181E10E94320281E05F
:100E60000E949F018093BB048EE10E94D50181E125
:100E70000E94320281E00E949F018093BC040E9484
:100E80000F0280E10E941D02882309F4C7CE80E290
:100E90000E94D50181E10E94320281E00E949F01FF
:100EA0008093BD0480E20E94D50181E10E9432025C
:100EB00081E00E949F018093BE040E940F0280E1A6
:100EC0000E941D02882309F4A9CE82E20E94D50166
:100ED00081E10E94320281E00E949F018093BF0461
:100EE00082E20E94D50181E10E94320281E00E94EB
:100EF0009F018093C0040E940F0280E10E941D02A6
:100F0000882309F48BCE84E20E94D50181E10E94FE
:100F1000320281E00E949F018093C10484E20E941A
:100F2000D50181E10E94320281E00E949F018093FD
:100F3000C2040E940F0280E10E941D02882309F46E
:100F40006DCE88E20E94D50181E10E94320281E0EB
:100F50000E949F018093C30488E20E94D50181E131
:100F60000E94320281E00E949F018093C4040E948B
:100F70000F028091010587FF2EC080918204806856
:100F8000809382046091820480E090E00E94C60D0C
:100F90008091CC048F3F41F48091CB048F5F80938C
:100FA000CB041092CC0405C08091CC048F5F809359
:100FB000CC046091CC048DE090E00E94C60D60915D
:100FC000CB048CE090E00E94C60D8BE592E00E947D
:100FD0004E01109213068091010586FF2EC080916C
:100FE00082048064809382046091820480E090E0B7
:100FF0000E94C60D8091CE048F3F41F48091CD04B4
:101000008F5F8093CD041092CE0405C08091CE04F2
:101010008F5F8093CE046091CE0482E190E00E94C5
:10102000C60D6091CD0481E190E00E94C60D82E77B
:1010300092E00E944E011092130620918504909137
:1010400084048091DC044091DB0430E0392B90E093
:10105000942B8217930790F560E485E00E94740258
:1010600010921306809182048062809382046091C2
:10107000820480E090E00E94C60D8091D0048F3FF2
:1010800041F48091CF048F5F8093CF041092D004FD
:1010900005C08091D0048F5F8093D0046091D0040C
:1010A00082E190E00E94C60D6091CF0481E190E062
:1010B0000E94C60D8AE892E00E944E0120918504AC
:1010C000909184048091DE044091DD0430E0392B5E
:1010D00090E0942B2817390790F560E485E00E9492
:1010E00074021092130680918204806180938204BE
:1010F0006091820480E090E00E94C60D8091D2044D
:101100008F3F41F48091D1048F5F8093D10410927E
:10111000D20405C08091D2048F5F8093D204609185
:10112000D20482E190E00E94C60D6091D10481E179
:1011300090E00E94C60D81EA92E00E944E0120914B
:101140008704909186048091E0044091DF0430E0B0
:10115000392B90E0942B82179307D8F58091860461
:1011600087FD37C060E485E00E9474021092130688
:10117000809182048260809382046091820480E086
:1011800090E00E94C60D8091C8048F3F09F0A0C274
:101190008091C7048F5F8093C7041092C804609148
:1011A000C80482E190E00E94C60D6091C70481E10D
:1011B00090E00E94C60D89EB92E00E944E010E94D1
:1011C000630060931A0570931B0580931C05909330
:1011D0001D05809187048091860487FF4BC0209174
:1011E0008704909186048091E2044091E10430E00C
:1011F000392B90E0942B28173907E0F560E485E05F
:101200000E94740210921306809182048160809380
:1012100082046091820480E090E00E94C60D80917B
:10122000CA048F3F41F48091C9048F5F8093C90441
:101230001092CA0405C08091CA048F5F8093CA04CB
:101240006091CA0482E190E00E94C60D6091C904D9
:1012500081E190E00E94C60D81EE92E00E944E0175
:101260000E94630060931A0570931B0580931C0510
:1012700090931D0590910B058091E304891788F5E3
:101280008091820483FD2DC060E485E00E94740299
:10129000109213068091820488608093820460918A
:1012A000820480E090E00E94C60D8091CA048F3FC6
:1012B00009F014C28091D4048F5F8093D4041092FB
:1012C000D3046091D40482E190E00E94C60D609145
:1012D000D30481E190E00E94C60D8CE093E00E946F
:1012E0004E0190910F058091E404981788F5809144
:1012F000820482FD2DC060E485E00E947402109299
:101300001306809182048460809382046091820439
:1013100080E090E00E94C60D8091D6048F3F09F0D6
:10132000E3C18091D6048F5F8093D6041092D504D8
:101330006091D60482E190E00E94C60D6091D504D0
:1013400081E190E00E94C60D88E293E00E944E0188
:101350008091820487FF33C00E94FD0020918004A9
:10136000309181048091E8044091E70490E0942B4F
:101370002817390720F5809182048F7780938204A3
:101380006091820480E090E00E94C60D64E080E0FD
:101390000E94740285E493E00E944E0163E485E0BC
:1013A0000E94740280E4809313060E94630060939D
:1013B0000F06709310068093110690931206809189
:1013C000820486FF33C00E94FD002091000130910D
:1013D00001018091E6044091E50490E0942B82178E
:1013E000930720F5809182048F7B80938204609123
:1013F000820480E090E00E94C60D68E080E00E94D8
:1014000074028FE593E00E944E0163E485E00E9440
:10141000740280E4809313060E94630060930F06B9
:1014200070931006809311069093120680918204A7
:1014300085FF2FC020918504909184048091EA0457
:101440004091E90430E0392B90E0942B28173907BC
:1014500000F5809182048F7D8093820460918204E4
:1014600080E090E00E94C60D8BE793E00E944E0161
:1014700063E485E00E94740280E4809313060E9476
:10148000630060930F06709310068093110690938B
:1014900012068091820484FF2FC0209185049091D0
:1014A00084048091EC044091EB0430E0392B90E00F
:1014B000942B8217930700F5809182048F7E80938E
:1014C00082046091820480E090E00E94C60D84E96D
:1014D00093E00E944E0163E485E00E94740280E480
:1014E000809313060E94630060930F0670931006AA
:1014F00080931106909312068091820481FD04C0AE
:101500008091820480FF3AC00E94630000911A0516
:1015100010911B0520911C0530911D05DC01CB01AC
:10152000801B910BA20BB30B80369A4EA105B1051F
:1015300028F1809182048E7F8093820480918204BE
:101540008D7F809382046091820480E090E00E940D
:10155000C60D8EEA93E00E944E0163E485E00E948E
:10156000740280E4809313060E94630060930F0668
:101570007093100680931106909312068091820456
:1015800083FF26C090910B058091EE04981700F51B
:1015900080918204877F809382046091820480E03E
:1015A00090E00E94C60D8AEC93E00E944E0163E435
:1015B00085E00E94740280E4809313060E94630019
:1015C00060930F0670931006809311069093120695
:1015D0008091820482FF26C090910F058091EF04D4
:1015E000891700F5809182048B7F8093820460913B
:1015F000820480E090E00E94C60D88EE93E00E9495
:101600004E0163E485E00E94740280E48093130637
:101610000E94630060930F0670931006809311067A
:10162000909312061092110578946FEF80E00E945B
:10163000740214C09D3021F5F0921F058091C00006
:1016400087FF58C09091C6009A30A1F780911F057E
:10165000813031F010921E051092210510E0EECF7E
:1016600010921F0510911E05E12FF0E0EF5DFA4F7B
:101670001082112319F010921E05E0CF11E0DECF89
:1016800080911E05983059F48823C1F2E82FF0E0CC
:10169000EF5DFA4F1082815080931E05CFCF8823D3
:1016A00091F0282F30E0F901EF5DFA4F2A3E310525
:1016B0002CF48F5F80931E059083C0CF1082109210
:1016C0001E05182FBBCFF0921E0590932105B6CFB3
:1016D0008091C8048F5F8093C80461CD8091D40449
:1016E0008F5F8093D404EDCD8091D4048F5F80937D
:1016F000D4041ECE10932005112309F42BC281E2DD
:1017000095E090930D0680930C0610920E0642E031
:1017100050E0BC0182E291E00E94410E892B09F465
:1017200057C044E050E061E275E08EE191E00E9434
:10173000410E892B09F44EC044E050E061E275E0AF
:101740008AE191E00E94410E892B09F445C044E0F2
:1017500050E061E275E086E191E00E94410E892B44
:10176000E9F142E050E061E275E084E191E00E943D
:10177000410E892BA9F146E050E061E275E08EE070
:1017800091E00E94410E892B69F4173068F186E0E0
:1017900080930E06E7E2F5E0F0930D06E0930C0669
:1017A00087E023C046E050E061E275E088E091E028
:1017B0000E94410E892BB1F046E050E061E275E0F5
:1017C00082E091E00E94410E892B71F489E00DC006
:1017D00082E00BC083E009C084E007C085E005C05B
:1017E00086E003C088E001C080E080931406809109
:1017F0001406811103C087E094E05EC1823051F588
:10180000F8941C861B868B859C850B9704F5EB85CD
:10181000FC85EE57FB4F80810E945F018B859C8584
:101820000A9764F08AE30E94540180910B050E949C
:101830005F018DE00E9454018AE001C08AE30E94AA
:1018400054018B859C8501969C878B87DCCF78948F
:101850006FEF86C0833009F045C089E790E0988734
:101860008F838F8198858D37910574F4EF81F8858A
:10187000EE57FB4F80810E945F018AE30E94540172
:101880008F8198850196EBCF809188040E945F013B
:101890008AE30E945401809189040E945F018AE3D7
:1018A0000E9454017A86698689859A8583970CF00F
:1018B00020C1E985FA85EE57FB4F80810E945F01C8
:1018C00089859A8582972CF08DE00E9454018AE0E8
:1018D00001C08AE30E94540189859A8501969A87FE
:1018E0008987E2CF843081F5F8948091FB040E94CF
:1018F0005F018AE30E9454018091FC040E945F0111
:101900008AE30E9454019E828D828D819E81833460
:10191000910524F5ED81FE81EE57FB4F80810E94F9
:101920005F018D819E81823491052CF08DE00E94B3
:1019300054018AE001C08AE30E9454018D819E8196
:1019400001969E838D83E1CF853031F5F894BC827A
:10195000AB828B819C818535910524F0789460E879
:1019600080E0C5C0EB81FC81EE57FB4F80810E9477
:101970005F018B819C81843591052CF08DE00E9464
:1019800054018AE001C08AE30E9454018B819C814A
:1019900001969C838B83DDCF863001F5F894DA8243
:1019A000C98289819A81C897CCF6E981FA81EE577C
:1019B000FB4F80810E945F0189819A81C7972CF03B
:1019C0008DE00E9454018AE001C08AE30E94540124
:1019D00089819A8101969A838983E3CF873009F0C0
:1019E0006EC080910E06882309F483C0E0910C0636
:1019F000F0910D0680818A3309F05CC0F894009163
:101A00000C0610910D06F8018181873709F045C059
:101A100083810E943001282FF80184812E870E9443
:101A200030012E85F0E12F9F90011124822B86300A
:101A3000A1F5F80186810E943001282FF8018781E5
:101A40002E870E9430012E85F0E12F9F90011124F6
:101A5000822B80938804F80180850E943001282F12
:101A6000F80181852E870E9430012E85F0E12F9F9D
:101A700090011124822B809389046091880481E372
:101A800090E00E94D80D6091890482E390E00E946A
:101A9000D80D86E294E00E944E01E0910C06F09190
:101AA0000D068181823709F059CF87E594E00E94C5
:101AB0004E0154CF88E694E00E944E011AC088304F
:101AC00091F4209182048091830490E0820F911D13
:101AD000892B21F08091820485FF0BC080918A04BC
:101AE0008031D0F506C0893021F463E485E00E949E
:101AF000740280911306803419F50E9463000091EE
:101B00000F06109110062091110630911206DC018B
:101B1000CB01801B910BA20BB30B80369A4EA10513
:101B2000B10570F0809187042091860490E0922B9B
:101B3000479730F460E485E00E9474021092130627
:101B400080E090E0892B11F40C94BD040E94000009
:101B50000C94B60481E049CE63E485E00E947402EF
:101B600080E4809313060E94630060930F067093D5
:101B700010068093110690931206BBCFF999FECF01
:101B800092BD81BDF89A992780B50895262FF999BD
:101B9000FECF92BD81BDF89A019700B4021639F0CC
:101BA0001FBA20BD0FB6F894FA9AF99A0FBE08959D
:101BB000262FF999FECF1FBA92BD81BD20BD0FB669
:101BC000F894FA9AF99A0FBE01960895052E97FB9C
:101BD0001EF400940E94FD0D57FD07D00E94100EC8
:101BE00007FC03D04EF40C94FD0D509540953095B4
:101BF00021953F4F4F4F5F4F089590958095709579
:101C000061957F4F8F4F9F4F08950E94320EA59F81
:101C1000900DB49F900DA49F800D911D11240895E7
:101C2000A1E21A2EAA1BBB1BFD010DC0AA1FBB1FE0
:101C3000EE1FFF1FA217B307E407F50720F0A21B52
:101C4000B30BE40BF50B661F771F881F991F1A94BF
:101C500069F760957095809590959B01AC01BD01E9
:101C6000CF010895A29FB001B39FC001A39F700D43
:101C7000811D1124911DB29F700D811D1124911D94
:101C80000895FB01DC014150504030F08D910190EE
:101C9000801919F40020B9F7881B990B0895F8945E
:101CA000FFCFFFFF7268673A46306B65793A464668
:101CB000636F6E666967707362737069627363766F
:101CC000627362696462A06A2566E061CE5DEE5966
:101CD0003B56B552584F234C134927465D43B340FA
:101CE000283EBA3B67392E370F35073316313A2F66
:101CF000732DBF2B1E2A8E280F27A1254224F122E7
:101D0000AE217920501F331E221D1C1C201B2F1AB0
:101D1000471968189217C516FF1541158B14DC1367
:101D200033139012F4115E11CD104210BC0F3B0F13
:101D3000BF0E470ED40D650DFA0C920C2F0CCF0B75
:101D4000720B190BC30A700A1F0AD20987093F09CF
:101D5000F908B60875083608F907BF0786074F0760
:101D60001A07E706B506850657062A06FF05D505B4
:101D7000AC055772697474696E672076616C75651D
:101D80007320746F20414645004C6F6164696E6733
:101D90002076616C7565732066726F6D20454550C5
:101DA000524F4D0056616C756573206C6F616461B4
:101DB00065642066726F6D20454550524F4D20730B
:101DC000756365737366756C6C790056616C7565C7
:101DD00073207772697474656E20746F2041464574
:101DE0002073756365737366756C6C790049324353
:101DF0002064657669636520627573790063656C3C
:101E00006C206F766572766F6C74616765206661B1
:101E1000756C740043656C6C20756E646572766FCA
:101E20006C74616765206661756C74007061636BCA
:101E3000206F766572766F6C746167652066617578
:101E40006C74007061636B20756E646572766F6C84
:101E500074616765206661756C74007061636B20E6
:101E60006F7665722063757272656E742064757228
:101E7000696E67206368617267696E672066617565
:101E80006C74007061636B206F766572206375728D
:101E900072656E7420647572696E6720646973631D
:101EA00068617267696E67206661756C7400706145
:101EB000636B206F7665722074656D7065726174F6
:101EC000757265206661756C74007061636B207556
:101ED0006E6465722074656D70657261747572658B
:101EE000206661756C740043656C6C206F7665725A
:101EF000766F6C746167652072656C65617365648B
:101F00000063656C6C20756E64657220766F6C740E
:101F10006167652072656C656173656400706163FB
:101F20006B206F766572766F6C7461676520726581
:101F30006C65617365007061636B20756E646572BA
:101F4000766F6C746167652072656C65617365009E
:101F50006F76657263757272656E7420696E204368
:101F60002F442072656C6561736564007061636BFA
:101F7000206F76657274656D7065726174757265D7
:101F80002072656C6561736564007061636B2075B8
:101F90006E64657274656D706572617475726520CA
:101FA00072656C65617365640020424C3A20556E21
:101FB0006B6E6F776E20436F6D6D616E642052653E
:101FC000636569766564200043757272656E74207E
:101FD00063616C6C6962726174696F6E20666163C3
:101FE000746F7220757064617465642073756365C5
:101FF000737366756C6C79210056616C756520741D
:102000006F20626520726561640077726F6E672071
:10201000636F6E66696720636F6D6D616E64000D3E
:102020000A00FFFFFFFFFFFFFFFFFFFFFFFFFFFFB4
:10203000FFFFFFFFFFFFFFFFFFFFFFFFFFFFFFFFB0
:10204000FFFFFFFFFFFFFFFFFFFFFFFFFFFFFFFFA0
:10205000FFFFFFFFFFFFFFFFFFFFFFFFFFFFFFFF90
:10206000FFFFFFFFFFFFFFFFFFFFFFFFFFFFFFFF80
:00000001FF
