:100000000C943701FFFFFFFFFFFFFFFF0C94C305B8
:100010000C94CD050C94E1050C94EB05FFFFFFFF5C
:10002000FFFFFFFFFFFFFFFFFFFFFFFFFFFFFFFFE0
:10003000FFFFFFFF0C940E06FFFFFFFFFFFFFFFF18
:10004000FFFFFFFFFFFFFFFF0C941C07FFFFFFFFF9
:100050000C94A407FFFFFFFFFFFFFFFFFFFFFFFF61
:10006000FFFFFFFFFFFFFFFFFFFFFFFFFFFFFFFFA0
:10007000FFFFFFFFFFFFFFFFFFFFFFFFFFFFFFFF90
:10008000FFFFFFFFFFFFFFFFFFFFFFFFFFFFFFFF80
:10009000FFFFFFFFFFFFFFFFFFFFFFFFFFFFFFFF70
:1000A000FFFFFFFFFFFFFFFFFFFFFFFFFFFFFFFF60
:1000B000FFFFFFFFFFFFFFFFFFFFFFFFFFFFFFFF50
:1000C000FFFFFFFFFFFFFFFFFFFFFF7FFF5FFF5E01
:1000D000F75EF74E774E734E00000544474A4244A0
:1000E0000B4C482D4750313553303031470C3D0CC7
:1000F000320C270C1B0C0E0C010CF30BE50BD60B72
:10010000C60BB60BA40B930B800B6D0B580B440B5B
:100110002E0B180B000BE90AD00AB60A9C0A810ABA
:10012000650A490A2C0A0E0AEF09D009B00990099C
:100130006F094D092B090909E608C2089E087A08CB
:10014000560831080C08E707C1079C0777075107D5
:100150002C070607E106BC06970672064D0629061F
:100160000506E205BE059C0579055705360515050A
:10017000F404D404B504960477045A043C0420041F
:100180000404E803CD03B3039903800367034F031B
:10019000380321030B03F502E002CC02B802A402EB
:1001A00091027F026D025B024A023A022A021A029F
:1001B0000B02FC01EE01E001D201C501B901AC0165
:1001C000A00195018A017F0174016A016001560155
:1001D0004D0143013B0132012A0122011A011201A2
:1001E0000B010401FD00F600EF00E900E300DD0073
:1001F000D700D200CC00C700C200BD00B800B300D9
:10020000AF00AA00A600A2009E009A0096009200ED
:100210008F008B008800840081007E007B007800C6
:100220007500720070006D006A0068006500630070
:1002300061005F005C005A005800560054005200F4
:1002400051004F004D004B004A0048004600450059
:1002500043004200010204081020408000000745CE
:100260000000000000006D010000000000FFCFEF63
:10027000D8E0CDBFDEBFC253D0400AEA08830024D5
:10028000EDE0F1E014E0E631F10711F00192FBCF6F
:100290000083E0E6F2E0A0E0B1E012E000E00BBF96
:1002A000ED36F10721F0C89531960D92F9CF0E94F5
:1002B0005C04FFCF01C0A895F999FDCF12BD01BD27
:1002C00020BDFA9AF99AF999FECF089501C0A89530
:1002D000F999FDCF12BD01BDF89A00B508950E94AD
:1002E0007229F89400271127F1DF0A3531F56AE306
:1002F00073E044270AC0042F1127005F1F4FE6DF79
:10030000FB0100836F5F7F4F4395403CA0F300EFFC
:1003100010E0DCDFA02EBB24BA2CAA2401EF10E0F1
:10032000D5DFC02E4C2D242E33242501420C531C26
:100330005092E7014092E60102C00E94F70E01E0F0
:1003400010E0C4DFC02E0A3509F073C068E272E025
:1003500044270BC0042F1127085A1D4FB7DFC02EAA
:10036000FB01C0826F5F7F4F4395423598F344276E
:1003700028C088E292E0E42FFF27EE0FFF1FE80F6E
:10038000F91FC080D18080E090EAA0E0B0E01601C3
:100390004424552482159305A405B5052CF0C1010C
:1003A0008039E1E09E0760F488E292E0E42FFF27C5
:1003B000EE0FFF1FE80FF91F80E090E1918380832B
:1003C00043954E31B0F280E090EAA0E0B0E020909A
:1003D0007402309075024424552482159305A405B7
:1003E000B5052CF0C1018039E1E09E0730F480E0D2
:1003F00090E1909375028093740280E090EAA0E00F
:10040000B0E0209076023090770244245524821583
:100410009305A405B50534F0C1018039E1E09E07DC
:1004200008F039C080E090E19093770280937602E3
:1004300032C044270DC088E292E0E42FFF27EE0F80
:10044000FF1FE80FF91F80E090E1918380834395BF
:100450004E3188F344270DC084E692E0E42FFF2755
:10046000EE0FFF1FE80FF91F222433243182208270
:100470004395483088F380E090E190937502809333
:100480007402909377028093760222243324309270
:1004900079022092780202E010E018DFC02E0A35BF
:1004A00039F56AEF73E044270BC0042F1127005E73
:1004B0001C4F0CDFC02EFB01C0826F5F7F4F439546
:1004C000443098F384E293E05C0160E072E04427FA
:1004D0000CC0242E33248501020D131DF7DEC02E1F
:1004E000FB01C0826F5F7F4F4395463190F302C09E
:1004F0000E94330E78940C947B290E945A294AE377
:1005000053E0222700271127D5DE66270BC0A895C8
:10051000FA012081062F1127005F1F4FCBDE4F5FAE
:100520005F4F6395603C98F32AE500271127C2DEF0
:100530000C945F290E945A2948E252E0222701E0E8
:1005400010E0B8DE66270AC0FA012081062F1127C5
:10055000085A1D4FAFDE4F5F5F4F63956235A0F3C2
:100560002AE501E010E0A6DEA8950C945F290E9420
:100570006429222702E010E09DDE4AEF53E066275F
:100580000AC0FA012081062F1127005E1C4F92DE5F
:100590004F5F5F4F63956430A0F384E293E05C01AA
:1005A00040E052E066270BC0FA012081262E33245A
:1005B0008501020D131D7EDE4F5F5F4F639566312F
:1005C00098F32AE502E010E075DE0C946B294A935B
:1005D0005A93569802E00E943906442755275798A7
:1005E00004E00E9439064F9908C01A014F5F5F4F1F
:1005F000C1018436E0E09E0790F3569A02E00E9423
:100600003906579A02E00E94390659914991089596
:100610004A935A93569A02E00E9439064427552776
:10062000579804E00E9439064F9908C01A014F5F9D
:100630005F4FC1018436E0E09E0790F3569802E0D8
:100640000E9439065991499108950E947229A02E5D
:10065000442766277727569802E00E943906CC2463
:1006600019C0440F66277727579804E00E9439067F
:100670004F9908C01B016F5F7F4FC1018436E0E0D6
:100680009E0790F34E9B01C04160579A02E00E9482
:100690003906C3948C2D883020F38A2D813011F4D3
:1006A000569A01C0569802E00E94390666277727BD
:1006B000579804E00E9439064F9908C01B016F5FEC
:1006C0007F4FC1018436E0E09E0790F3579A02E025
:1006D0000E943906569802E00E943906042F0C94B5
:1006E0007B290E946429A02E44271EC0A7FE02C0B9
:1006F000569801C0569A02E00E943906662777276D
:10070000579804E00E9439064F9908C01B016F5F9B
:100710007F4FC1018436E0E09E0790F3AA0C579A00
:1007200002E00E9439064395483000F3569802E0F3
:100730000E94390666277727579804E00E943906F9
:100740004F9908C01B016F5F7F4FC1018436E0E005
:100750009E0790F34E9902C0442701C041E0579A8A
:1007600002E00E943906042F0C946B2928988BB163
:100770008F738BB98AB18F738AB908950E94452906
:10078000E22E602FAA84CC84DD8421DF0AE00E945F
:100790003906062FA6DF402F02E30E9439064423C4
:1007A00051F50E2D9EDF402F02E30E9439064423AF
:1007B00011F50DDF02E30E943906062F016091DF7B
:1007C000E02E4E2D02E30E943906EE20A1F409C06E
:1007D00001E03BDFE02EF601E1926F0102E30E94AF
:1007E00039066A2D6150A62EAA2091F700272DDF29
:1007F000A02EF601A08202E30E94390609DF4130F3
:1008000011F4002701C001E00C943A290E94452907
:10081000E22E402FCA84AC84BD84D9DE0AE00E9457
:100820003906042F5EDF402F02E30E94390644237D
:10083000E1F40E2D56DF402F0023B9F46627772709
:100840000FC002E30E943906FB01EA0DFB1D008187
:1008500048DFE02E4E2D013009F407C06F5F7F4F57
:100860002C2C33246215730560F302E30E943906D1
:10087000CFDE413011F4002701C001E00C943A2989
:1008800081E285B987E084B9222428B887B982E05B
:100890008BB98EEF8AB90895209074033090750358
:1008A00024FC01C008C020900201309003012220E6
:1008B00011F4332001F00895A89508EE13E00E948A
:1008C0004606F8940E94980E78940EEF10E00E946D
:1008D0006601053519F001C0A895FECF2224332406
:1008E000309212042092110481E0809310048091D0
:1008F000FC038F5F8093FC0320920B04209207047B
:10090000209209042092040420920104419A88E074
:1009100080930304A89517D00E94100820900F041C
:100920002220C9F3A8950E9454060E94B0120E948A
:10093000FB160E944E1A0E94761B0E94A2260E945D
:100940004C04E8CF0895AA92BA92269782E02090AC
:100950000204821530F42090FE03222011F40E943C
:10096000040720900204222021F0222420920D016D
:1009700006C1F894A89522242092C10020928100FB
:100980002092FE03209004042220A1F520900D0166
:10099000222081F59E012E5F3F4F04E00E9442110C
:1009A0008A818F7E8A83282F04E00E94A61102E0AC
:1009B00010E00E9446069E012E5F3F4F05E00E9418
:1009C00042118A818F7B8A83282F05E00E94A6111D
:1009D00008EE13E00E94460628E333E000270E9459
:1009E0004211209038032220F1F0222D00270E948E
:1009F000A61119C0809104048130A9F40E94B603A5
:100A000002E010E00E9446069E012E5F3F4F05E087
:100A10000E9442118A818F7B8A8380628A83282F79
:100A200005E00E94A61181E080930D01289A40986C
:100A300038988BB18F738BB98AB18F738AB980E282
:100A400080936B0088E080936C0081E080936D0060
:100A500087E0809368008BBB8BEE8093640000E698
:100A60000E942F06789485E083BF889500000000DF
:100A700000000000222423BEA8950DE00E942F064E
:100A800080E280936B0081E08093680087E08BBBFD
:100A900022242092640080910404823061F5209227
:100AA00004040E94B60328E333E000270E944211A9
:100AB0002090380327FE18C0CE01039699838883BF
:100AC00022E002E30E946911AB80BB24BA2CAA2465
:100AD0002C803324A20CB31C85010E9406152091A2
:100AE000380300270E94A61180913803837019F003
:100AF0008AE08093020420908E0230908F0221FEC3
:100B000003C022242092010486E42090010482156F
:100B100018F482E08093020420900204222061F104
:100B2000F894222420920404209201040E94FC05DF
:100B30000E94B60382E020900204821510F40E9405
:100B4000040778949E012E5F3F4F04E00E944211FB
:100B50008A8180618A83282F04E00E94A6119E0169
:100B60002E5F3F4F05E00E9442118A8180648A8394
:100B7000282F05E00E94A611222420920F04269619
:100B8000B990A99008958A938FB78A938AE0809349
:100B9000020489918FBF899118952A928A932FB662
:100BA0002A9220900404222021F48AE080930204F7
:100BB00003C082E08093040429902FBE899129907C
:100BC00018958A938FB78A938AE08093020489915B
:100BD0008FBF899118958A939A938FB78A9381E0F2
:100BE00080930404809101048F5F809301048991B4
:100BF0008FBF9991899118952224209281008CEFC2
:100C00008093850083EF809384002092800081E0B0
:100C100080936F0085E08093810008952A928A93E3
:100C20002FB62A928CEF8093850083EF8093840007
:100C300081E080930F0420909201222059F0822DB0
:100C4000815080939201813029F4222420929201D4
:100C50002092940129902FBE899129901895A895EA
:100C600084B7877F84BF88E1809360000093600031
:100C700008954A9307C0442702C0A895439544307D
:100C8000E0F30A950023B9F7499108954A935A93DE
:100C9000A80104C004E6EDDF415050404030450754
:100CA000C9F75991499108950E945A292224209206
:100CB0000F04209000013324822D8F5F8093000168
:100CC000822D8A3008F49EC02224209200012090B8
:100CD0000E04222011F40E94CD1146E152E0662755
:100CE0000AC0FA012080222019F08081815080837F
:100CF0004F5F5F4F63956231A0F320900204222082
:100D000029F08091020481508093020480911602A0
:100D1000813011F40E9430102090F8013090F901D8
:100D20004090E8015090E9014214530490F080E0B3
:100D30008093EA018093EB018093EC018093ED01B5
:100D4000222433243092E9012092E80181E080934B
:100D50000C0420900504222021F0822D81508093E4
:100D6000050420902602222049F4809111049091DC
:100D700012048E7F909312048093110480911304C7
:100D80008C5F80931304209086023090870226FEA9
:100D900009C020900204222029F0809114048F5F62
:100DA000809314042090020130900301222011F45A
:100DB000332049F0809102019091030101979093B3
:100DC00003018093020120900304222021F0822D50
:100DD00081508093030420900004222029F0809108
:100DE00000048150809300048091FF03813029F436
:100DF000419882E08093FF0305C08091FF03823019
:100E000009F4419A0C945F2922242092C100209277
:100E1000C00086E08093C20083E38093C4002092E8
:100E2000C50088ED8093C100209294012092910129
:100E300081E08093FE0308952A920A938A939A93FD
:100E4000EA93FA932FB62A920091C6008AE0809323
:100E5000020485E08093000420909401222029F46C
:100E60000D3D19F00A3309F066C02090940122204C
:100E700019F483E08093920180E591E0E091940180
:100E8000FF27E80FF91F0083809194018F3320F42E
:100E90008F5F8093940107C02224209294012092B6
:100EA000920120925001809150018D3DD9F48091A2
:100EB0005301895F20909401281609F03CC086E513
:100EC00091E0E0915301FF27E80FF91F80818737F8
:100ED00091F581E080939101222420929201209249
:100EE000940129C0809150018A3329F580915301E2
:100EF000885F209094012816F1F486E591E0E09156
:100F00005301FF27E80FF91F8DE08083882399F0B4
:100F100087E591E0E0915301FF27E80FF91F8AE090
:100F20008083882341F082E08093910122242092E3
:100F300092012092940129902FBEF991E991999103
:100F400089910991299018952A923A928A939A93B5
:100F5000EA93FA932FB62A92809193018F5F809340
:100F6000930120909001382E821548F480E191E0A1
:100F7000E32DFF27E80FF91F20802092C60029905B
:100F80002FBEF991E99199918991399029901895FD
:100F90000E94502944275527AA2408C0F801208020
:100FA0003324420D531D0F5F1F4FA394A216B0F3BD
:100FB000409550958A010F5F1F4F0C945529AA92B6
:100FC000BA92A02E8DED80931001209052012092B4
:100FD000110180E880931201AA2019F022242092A6
:100FE000120122242092130122E002E111E0D0DF5D
:100FF00058011501232C332420921401A0921501CD
:1010000087E78093160187E0809390012224209245
:101010009301209010012092C600B990A9900895E4
:101020000E94722920909101222009F498C1809198
:1010300091018230C1F40E947C0D22242092910102
:10104000CC24DD240AC080E591E0F601E80FF91F09
:1010500022242082C60101966C01C6018A30E0E09C
:101060009E0788F37CC12224209291012091530194
:101070002E5F02E511E08CDF580184E591E0E091FC
:101080005301FF27E80FF91FC080DD24DC2CCC249E
:1010900085E591E0E0915301FF27E80FF91F2080DB
:1010A0003324C20CD31C0C151D0511F0002787DF5B
:1010B00080915101853A29F580915201833028F0C1
:1010C00086E020905201821520F4809152018A3AE4
:1010D00011F447D144C180915201803108F43FC1DD
:1010E0008DEA20905201821508F439C12090110434
:1010F0003090120420FE02C07BD231C100275FDF96
:101100002EC1809151018A3509F027C120905201EA
:10111000222029F580915301823009F5A0905401D5
:10112000BB24BA2CAA24209055013324A20CB31C52
:10113000C5018837E6E59E0779F401E040DF80913C
:101140001104909112048160909312048093110411
:1011500088E78093260203C1002731DF00C1809118
:101160005201813099F580915301823079F5A09038
:101170005401BB24BA2CAA24209055013324A20C7C
:10118000B31C01E01CDF80911104909112048E7F4A
:1011900090931204809311042224332430928B0202
:1011A00020928A0220922602C5018832E8E29E0738
:1011B00009F0D5C020900904222021F481E0809319
:1011C0000B04CDC082E080930904C9C08091520114
:1011D0008230F9F4A0905401BB24BA2CAA242090A8
:1011E00055013324A20CB31CC5018433E2E19E07F0
:1011F00009F0B5C0F89422270EEF10E00E945A01C2
:1012000028E80FEF10E00E945A0108E00E942F0624
:10121000FFCF80915201803190F08BEA20905201F3
:10122000821568F0209011043090120420FE04C052
:10123000C6D201E0C4DE93C00027C1DE90C0809119
:1012400052018D3A90F08FED20905201821568F096
:10125000209011043090120420FE04C03FD301E01E
:10126000AEDE7DC00027ABDE7AC080915201803EA9
:10127000B9F580915301823099F5A0905401BB24B7
:10128000BA2CAA24209055013324A20CB31C1501BA
:10129000442455243092EF012092EE015092F10146
:1012A0004092F0013092FB012092FA0140E458E3B1
:1012B00060E070E05A924A923A922A928A019B0127
:1012C0000E94F1281093EF010093EE013093F10199
:1012D0002093F00181E08093100401E070DE3FC0B4
:1012E00080915201813EF9F4809153018230D9F40A
:1012F000A0905401BB24BA2CAA2420905501332479
:10130000A20CB31CB0929102A09290022AE500E7D1
:1013100013E00E945A012A2D01E713E00E945A01AE
:1013200001E04DDE1CC080915201823E99F4809113
:101330005301823079F4A0905401BB24BA2CAA2422
:10134000209055013324A20CB31CA092010101E0AE
:1013500036DE05C0002733DE02C0002730DE0C94E5
:101360007B290E94642940E151E08DEDFA018193CF
:1013700020905201219222242192AF0180915201AA
:10138000833009F0A6C080913603880F895E81936F
:1013900020907C0230907D02232C332421922090D7
:1013A0007C0230907D02219220907E0230907F025C
:1013B000232C3324219220907E0230907F022192B0
:1013C0002090840230908502232C33242192209097
:1013D000840230908502219220903A0330903B03A2
:1013E000232C3324219220903A0330903B03219206
:1013F0002090480330904903232C332421922090DD
:1014000048033090490321922090440330904503D3
:10141000232C3324219220904403309045032192C1
:1014200020908A0230908B02232C3324219220902A
:101430008A0230908B02219220908C0230908D0293
:10144000232C3324219220908C0230908D02219203
:1014500020908E0230908F02232C332421922090F2
:101460008E0230908F02219289E181932090820236
:1014700030908302219220903703219220907803AC
:10148000309079032192209036032192AF01662794
:101490001BC086EE92E0E62FFF27EE0FFF1FE80F3E
:1014A000F91F20803180232C3324FA012192AF01CF
:1014B000E62FFF27EE0FFF1FE80FF91F2080318076
:1014C000FA012192AF01639520903603621508F36B
:1014D00071C080915201843009F030C020907803AF
:1014E00030907903220C331CFA012192AF01662758
:1014F0001BC08AEF92E0E62FFF27EE0FFF1FE80FD9
:10150000F91F20803180232C3324FA012192AF016E
:10151000E62FFF27EE0FFF1FE80FF91F2080318015
:10152000FA012192AF0163952090780330907903FE
:10153000462E552442145304E0F23CC080915201DF
:101540008530B9F42090BA03FA012192AF016627E1
:101550000BC08BEB93E0E62FFF27E80FF91F2080ED
:10156000FA012192AF0163952090BA03621588F3C6
:1015700021C0809152018A3AE9F486E1FA0181930F
:10158000AF0180E092E05C01662712C0F501208087
:101590003180232C3324FA012192AF01F501208000
:1015A0003180FA012192AF01C50102965C01639579
:1015B0006B3060F3209113012E5F02E111E0E8DC53
:1015C00058011501232C3324FA012192A192AF0175
:1015D00087E7808322242092930180911301895F01
:1015E00080939001209010012092C6000C946B29EA
:1015F0000E94722940E151E08DEDFA018193209023
:101600005201219222242192AF018091520188330C
:10161000F0F48AE393E0E0915201FF2770975F01B5
:10162000AA0CBB1CA80EB91E82E0FA018193AF017F
:10163000F50120803180232C3324FA012192AF015F
:10164000F50120803180FA012192AF019AC080918A
:1016500052018034C8F48AE893E0E0915201FF27F8
:10166000F8976F01CC0CDD1CC80ED91E82E0FA0180
:101670008193AF01F601DA0101906F010D92208094
:10168000FD012192AF017DC080915201803AC9F4E1
:1016900080919A038F5FFA018193AF0166270BC097
:1016A0008AE993E0E62FFF27E80FF91F2080FA016F
:1016B0002192AF01639580919A038F5F681780F341
:1016C00060C080915201813AC9F48091BA038F5F62
:1016D000FA018193AF0166270BC08AEB93E0E62FF6
:1016E000FF27E80FF91F2080FA012192AF016395CF
:1016F0008091BA038F5F681780F343C080915201D5
:10170000823AC9F48091DA038F5FFA018193AF01C5
:1017100066270BC08AED93E0E62FFF27E80FF91F3D
:101720002080FA012192AF0163958091DA038F5FE7
:10173000681780F326C0809152018A3A09F01EC0D2
:1017400086E1FA018193AF0180E092E05C016627B7
:1017500012C0F50120803180232C3324FA0121921C
:10176000AF01F50120803180FA012192AF01C5015E
:1017700002965C0163956B3060F303C000271FDCA9
:101780001CC0209113012E5F02E111E001DC580121
:101790001501232C3324FA012192A192AF0187E78E
:1017A000808322242092930180911301895F80938A
:1017B0009001209010012092C6000C947B29AA92DF
:1017C000BA9224E531E0809152018833E0F484320A
:1017D00009F4A8958AE393E0E0915201FF277097FE
:1017E0005F01AA0CBB1CA80EB91E00915401112761
:1017F000102F0027209055013324020D131DF501F1
:101800001183008368C0809152018034A0F48AE87B
:1018100093E000915201112708531040000F111F4F
:10182000080F191F20905401F801219220905501B2
:1018300021928F0150C080915201803AB9F4F90190
:10184000208020929A0300270BC08AE993E0E02FC2
:10185000FF27E80FF91FD9012D909D0120820395E4
:1018600080919A038F5F081780F335C080915201F1
:10187000813AB9F4F90120802092BA0300270BC005
:101880008AEB93E0E02FFF27E80FF91FD9012D9095
:101890009D01208203958091BA038F5F081780F322
:1018A0001AC080915201823AB1F4F901208020924D
:1018B000DA0300270BC08AED93E0E02FFF27E80F43
:1018C000F91FD9012D909D01208203958091DA03A3
:1018D0008F5F081780F3B990A99008950E9472292C
:1018E000A0905401BB24BA2CAA2420905501332483
:1018F000A20CB31C81E080930904809152018D3ABF
:1019000099F42090D4023090D5023092790220923E
:10191000780280E090E19093770280937602909332
:10192000750280937402D3C0809152018E3A09F0FF
:101930003EC02090780230907902C090D402D090BE
:10194000D502C218D30815014424552440E050E1C3
:1019500060E070E05A924A923A922A928A019B0180
:101960000E94F1281601442455245A924A923A9230
:101970002A920E947728109375020093740240E027
:1019800050EA60E070E018014424552442155305E4
:10199000640575052CF00039E1E01E0708F097C0DA
:1019A00080E090E1909375028093740290C08091E2
:1019B00052018F3A09F043C02090780230907902AA
:1019C000C090D402D090D502C218D308C601809529
:1019D000909501966C0115014424552440E050E196
:1019E00060E070E05A924A923A922A928A019B01F0
:1019F0000E94F1281601442455245A924A923A92A0
:101A00002A920E947728109377020093760240E092
:101A100050EA60E070E01801442455244215530553
:101A2000640575052CF00039E1E01E0708F04FC091
:101A300080E090E1909377028093760248C0809195
:101A40005201803BA0F08FEC20905201821578F07B
:101A5000822D9927805B90406C018031E0E09E07E9
:101A600008F035C09501082F0E94851630C080917E
:101A70005201803D60F18FED20905201821538F1C6
:101A8000822D9927805D90406C018830E0E09E07B0
:101A9000F0F41C01220C331C310184E692E0F101C8
:101AA000E80FF91F208031802501420C531C86EE7F
:101AB00092E0F301E80FF91F2080318042185308AB
:101AC00084E692E0F301E80FF91F518240820C9402
:101AD0007B290E944B29AA24BB24CC2408C0F801EE
:101AE00020803324A20CB31C0F5F1F4FC394C21677
:101AF000B0F385010C9425290E947229AA24A3948D
:101B0000209153012D5F01E511E0E3DF680185E5D8
:101B100091E0E0915301FF27E80FF91F60817727DB
:101B2000762F662784E591E0E0915301FF27E80FC7
:101B3000F91F20803324620D731D0617170709F063
:101B400090C040E151E08AE3FA0181932090510175
:101B50002192209052012192AF01C0905201DD24C8
:101B6000C6018830E0E09E07B1F08A30E0E09E07D1
:101B700009F425C08B30E0E09E0709F432C08830BC
:101B8000E0E09E070CF449C0C6018038E0E09E0703
:101B900009F431C042C084E0FA0181936091F602F9
:101BA0007091F702CB0190708193CB01892F992717
:101BB00090708193222421922192AF012FC081E065
:101BC000FA018193AF01209011043090120425FE98
:101BD00003C08193AF0122C02224FA012192AF01F8
:101BE0001DC081E0FA01819320908202309083022F
:101BF0002192AF0113C081E0FA018193AF012090DF
:101C00008E0230908F0234FE03C08193AF0106C074
:101C10002224FA012192AF0101C0AA24AA2009F1CD
:101C2000209113012D5F01E111E053DFB801CB01D9
:101C30009070FA018193CB01892F9927907081933D
:101C40008DE08193AF018AE080832224209293016A
:101C500080911301885F8093900120901001209261
:101C6000C6000C947B2922242092FA032092FB03C5
:101C70002092FC032092FD0300E012E0222707C01F
:101C800022243324F801219231928F0123952B30A5
:101C9000B8F381E080930A04089520909503209280
:101CA0001B022090940320921A022090930320920A
:101CB0001802209092032092190220908F03209204
:101CC0001C0220908E0320921D02209091032092EE
:101CD0001E0220921F020C9486124A93DEDF8EE1D0
:101CE0008093020480EC90E09093870280938602B8
:101CF00044270DC08AEF92E0E42FFF27EE0FFF1F6D
:101D0000E80FF91F80E19EE09183808343954F3077
:101D100088F380E19EE090939302809392029093E7
:101D200093028093920283E0809316024991089572
:101D30000DE00E942F060E9440040E94FC050E94B4
:101D4000B6030E940407222425BE20926E00209232
:101D5000700080E280936B0020926C0020926D00F6
:101D60002DBA2092690081E0809368008BBB20929D
:101D7000640078940E94CD110E946F01AEDF209024
:101D8000E6013090E7013092F3012092F2012090B9
:101D90008402309085023092FB012092FA0120905B
:101DA0003C0330903D033092F9012092F8012090DD
:101DB0003A0330903B033092F7012092F60100E79E
:101DC00013E00E9466010A3539F022243324309250
:101DD0009102209290020AC001E713E00E9466017E
:101DE000202E33243092910220929002089588EEA2
:101DF00093E09093E7018093E60190933B038093F7
:101E00003A0380E290933D0380933C0386E390E1A4
:101E100090933F0380933E0388EB9BE090934103B4
:101E20008093400382E090E09093430380934203C9
:101E300088E690E290934503809344032224332460
:101E40003092470320924603309249032092480380
:101E500083E09DE090934B0380934A038FE99CE0DD
:101E600090934D0380934C038BEA9AE090934F0339
:101E700080934E0389E7909351038093500385E349
:101E80009DE0909353038093520381ED9CE09093E7
:101E90005503809354038DED9AE0909357038093FC
:101EA00056038BEA909359038093580380E099E19D
:101EB00090935B0380935A0380E797E190935D03CF
:101EC00080935C0388E690E190935F0380935E03C8
:101ED00084E991E190936103809360038AE990E142
:101EE000909363038093620386E3909365038093EA
:101EF00064038CE89AE0909367038093660380EF15
:101F0000909369038093680380ED97E090936B034F
:101F100080936A0388E494EF90936D0380936C033D
:101F200080E19EE090936F0380936E0382E390E0E4
:101F300090937103809370038CEC90E190938703EE
:101F40008093860384EC99E09093890380938803BF
:101F50008FEB80938A038FE780938B0380EF8093CE
:101F60008C0380E280938D0384E080938E0385E070
:101F700080938F03809390038093910380939203C7
:101F800080939303809394038093950380939603A7
:101F90008FE08093970385E08093980380E280939D
:101FA000990384E190E0909373038093720382E03D
:101FB000909375038093740383E0909377038093E9
:101FC00076038FE090937903809378038EE190936A
:101FD0007B0380937A0390937D0380937C0380EA54
:101FE0009FE090937F0380937E0388ED9EE0909323
:101FF00081038093800380E1909383038093820325
:1020000084EE9CE0909385038093840300270FC0A7
:102010008AED90E0E02FFF27E80FF91F24908AE96E
:1020200093E0E02FFF27E80FF91F20820395063089
:1020300078F300270FC080EE90E0E02FFF27E80F35
:10204000F91F24908AEB93E0E02FFF27E80FF91F98
:10205000208203950C3078F322242092DA0308952D
:102060000E944529609720907C0230907D02442494
:1020700055242C863D864E865F862C843D844E8476
:102080005F844AE050E060E070E05A924A923A92EF
:102090002A928A019B010E94F1280C871D872E87B6
:1020A0003F872090780330907903332444245524CB
:1020B0000C851D852E853F855A924A923A922A9226
:1020C0000E947728680120903E0330903F033982B8
:1020D000288220907E0330907F033B822A822090CA
:1020E0008003309081033D822C82209082033090C7
:1020F00083033F822E8220908403309085033986AB
:10210000288620904003309041033B862A86209009
:10211000F6013090F701442455242C863D864E86E6
:102120005F86EE240EC0CE01EE2DFF27EE0FFF1FBF
:10213000E80FF91F208031802C143D0408F404C0FE
:10214000E3948E2D853078F304E11E2D010384E69F
:10215000A82EA018153009F433C0CE01EE2DFF27AC
:10216000EE0FFF1FE80FF91F60807180CE01EE2D8A
:10217000FF273197EE0FFF1FE80FF91F20803180F6
:10218000261837084424552488249924C601AA27F0
:10219000BB2786199709A809B90944E150E060E016
:1021A00070E0BA93AA939A938A938A019B010E9442
:1021B000F1285A924A923A922A920E947728A00EC7
:1021C0002A2C3324442455240C851D852E853F85D7
:1021D0005A924A923A922A920E94F12844E650E09A
:1021E00060E070E07A936A935A934A930E9477284A
:1021F0000C871D872E873F872C843D844E845F8407
:1022000040E458E360E070E05A924A923A922A928F
:102210008A019B010E94F1281093EF010093EE01C7
:102220003093F1012093F0012C843D843092FB0126
:102230002092FA0180E08093EA018093EB01809381
:10224000EC018093ED01222433243092E9012092A5
:10225000E80181E08093100460960C943A294A9337
:1022600048E0022707FD02C0000F05C087E0202ECE
:10227000220C2826022D842F8150482F882391F785
:10228000499108950E9449295901C02E2697CE01EF
:1022900004969B838A8382E088832C2D00E10E9430
:1022A000BE03002391F0CC2421E10C2DD8DF2C813A
:1022B000D6DFE02ECE2C2D80021511F0002706C0AF
:1022C0002C80F501208201E001C0002726960C94A5
:1022D0002A290E944729E22EA02EEF972197FE017E
:1022E000E85BFF4FC080D180CE0104969B838A8338
:1022F0002E2C220C28822A2D00E10E94BE030023EE
:1023000001F1AA2421E10A2DAADF2C81A8DF402FA8
:10231000A42E2D80021511F0002714C0AA240DC090
:10232000CE010496EA2DFF27EE0FFF1FE80FF91FDD
:102330002080F60121926F01A394AE1488F301E08E
:1023400001C00027EF9621960C943129AA92CA92D7
:10235000C22EA02E2697CC8222242D8220E1022D8F
:102360007EDF0D832A2D7BDF0D832C2D78DFC02EA1
:10237000CD82CE0104969B838A8382E088832A2DB6
:1023800000E10E940604A02E002311F4002701C0E2
:1023900001E02696C990A9900895AA92BA92219731
:1023A000409A08EE13E00E944606409838980E9432
:1023B000B6039E01002766DF002321F42224209229
:1023C0000E0440C081E080930E0429E10BE0BEDFE3
:1023D00004E10E94390628E333E0002753DF209010
:1023E0003803222019F0222D0027B0DF28E104E075
:1023F000ADDF23E405E0AADF9E0109E543DF25E028
:1024000030E008811127007E10700E945428580186
:102410009E0100E537DF88818C708883282E220C8E
:1024200028823324A20CB31C822D992783599E4FF6
:10243000909307018093060128E031E001E522DF57
:1024400065D0A8952196B990A99008950E94642915
:10245000580124972090080127FE0EC03324C5019F
:102460008219930980509F4F1C01442455242882CF
:1024700039824A825B820DC02090080133242501F5
:1024800042185308120144245524288239824A8272
:102490005B82288039804A805B8048EE53E060E0B0
:1024A00070E05A924A923A922A928A019B010E94C3
:1024B000F128088319832A833B83209006013090FA
:1024C000070144245524088119812A813B815A92AD
:1024D0004A923A922A920E947728088319832A8383
:1024E0003B8384E090E0088119812A813B818A93B3
:1024F0000E94E029088319832A833B83288039803E
:102500004A805B80022D24960C946B29AA9220911C
:102510008A0306E01BDF20918B0307E017DF209181
:102520008C0308E013DF00918603109187038EDF90
:10253000A02E2A2D09E00ADF00918803109189035B
:1025400085DFA02E2A2D0AE001DF222701E0FEDE32
:10255000222702E0FBDE222703E0F8DEA99008959F
:102560000E944529AF978FE08EA782E32090090152
:10257000821528F5222420920E04209209018091D0
:102580008E0290918F02986090938F0280938E02BA
:10259000EE2412C08AEF92E0EE2DFF27EE0FFF1F10
:1025A000E80FF91F84E690E09183808386E9909399
:1025B0007D0280937C02E3940EA4E01458F32090F3
:1025C0000E04222031F4809109018F5F809309016C
:1025D000BDC128E333E0002755DE002331F48091AC
:1025E00009018F5F80930901B1C1809109018F5F5B
:1025F0008093090180E190E0209078033090790386
:102600008215930588F0E0E1F0E0E219F309EE0F9E
:10261000FF1F88EC90E0E80FF91F2590349030926E
:102620000F0120920E0106C08FEF9FEF90930F01D4
:1026300080930E012090380327FE88C12224209227
:10264000090181E08093070480918E0290918F02AE
:10265000977F90938F0280938E02CE010696998386
:10266000888322E002E335DECE80DD24DC2CCC241E
:102670002F803324C20CD31C8601C8D1CE0106960C
:10268000998388832EA5220F0CE023DEAA24EE2452
:102690007BC02E2D332701E010E00E94C629209038
:1026A0000E0130900F0120223122222019F4332014
:1026B00009F469C0CE010696EE2DFF27EE0FFF1F2D
:1026C000E80FF91FC080DD24DC2CCC24CE01079656
:1026D000EE2DFF27EE0FFF1FE80FF91F2080332498
:1026E000C20CD31C1601442455242A823B824C82FE
:1026F0005D822090060130900701442455240A8110
:102700001B812C813D815A924A923A922A920E94D0
:10271000F1280A831B832C833D8348EE53E060E05D
:1027200070E00A811B812C813D817A936A935A93D0
:102730004A930E9477280A831B832C833D83CA8097
:10274000DB802090080133242601420C531C88E9C9
:1027500092E0EA2DFF27EE0FFF1FE80FF91F5182CD
:1027600040822090080127FE0DC02A2C3324220C21
:10277000331C280E391EF1018081918180509140D7
:1027800091838083A394E3940EA4E01408F481CF92
:10279000CE0106969983888324E00EE29ADDAA246E
:1027A000EE2484C0CE010696EE2DFF27EE0FFF1F0C
:1027B000E80FF91FC080DD24DC2CCC24CE01079665
:1027C000EE2DFF27EE0FFF1FE80FF91F20803324A7
:1027D000C20CD31C1601442455242A823B824C820D
:1027E0005D822A803B804C805D804EE751E060E056
:1027F00070E05A924A923A922A928A019B010E9470
:10280000F1280A831B832C833D8348EE53E060E06C
:1028100070E00A811B812C813D817A936A935A93DF
:102820004A930E9477280A831B832C833D83CA80A6
:10283000DB8086018ED0680186ED92E0EE2DFF27C9
:10284000EE0FFF1FE80FF91FD182C0822E2D332714
:1028500001E010E00E94C6292090760330907703B3
:1028600020223122222011F43320F9F0CA2CDD2459
:10287000CC0CDD1C84E692E0F601E80FF91F208005
:10288000318086ED92E0EE2DFF27EE0FFF1FE80F5F
:10289000F91F40805180420C531C86EE92E0F601F5
:1028A000E80FF91F51824082A394E3948E2D823069
:1028B00008F478CFA0923603C090E602D090E702E9
:1028C000AA2019F485EA9BE06C015601EE242BC086
:1028D00086EE92E0EE2DFF27EE0FFF1FE80FF91FA7
:1028E000208031802A143B0440F4EE2DFF27EE0FA8
:1028F000FF1FE80FF91FA080B18086EE92E0EE2D59
:10290000FF27EE0FFF1FE80FF91F20803180C21450
:10291000D30440F4EE2DFF27EE0FFF1FE80FF91F41
:10292000C080D180E39420903603E21488F2D092E4
:10293000F702C092F602B092F902A092F80220913A
:102940003803002703DD81E080930D04AF960C94DB
:102950003A290E946429A8014634ECE05E0718F089
:102960000FE719E051C082E490E08417950718F052
:1029700007E810E149C0AA240FC08CEE90E0EA2DD0
:10298000FF27EE0FFF1FE80FF91F25903490241644
:10299000350608F404C0A3948A2D843B70F38CEEB2
:1029A00090E0EA2DFF27EE0FFF1FE80FF91F25909B
:1029B000349042195309EA2DFF27EE0FFF1FE80F4D
:1029C000F91F25903490EA2DFF273197EE0FFF1F56
:1029D000E80FF91F65917491621973090AE010E01C
:1029E0009A010E94E1289B010E945D28A8016A2D9E
:1029F00077270AE010E09B010E94E128B8016158A6
:102A0000764F8B01040F151F0C946B290E947229BD
:102A100068012497AA24D7FE07C0C094D094C601A9
:102A200001966C01AA24A3941601442455242882FB
:102A300039824A825B82288039804A805B804CE4FC
:102A400053E060E070E05A924A923A922A928A01E8
:102A50009B010E94F128088319832A833B8344E663
:102A600050E060E070E0088119812A813B817A930F
:102A70006A935A934A930E947728088319832A837A
:102A80003B832090720330907303442455240881C3
:102A900019812A813B815A924A923A922A920E9443
:102AA0007728088319832A833B83288039803092D2
:102AB000D5022092D402AA2041F0C10180959095C0
:102AC00001969093D5028093D402209078023090A2
:102AD000790237FE34C0C1018095909501966C0152
:102AE000AA20E9F01C0144245524688079808A805A
:102AF0009B80261437044804590458F44424552470
:102B00006218730884089508688279828A829B8299
:102B10004AC080E0888389838A838B8344C01601FE
:102B200044245524688079808A809B80620C731CC1
:102B3000841C951C688279828A829B8234C0AA2078
:102B400099F02090780230907902442455246880CE
:102B500079808A809B80620C731C841C951C68821F
:102B600079828A829B821FC02090780230907902FD
:102B700044245524688079808A809B8026143704F9
:102B80004804590458F444245524621873088408EE
:102B90009508688279828A829B8205C080E088835A
:102BA00089838A838B83AA20D1F02090760230908B
:102BB000770244245524088119812A813B815A9245
:102BC0004A923A922A920E94F1288CE090E08A93ED
:102BD0000E94E029088319832A833B8319C020902F
:102BE00074023090750244245524088119812A8189
:102BF0003B815A924A923A922A920E94F1288CE0A2
:102C000090E08A930E94E029088319832A833B83FA
:102C100044E150E060E070E0288039804A805B80C9
:102C2000421553056405750508F050C08AE080938D
:102C30000204222420922702AA2049F18091110443
:102C4000909112048F7D9093120480931104288038
:102C500039804A805B8040E050E061E070E04219DA
:102C6000530964097509488359836A837B838FEF0D
:102C70009FEF90937B0280937A0280911104909150
:102C800012048064909312048093110418C02224CB
:102C9000332430927B0220927A0280911104909129
:102CA00012048F7B9093120480931104809111047D
:102CB00090911204806290931204809311042880F2
:102CC000398030927F0220927E021CC0222433245D
:102CD00030927F0220927E02809111049091120422
:102CE0008F7D909312048093110430927B02209286
:102CF0007A0280911104909112048F7B90931204B8
:102D00008093110424960C947B290E9472296901F6
:102D1000A02E249788E292E0EA2DFF27EE0FFF1FF6
:102D2000E80FF91F20803180222061F4332051F414
:102D3000EA2DFF27EE0FFF1FE80FF91F80E090E15B
:102D40009183808388E992E0EA2DFF27EE0FFF1F31
:102D5000E80FF91F2080318044245524360188244F
:102D6000992440E050E160E070E09A928A927A9271
:102D70006A928A019B010E94F1285A924A923A92E1
:102D80002A920E947728088319832A833B8388E24A
:102D900092E0EA2DFF27EE0FFF1FE80FF91F2880B2
:102DA000398031822082EA2DFF27EE0FFF1FE80FC6
:102DB000F91F6080718040E050EA60E070E013012C
:102DC0004424552442155305640575052CF0C101B2
:102DD0008039E1E09E0760F488E292E0EA2DFF2767
:102DE000EE0FFF1FE80FF91F80E090E191838083D1
:102DF00024960C947B29209010042220D9F02224C0
:102E00002092100420903A0330903B033092F70157
:102E10002092F6012090FA013090FB013092850259
:102E20002092840220903C0330903D033092F901BF
:102E30002092F8010DD020900804222019F02224BD
:102E40002092080420900D04222009F01CD208953D
:102E50000E946429289720900704222009F410C2B8
:102E600022242092070420907E0230907F02442486
:102E700055242C823D824E825F822C803D804E8084
:102E80005F80E32DE078E9F040E050E06FEF7FEF06
:102E9000242A352A462A572A8090FE019090FF0165
:102EA0006090FC017090FD01620C731C841C951CE9
:102EB0007092FD016092FC019092FF018092FE01F0
:102EC00018C02C803D80442455248090FE019090B1
:102ED000FF016090FC017090FD01620C731C841C6A
:102EE000951C7092FD016092FC019092FF0180920E
:102EF000FE018091E5018F5F8093E501843008F445
:102F0000BFC181E08093080422242092E50144E0BF
:102F100050E060E070E02091FE013091FF010091EF
:102F2000FC011091FD017A936A935A934A930E948F
:102F30007D280C831D832E833F8340E050E060E0BA
:102F400070E82C803D804E805F80421553056405FB
:102F5000750508F041C04BEE5FEF6FEF7FEF241671
:102F6000350646065706C0F541E050E060E070E0E7
:102F70004090FE015090FF012090FC013090FD0137
:102F80002094309440945094240E351E461E571EB3
:102F90008090EC019090ED016090EA017090EB015F
:102FA000620C731C841C951C7092EB016092EA0108
:102FB0009092ED018092EC0140E458E360E070E013
:102FC000830194017A936A935A934A930E947728D3
:102FD0001093E9010093E80185E991E0E091D901BE
:102FE000FF27EE0FFF1FEE0FFF1FE80FF91F2C80CA
:102FF0003D804E805F80208231824282538280E019
:103000008093FC018093FD018093FE018093FF017A
:103010008091D9018F5F8093D9018F3018F02224DD
:103020002092D90180E0888389838A838B83AA24B4
:103030001BC085E991E0EA2DFF27EE0FFF1FEE0F81
:10304000FF1FE80FF91F2080318042805380688085
:1030500079808A809B80620C731C841C951C68821A
:1030600079828A829B82A3948A2D8F3010F34FE05D
:1030700050E060E070E0088119812A813B817A93F9
:103080006A935A934A930E947D28088319832A835E
:103090003B832880398030928102209280022090E8
:1030A00011043090120425FE06C080918202909196
:1030B0008302843608F52090DC012220E9F482E0C6
:1030C00090E0088119812A813B818A930E94CD2951
:1030D0004090F0015090F1012090EE013090EF010E
:1030E000200E311E421E531E3092EF012092EE013F
:1030F0005092F1014092F00140E050E060E070E851
:103100004090F0015090F1012090EE013090EF01DD
:10311000421553056405750548F480E08093EE017F
:103120008093EF018093F0018093F1012090F601EC
:103130003090F7014424552440E458E360E070E007
:103140005A924A923A922A928A019B010E94F1284D
:103150004090F0015090F1012090EE013090EF018D
:103160000215130524053505D0F42090F6013090A2
:10317000F7014424552440E458E360E070E05A929B
:103180004A923A922A928A019B010E94F128109356
:10319000EF010093EE013093F1012093F0012090B4
:1031A00011043090120421FE4AC020901104309086
:1031B000120427FC44C0288039804A805B80E52DBA
:1031C000E07809F43CC082E090E081019201009532
:1031D0001095209530958A930E94CD2918012901D8
:1031E00041E050E060E070E0240E351E461E571EA0
:1031F0008090E3019090E4016090E1017090E20121
:10320000620C731C841C951C7092E2016092E101B7
:103210009092E4018092E30140E050E060E070E8C9
:10322000461557056805790550F48FEF8093E10145
:103230008093E2018093E3018FE08093E401288092
:103240003980309281022092800240E458E360E0AD
:1032500070E02091F0013091F1010091EE011091A8
:10326000EF017A936A935A934A930E9477281093B6
:10327000FB010093FA01180130928502209284022A
:1032800028960C946B290E94642928972090110499
:103290003090120421FE0FC02090110430901204CF
:1032A00025FE09C080911104909112048D7F9093A6
:1032B000120480931104209011043090120424FE13
:1032C0003DC080911104909112048F7E909312045E
:1032D000809311042090F6013090F7014424552486
:1032E00040E458E360E070E05A924A923A922A929F
:1032F0008A019B010E94F1281093EF010093EE01D7
:103300003093F1012093F0012090F6013090F70105
:103310003092FB012092FA01809182029091830207
:103320008D3548F48091880290918902806890934D
:1033300089028093880281E0809310042090DB0151
:10334000222041F022242092DB0181E080931004AE
:103350000E947D022090FA013090FB014424552404
:1033600044E650E060E070E05A924A923A922A9223
:103370008A019B010E94F128088319832A833B83D9
:103380002090F6013090F7014424552408811981DA
:103390002A813B815A924A923A922A920E94772835
:1033A0000C831D832E833F832090F6013090F7011C
:1033B00044245524088119812A813B815A924A92DA
:1033C0003A922A920E9479282090F6013090F701D3
:1033D0003694279444245524201631064206530679
:1033E00080F441E050E060E070E02C803D804E8051
:1033F0005F80240E351E461E571E2C823D824E8253
:103400005F822C803D803092830220928202209045
:103410000C04222009F43FC0222420920C04809145
:103420004803909149030196909349038093480380
:103430008091DA018F5F8093DA01A82EA694A6947A
:103440008DE08A15B0F0809139038F3090F4282EEA
:103450002A0C2092390384E12090DA01821548F485
:10346000809188029091890280689093890280936C
:10347000880220914803309149030EE110E00E9438
:103480005A012091480330914903232F33270FE13C
:1034900010E00E945A0128960C946B290E9464291E
:1034A0002897209011043090120425FE05C0222494
:1034B000209213042092140480911304893D08F48F
:1034C0009FC0222420921304809127028F5F809353
:1034D00027028091E6029091E7028B3AEAE09E078C
:1034E00010F4AA240FC024E630E00091E602109107
:1034F000E7020B5A1A400E945D28A02E87E0801731
:1035000008F4A82E84E592E0EA2DFF27E80FF91FC2
:10351000A4904090F0015090F1012090EE01309085
:10352000EF01288239824A825B82209042033090E8
:10353000430344245524088119812A813B815A92EE
:103540004A923A922A920E94F1282A2C3324442447
:1035500055245A924A923A922A920E94F12808835C
:1035600019832A833B8340E05AEB6BED70E00881BE
:1035700019812A813B817A936A935A934A930E94D4
:103580007728088319832A833B8320901104309085
:10359000120421FE18C0288039804A805B80809008
:1035A000DF019090E0016090DD017090DE01620C1F
:1035B000731C841C951C7092DE016092DD01909258
:1035C000E0018092DF01288039804A805B80809012
:1035D000F0019090F1016090EE017090EF0162189F
:1035E0007308840895087092EF016092EE01909242
:1035F000F1018092F00181E080930804809310042F
:1036000080911404893D08F450C0222420921404AF
:103610000CE512E00E94B2290C831D832E833F83A8
:103620000C811D812E813F810E94EC290883198322
:103630002A833B83209011043090120421FE18C08D
:10364000288039804A805B808090DF019090E00183
:103650006090DD017090DE01620C731C841C951C6F
:103660007092DE016092DD019092E0018092DF01B4
:10367000288039804A805B808090F0019090F10131
:103680006090EE017090EF0162187308840895084D
:103690007092EF016092EE019092F1018092F00140
:1036A00081E0809308048093100428960C946B2981
:1036B0000E944F28288039804A805B80E52DE07881
:1036C00079F081E090E0A0E0B0E081019201009506
:1036D000109520953095080F191F2A1F3B1F04C015
:1036E000088119812A813B812496089520900B043A
:1036F0002220B9F1A895F894222420920B040E946C
:10370000330E0E947D020E944D0E20903A033090AD
:103710003B033092E7012092E6012091E6013091CF
:10372000E701232F332700EF10E00E945A01209178
:10373000E6013091E701307001EF10E00E945A017C
:10374000789481E0809310042224332430928F02F5
:1037500020928E0283E08093160230928B02209298
:103760008A0280910904823039F4F894222420924C
:1037700009040E949A02789420900A04222039F0C9
:10378000F894222420920A040E94B7027894209090
:103790000D042220E1F0222420920D042BD0209051
:1037A00011043090120420FE0EC0209011043090BD
:1037B000120420FE0AC02090010180E0821528F446
:1037C000822D843010F40E94D825E0D6CDD7C0D009
:1037D000209011043090120420FE0AC020901104A1
:1037E0003090120420FE05C080910101807F09F015
:1037F000FDD508950E944529249780E08883898318
:103800008A838B8322243324309293022092920263
:103810008FEF9FEF909395028093940288E992E056
:103820005C01CC242DC0F501E080F18088E292E0BB
:10383000EC2DFF27EE0FFF1FE80FF91F20803180CE
:103840004424552487019801222733275A924A920B
:103850003A922A920E94F1288CE090E08A930E948A
:10386000E02978018AEF92E0EC2DFF27EE0FFF1F91
:10387000E80FF91FF182E082C50102965C01C39452
:1038800020907803309079034C2C55244214530433
:1038900008F4C9CF8AEF92E05C01CC243AC0F5016C
:1038A0002080318044245524688079808A809B80E0
:1038B000620C731C841C951C688279828A829B82AC
:1038C000209092023090930240805180241435045D
:1038D00060F42080318030929302209292022C2C4E
:1038E00033243092970220929602209094023090D6
:1038F0009502F501408051804214530430F4208039
:1039000031803092950220929402C50102965C01AA
:10391000C39420907803309079034C2C55244214A2
:10392000530408F4BCCF4AE050E060E070E0088146
:1039300019812A813B817A936A935A934A930E9410
:10394000772810937D0200937C0224960C943A29E8
:103950000E9464292497A0908602B090870220904C
:1039600011043090120425FE04C0C5018F7B5C0158
:1039700003C0C50180645C01A6FE04C0C5019F7739
:103980005C0105C0A5FE03C0C50190685C012090E4
:103990005C0330905D034424552460907C02709059
:1039A0007D0288249924621473048404950470F0C1
:1039B000209011043090120426FE16C080917E02E1
:1039C00090917F028733EFEF9E0770F480918E0213
:1039D00090918F028B7F90938F0280938E02209024
:1039E0009303209218023DC020908E0230908F02E7
:1039F00022FC37C020905A0330905B0344245524A6
:103A000060907C0270907D02882499246214730473
:103A10008404950428F4209093032092180203C094
:103A20008AE080930204209018022220D1F4809131
:103A30008E0290918F02846090938F0280938E0209
:103A40008091FA038F5F8093FA0380911202909124
:103A500013020196909313028093120281E08093E7
:103A60000A04209060033090610344245524609040
:103A70007C0270907D02882499242614370448041F
:103A8000590478F0209011043090120425FE17C0DC
:103A900088EC90E020907E0230907F0282159305A2
:103AA00070F480918E0290918F02877F90938F02A5
:103AB00080938E0220909203209219023DC02090A4
:103AC0008E0230908F0223FC37C020905E0330902E
:103AD0005F034424552460907C0270907D0288240A
:103AE0009924261437044804590428F4209092039A
:103AF0002092190203C08AE08093020420901902E8
:103B00002220D1F480918E0290918F028860909350
:103B10008F0280938E028091FB038F5F8093FB0363
:103B20008091140290911502019690931502809352
:103B3000140281E080930A042090640330906503AE
:103B400040909202509093024214530470F02090DF
:103B500011043090120426FE16C080917E029091CE
:103B60007F028733EFEF9E0770F480918E02909171
:103B70008F028E7F90938F0280938E022090950308
:103B800020921A023BC020908E0230908F0220FCBF
:103B900035C02090620330906303409092025090B1
:103BA00093024214530428F42090950320921A02A1
:103BB00003C08AE08093020420901A02222021F0A0
:103BC0002090380322FE1AC080918E0290918F02BD
:103BD000816090938F0280938E028091FA038F5FB1
:103BE0008093FA03809106029091070201969093C8
:103BF00007028093060281E080930A042090680304
:103C0000309069034090940250909502241435043A
:103C100078F0209011043090120425FE17C088EC33
:103C200090E020907E0230907F028215930570F420
:103C300080918E0290918F028D7F90938F0280935E
:103C40008E022090940320921B023BC020908E0293
:103C500030908F0221FC35C02090660330906703BE
:103C600040909402509095022414350428F420903A
:103C7000940320921B0203C08AE0809302042090E8
:103C80001B02222021F02090380323FE1AC08091CD
:103C90008E0290918F02826090938F0280938E02A9
:103CA0008091FB038F5F8093FB03809108029091CA
:103CB00009020196909309028093080281E08093A3
:103CC0000A0480918E0290918F02857090708030EE
:103CD000890719F485E08093240220902402222091
:103CE00031F481E08093060485E08093050480919F
:103CF0008E0290918F028A7090708030890719F43B
:103D000085E080932502209025022220B1F4222410
:103D10003324309285022092840280E08093EE0169
:103D20008093EF018093F0018093F1013092FB01C9
:103D30002092FA0181E080931004209011043090C9
:103D4000120426FE03C022242092210220908E021B
:103D500030908F0230FE13C020902102222009F003
:103D60004FC080918E0290918F029E7F90938F0220
:103D700080938E02209096032092210241C02090D1
:103D80006A0330906B0344245524288239824A8286
:103D90005B82A6FC0FC0288039804A805B806090DF
:103DA0007E0270907F028824992462147304840434
:103DB000950420F420909603209221022090210265
:103DC0002220F1F480918E0290918F029160909365
:103DD0008F0280938E02209097032092210280917F
:103DE000FA038F5F8093FA0380910202909103029D
:103DF0000196909303028093020281E080930A046B
:103E0000A6FC73C080918E0290918F028F73909365
:103E10008F0280938E022090900320921F022090A8
:103E2000910320921E0284FD0FC020904A0330901F
:103E30004B034090F6025090F7024214530420F4D2
:103E400020908F0320921C0220908E0230908F02CF
:103E500025FC0FC020904E0330904F034090F80295
:103E60005090F9022414350420F420908E032092FF
:103E70001D0220901C022220C9F480918E02909194
:103E80008F02806190938F0280938E0220908F0327
:103E900020921C0280910A0290910B02019690934D
:103EA0000B0280930A0281E080930A0420901D0295
:103EB000222009F091C080918E0290918F02806241
:103EC00090938F0280938E0220908E0320921D0289
:103ED00080910C0290910D02019690930D028093B7
:103EE0000C0281E080930A0477C020901104309086
:103EF000120426FE71C080918E0290918F028F7CF9
:103F000090938F0280938E0220908E0320921D0248
:103F100020908F0320921C0286FD0FC02090520338
:103F2000309053034090F6025090F702421453042D
:103F300020F42090910320921E0220908E02309057
:103F40008F0227FC0FC020905603309057034090FB
:103F5000F8025090F9022414350420F420909003C4
:103F600020921F0220901E022220C9F480918E020E
:103F700090918F02806490938F0280938E022090A4
:103F8000910320921E0280910E0290910F020196E1
:103F900090930F0280930E0281E080930A04209098
:103FA0001F022220C9F480918E0290918F028068B6
:103FB00090938F0280938E022090900320921F0294
:103FC00080911002909111020196909311028093BA
:103FD000100281E080930A0420905403309055032E
:103FE0004090F6025090F7024214530448F4809136
:103FF0008E0290918F028F7B90938F0280938E021E
:1040000020905803309059034090F8025090F902E4
:104010002414350448F480918E0290918F028F779A
:1040200090938F0280938E0220904C0330904D032A
:104030004090F6025090F7024214530448F48091E5
:104040008E0290918F028F7E90938F0280938E02CA
:1040500020905003309051034090F8025090F902A4
:104060002414350448F480918E0290918F028F7D44
:1040700090938F0280938E02B3FE0CC02090840236
:1040800030908502222011F43320A9F1C501977FD9
:104090005C0131C020908E0230908F0221FC08C05C
:1040A0002090840230908502222029F4332019F4D4
:1040B000C50198605C01209011043090120421FE2B
:1040C0001AC0209011043090120427FC14C02090D4
:1040D0004003309041034090940250909502421466
:1040E000530448F4809111049091120480689093D5
:1040F000120480931104A5FE4EC08091820290911B
:104100008302803608F05FC02090110430901204C2
:1041100024FC59C0C5018F7D5C0122242092060435
:104120008091110490911204826090931204809304
:10413000110480E08093DD018093DE018093DF0134
:104140008093E0012090F6013090F701442455243B
:1041500040E458E360E070E05A924A923A922A9220
:104160008A019B010E94F128180129018090F00129
:104170009090F1016090EE017090EF0126183708E1
:10418000480859083092E2012092E1015092E4017E
:104190004092E30118C0209006042220A1F0C5013E
:1041A00080625C01222420920604332430928B0228
:1041B00020928A0280911104909112048061909360
:1041C00012048093110480918E0290918F0281706D
:1041D00091708030890731F4C50180729071803010
:1041E000890721F0C50190645C0103C0C5019F7B74
:1041F0005C0180918202909183028630E0E09E070C
:1042000010F0B3FE04C0C50180615C010AC084E106
:104210002090820230908302821518F4C5018F7EAF
:104220005C0120908E0230908F0232FC26C02090DC
:10423000380321FE5FC080918E0290918F029460BE
:1042400090938F0280938E028AE0809302042090E4
:104250008D03209220028091FB038F5F8093FB03EC
:104260008091000290910102019690930102809347
:10427000000281E080930A043DC080912002885FA3
:1042800080930204209074033090750321FE17C0C0
:1042900020900A012220B1F4219A299A22982A9A80
:1042A00001E010E00E94460620908D03209220023B
:1042B0001A9B03C081E080930A01299803C081E022
:1042C00080930A01209020022220A1F420900A016C
:1042D000222081F080918E0290918F029B7F90939B
:1042E0008F0280938E0220908D0320922002222440
:1042F00020920A0120906C0330906D0344245524D1
:10430000288239824A825B8220908E0230908F020E
:1043100031FC3FC020907E0230907F0237FE0FC0FC
:10432000288039804A805B8060907E0270907F0296
:1043300088249924261437044804590420F4209032
:1043400098032092220220902202222021F0209025
:10435000380320FE44C080918E0290918F029260BB
:1043600090938F0280938E022090990320922202D4
:10437000809104029091050201969093050280932A
:10438000040281E080930A04822D885F80930204F6
:1043900026C0209011043090120425FE0CC088EC39
:1043A00090E020907E0230907F028215930518F4F1
:1043B0002224209222028AE080930204209022028A
:1043C000222069F480918E0290918F029D7F9093BC
:1043D0008F0280938E022090980320922202B09246
:1043E0008702A092860224960C946B29219722249E
:1043F00028822090900230909102222011F43320E4
:1044000051F080918E0290918F02906190938F0273
:1044100080938E0209C080918E0290918F029F7EC0
:1044200090938F0280938E0280918E0290918F02E2
:104430008A7C96708030890771F4209074033090E4
:10444000750320FE02C01D9906C020909002309096
:10445000910221FE06C0809137038D7F8093370340
:1044600005C08091370382608093370380918E026C
:1044700090918F02807390708030890779F48091D9
:104480008E0290918F02857091708030890731F48F
:10449000209090023090910220FE06C08091370358
:1044A0008E7F8093370305C08091370381608093AE
:1044B0003703209011043090120425FE0EC088ECC2
:1044C00090E020907E0230907F028215930528F4C0
:1044D000809137038260809337039E0105E00E943C
:1044E000421180913703837098819370981769F017
:1044F00088818C7F88838091370383702880282A65
:104500002882222D05E00E94A611809166039091D9
:104510006703845690402090940230909502821553
:10452000930528F0C1018C3DE5E09E0748F488E042
:10453000809303048091FF03813049F0419A07C0C2
:1045400020900304222019F08AE0809302048091D5
:10455000110490911204807690708030890761F088
:1045600020900004222059F42090FF03222039F4E7
:1045700081E08093FF0303C022242092FF03209058
:104580000304222009F44198219608950E94642989
:104590002497209086023090870226FE13C08091D7
:1045A000940290919502883BEBE09E0738F4222418
:1045B00020920B0180EF80931702D3C082E080939A
:1045C0000B01CFC0A0900B01BB24AA2011F4BB208B
:1045D00081F0C5018130E0E09E0721F18230E0E00A
:1045E0009E0709F43BC08330E0E09E0709F44BC00E
:1045F000B8C020901702222071F088EB9BE0209039
:104600009402309095028215930508F0AAC082E0CA
:1046100080930B01A6C081E080930B0180EF809313
:1046200017029FC0209017022220A1F088EB9BE088
:1046300020909402309095028215930520F482E038
:1046400080930B018EC0222420920B0180EF809377
:10465000170287C0222420920B0183C020903E03C2
:1046600030903F0380919202909193028C599F4F1A
:104670002816390608F075C083E080930B0185E0A9
:10468000809305046EC0209011043090120425FE22
:1046900065C020907C0230907D02442455242882FD
:1046A00039824A825B82288039804A805B804AE076
:1046B00050E060E070E05A924A923A922A928A015F
:1046C0009B010E94F128088319832A833B83209051
:1046D00078033090790344245524088119812A8174
:1046E0003B815A924A923A922A920E9477280883F2
:1046F00019832A833B8320903E0330903F03442458
:104700005524688079808A809B8026143704480469
:10471000590420F580EA9FE08215930560F482E356
:1047200090E020907E0230907F028215930518F46D
:1047300085E08093050420900504222091F481E017
:10474000809306042224332430928B0220928A0222
:1047500085E080930B018093050403C085E080937E
:10476000050424960C946B290E9464292C9722241A
:104770002092DC01209086023090870226FC4FC1F7
:10478000209011043090120425FEB7C1209011042E
:104790003090120427FEB1C12090F6013090F7014D
:1047A000442455242C823D824E825F8280911104E4
:1047B000909112048F77909312048093110449E131
:1047C00050E060E070E000913A0310913B03222733
:1047D00033277A936A935A934A930E947728180151
:1047E000290140E458E360E070E02091E30130915A
:1047F000E4010091E1011091E2017A936A935A93E6
:104800004A930E94772838014901620C731C841C6A
:10481000951C40E458E360E070E02091DF013091A6
:10482000E0010091DD011091DE017A936A935A93C1
:104830004A930E947728600E711E821E931E68861E
:1048400079868A869B86209074033090750326FCB7
:10485000BEC04AE050E060E070E00091E6011091D7
:10486000E701222733277A936A935A934A930E9447
:104870007728088319832A833B83288439844A84D0
:104880005B840C811D812E813F810219130924094B
:1048900035090E94581B288039804A805B800215A8
:1048A00013052405350548F4288439844A845B843B
:1048B0002C823D824E825F822AC0288439844A84B9
:1048C0005B846C807D808E809F8026143704480432
:1048D000590468F4288039804A805B806218730824
:1048E000840895086C827D828E829F8210C0288009
:1048F00039804A805B806C807D808E809F80620CD6
:10490000731C841C951C6C827D828E829F822090F9
:10491000E6013090E70144245524288239824A82F6
:104920005B8282E090E0088119812A813B818A9331
:104930000E94E029288039804A805B80200E311E49
:10494000421E531E288239824A825B822880398027
:104950004A805B806C807D808E809F802614370427
:104960004804590420F42C823D824E825F822090BC
:10497000E6013090E70144245524288239824A8296
:104980005B8282E090E0088119812A813B818A93D1
:104990000E94E029288039804A805B80201A310AF1
:1049A000420A530A288239824A825B8228803980EF
:1049B0004A805B806C807D808E809F80621473044F
:1049C0008404950420F42C823D824E825F8248EC60
:1049D00050E060E070E02C803D804E805F804215AA
:1049E00053056405750540F43092F7012092F601F5
:1049F00030923B0320923A0381E08093DB01809167
:104A00008802909189028F7790938902809388021F
:104A100022242092DA0182E0809339036EC0209034
:104A200011043090120426FC01C067C08091E60298
:104A30009091E7028837EAE09E0708F45EC0209074
:104A40007C0230907D0244245524288239824A8297
:104A50005B82288039804A805B804AE050E060E0D9
:104A600070E05A924A923A922A928A019B010E94DD
:104A7000F128088319832A833B83209078033090A0
:104A8000790344245524088119812A813B815A9253
:104A90004A923A922A920E947728088319832A839D
:104AA0003B83A880B98020904003309041032A14B2
:104AB0003B0400F180910C018F5F80930C018630E4
:104AC000E0F080E08093EE018093EF018093F001AD
:104AD0008093F101209011043090120421FE0DC04A
:104AE0008091110490911204806890931204809335
:104AF000110403C0222420920C012C960C946B29E3
:104B00000E94502944275527AA242EC02A2C33243A
:104B1000220C331C31018AEF92E0F101E80FF91FFA
:104B20002080318040906E0350906F032414350430
:104B3000D0F0F301E80FF91F2080318040909402FB
:104B400050909502241835084090700350907103DE
:104B50002414350440F02A2D332701E010E00E9490
:104B6000C629402B512BA3942090780330907903D1
:104B70004A2C55244214530408F4C8CF20909602BE
:104B80003090970220FE03C04A7A5A7A02C04575D7
:104B9000557550938B0240938A022224332430921D
:104BA0008D0220928C028AE0809302040C94552995
:104BB0000E944529EE24CC24AA24662720901104C3
:104BC0003090120420FE24C020908A0230908B0284
:104BD000222011F4332019F0E0D0A80102C04427AC
:104BE0005527CA018F719070E82E25E030E08A01C8
:104BF0000E94D929C8018F719070C82E2AE030E038
:104C00008A010E94D929C8018F719070A82E8CC08A
:104C1000209074033090750322FC17C0222701E016
:104C20000E94A611222702E00E94A611222703E07B
:104C30000E94A6112224332430928B0220928A02F1
:104C400030928D0220928C027BC020906E033090B7
:104C50006F0340909202509093024214530408F460
:104C60003FC0209094023090950242185308209043
:104C70007003309071034214530490F12090740338
:104C80003090750323FE13C020901104309012045D
:104C900025FE02C061E02EC02224332430928B0214
:104CA00020928A0230928D0220928C0223C02090A2
:104CB00011043090120425FC08C02090110430909B
:104CC000120426FC02C061E015C022243324309275
:104CD0008B0220928A0230928D0220928C020AC0AE
:104CE0002224332430928B0220928A0230928D0249
:104CF00020928C026623C1F003DF4FD0A801CA01C5
:104D00008F719070E82E25E030E00E94D929C8010B
:104D10008F719070C82E2AE030E08A010E94D92954
:104D2000C8018F719070A82E2E2D01E00E94A6114F
:104D30002C2D02E00E94A6112A2D03E00E94A6114C
:104D40000C943A29209011043090120420FE24C0C3
:104D50000091010111270130E0E01E0749F0023007
:104D6000E0E01E0761F00330E0E01E0779F014C0B8
:104D700085E595E590938B0280938A020DC08AEABF
:104D80009AEA90938B0280938A0206C022243324ED
:104D900030928B0220928A0208950E945A298091B3
:104DA0007803909179038F30E0E09E0728F04091DE
:104DB0008A0250918B0270C180917803909179039F
:104DC0008E30E0E09E0769F440918A0250918B0298
:104DD0005F7120908A0230908B0235FE5DC1506475
:104DE0005BC180917803909179038D30E0E09E075C
:104DF00039F540918A0250918B02507060918A027D
:104E000070918B02672F77276F70707029E030E008
:104E10008B010E94C629402B512B2CE030E00091E1
:104E20008A0210918B020E94D929B80161707070BA
:104E30002EE030E08B010E94C629402B512B2CC163
:104E400080917803909179038C30E0E09E0709F01F
:104E500042C040918A0250918B024770507060911D
:104E60008A0270918B02769567957695679576950F
:104E700067956F7070701B01220C331C220C331C61
:104E8000220C331C220C331C4229532927E030E02A
:104E900000918A0210918B020E94D929B8016F708B
:104EA000707029E030E08B010E94C629402B512B05
:104EB0002BE030E000918A0210918B020E94D929E8
:104EC000B801617070702EE030E08B010E94C6293D
:104ED000402B512BE1C080917803909179038B3066
:104EE000E0E09E0709F042C040918A0250918B0297
:104EF0004770507060918A0270918B027695679529
:104F000076956795769567956F7070701B01220C8A
:104F1000331C220C331C220C331C220C331C422960
:104F2000532927E030E000918A0210918B020E9401
:104F3000D929B8016770707029E030E08B010E94B8
:104F4000C629402B512B2AE030E000918A021091B3
:104F50008B020E94D929B801617070702EE030E098
:104F60008B010E94C629402B512B96C0809178035B
:104F7000909179038A30E0E09E0709F042C04091A9
:104F80008A0250918B024770507060918A02709132
:104F90008B02769567957695679576956795677098
:104FA00070701B01220C331C220C331C220C331C8E
:104FB000220C331C4229532926E030E000918A025A
:104FC00010918B020E94D929B8016770707029E096
:104FD00030E08B010E94C629402B512B29E030E0A4
:104FE00000918A0210918B020E94D929B801617048
:104FF00070702EE030E08B010E94C629402B512BAF
:105000004BC080917803909179038930E0E09E074E
:1050100009F040C040918A0250918B024370507059
:1050200060918A0270918B02769567957695679567
:10503000677070701B01220C331C220C331C220C75
:10504000331C220C331C4229532925E030E0009107
:105050008A0210918B020E94D929B8016770707082
:1050600029E030E08B010E94C629402B512B29E01A
:1050700030E000918A0210918B020E94D929B80178
:10508000617070702EE030E08B010E94C629402BC9
:10509000512B02C0442755278A010C945F293A936B
:1050A0002A931A930A930895222321F015950795C0
:1050B0002A95FACF0895689401C0E894EA92FA928A
:1050C0008A93EE24FF2480E1000F111FEE1CFF1CC9
:1050D000E216F30618F0E21AF30A03958A95A1F78F
:1050E00016F40E2D1F2D8991F990E9900895E894FA
:1050F00001C0689430D0CC2409C0E89401C0689401
:105100002AD037FD0E948429B7FD52D07724882405
:105110009924AA24BB2442D0C1F045D0B1F0E8E2E2
:10512000000F111F221F331F771C881C991CAA1CFB
:10513000BB1C88169906AA06BB0628F0881A990A8D
:10514000AA0ABB0A0395EA9559F726F4082D192DEA
:105150002A2D3B2D13C07A928A929A92AA92BA92E1
:10516000CA92EA938A939A93AA93BA938B859C8561
:10517000AD85BE85C32E0EF0CB260895C7FC0E94D8
:105180008429B991A99199918991E991C990B9908E
:10519000A99099908990799024960895E02FE12B19
:1051A000E22BE32B0895E82FE92BEA2BEB2B089554
:1051B00080959095A095B0958F5F9F4FAF4FBF4F53
:1051C00008950A921A928A939A93029FC001129F9D
:1051D000900D039F900D8C019991899119900990E0
:1051E00008950E948D297A920E94A62959F1772468
:1051F0000E94AC2919F48C019D0124C00A921A92D4
:10520000089FB02CA12C289F902C812C189FA00CBB
:10521000911C871C099FA00C911C871C199F900C46
:10522000811C0A9F900C811C389F800C299F800C48
:105230001A9F800C0B9F800C199009900B2D1A2D32
:10524000292D382D79900C949B29A990B990C9905B
:10525000D9900895A990B990C990D990E990F99002
:105260000895A990B990C990D990E990F990499181
:1052700059910895A990B990C990D990E990F99061
:10528000499159916991799108957A936A935A93C2
:105290004A93FA92EA92DA92CA92BA92AA9208953C
:1052A0005A934A93BA92AA920895A990B9904991B3
:1052B000599108957A936A935A934A93089549911C
:1052C00059916991799108957A936A935A934A937F
:1052D000BA92AA920895A990B99049915991699169
:1052E000799108957A936A935A934A93DA92CA927B
:1052F000BA92AA920895A990B990C990D99049916B
:10530000599169917991089500951095209530955E
:105310000F5F1F4F2F4F3F4F08958A929A92AA9284
:10532000BA92EA938A939A93AA93BA9389859A85B3
:10533000AB85BC850895B991A99199918991E9911D
:10534000B990A9909990899024960895EE27E02B22
:10535000E12BE22BE32B0895EE27E82BE92BEA2B38
:10536000EB2B0895EA93FA930A92E02FF12FC89558
:10537000002D3196C895102D3196C895202D319667
:10538000C895302D0990F991E9910895222321F0D3
:10539000000F111F2A95FACF08950F92099000204F
:1053A00031F0000F111F221F331F0A94F8CF0F9006
:1053B0000895222321F0169507952A95FACF08958E
:1053C0000F920990002031F0369527951795079593
:1053D0000A94F8CF0F9008954A925A926A928A934B
:1053E0000E942E2A11F15520E2F08FE14816C0F4F8
:1053F00087E14816D1F058F4419489EE481A05C067
:1054000035952795179507954A94D1F70EC087E1F2
:10541000481A000F111F221F331F4A94D1F705C0ED
:105420003FE7232F132F032F04C0662011F00E94A3
:105430008429899169905990499008950FD029F055
:10544000662011F00E94842998940895002329F47D
:10545000112319F4222309F433230895F7DF99F077
:105460008A93632E80E86822220F331F432E8FE732
:10547000481A55248827580A269530E8232B3327C5
:105480008991989408954424552466240895DEDF74
:1054900009F40895AA93BA93D2019A938A938EE756
:1054A00090E0332349F03695279517950795A8176F
:1054B000B907CCF41196F5CF8095909501962223EB
:1054C000BAF0000F111F221FA817B90714F0119787
:1054D000F6CF0027112722273327899199912D0193
:1054E000B991A991089533270FEF102F2FE7322F8D
:1054F000899199912D0102C0AA93BA93A7DF49F02F
:10550000D201A158BF4F2D01342D220F369527957A
:105510003629B991A99108954A925A926A927A923B
:105520008A929A92AA92BA92CA92DA92EA92FA92DB
:105530008A939A93089599918991F990E990D990D5
:10554000C990B990A9909990899079906990599053
:1055500049900895FFFFFFFFFFFFFFFFFFFFFFFFE1
:10556000FFFFFFFFFFFFFFFFFFFFFFFFFFFFFFFF4B
:10557000FFFFFFFFFFFFFFFFFFFFFFFFFFFFFFFF3B
:10558000FFFFFFFFFFFFFFFFFFFFFFFFFFFFFFFF2B
:10559000FFFFFFFFFFFFFFFFFFFFFFFFFFFFFFFF1B
:107800000C94643CFFFFFFFFFFFFFFFFFFFFFFFF44
:10781000FFFFFFFFFFFFFFFFFFFFFFFFFFFFFFFF78
:10782000FFFFFFFFFFFFFFFFFFFFFFFFFFFFFFFF68
:10783000FFFFFFFFFFFFFFFFFFFFFFFFFFFFFFFF58
:107840000C946C3DFFFFFFFF0C94AD3DFFFFFFFF6D
:107850000C94F43DFFFFFFFFFFFFFFFFFFFFFFFF63
:10786000FFFFFFFFFFFFFFFFFFFFFFFFFFFFFFFF28
:10787000FFFFFFFFFFFFFFFFFFFFFFFFFFFFFFFF18
:10788000FFFFFFFFFFFFFFFFFFFFFFFFFFFFFFFF08
:10789000FFFFFFFFFFFFFFFFFFFFFFFFFFFFFFFFF8
:1078A000FFFFFFFFFFFFFFFFFFFFFFFFFFFFFFFFE8
:1078B000FFFFFFFFFFFFFFFFFFFFFFFFFFFFFFFFD8
:1078C000FFFFFFFFFFFFFFFF01E005BF02E005BF75
:1078D000CFEFD8E0CDBFDEBFCE51D0400AEA08835B
:1078E0000024E0E0F1E012E0EB30F10711F001924A
:1078F000FBCF0083E8ECF8E7A0E0B1E018E700E098
:107900000BBFE83CF10721F0C89531960D92F9CFF5
:107910000E94B83CFFCFF999FECF12BD01BD20BD3A
:10792000FA9AF99AF999FECF0895F999FECF12BD06
:1079300001BDF89A00B50895F89400270E948E3D85
:1079400081E085BF82E085BF26982E98399A419ABA
:107950000E94983D0E94833D222420926B00209239
:107960006C002DBA209269002092680078940895E6
:1079700000270E948E3D22242FBE0EEF10E00E94B1
:10798000953C602F0FEF10E00E94953C402F65352D
:1079900041F4083831F081E085BF222425BE0C94E3
:1079A0000000CADF2224209208022090080227FE4D
:1079B00005C00091070211270E94133D209080010D
:1079C000222029F02224209280010E94593EA8956D
:1079D000ECCF0895AA92BA92580127E030E08501D1
:1079E0000E94EB3E5801F50183E087BFE89527B67A
:1079F00020FCFDCF85E087BFE89527B620FCFDCFB2
:107A0000B990A9900895F801090181E087BFE89530
:107A100027B620FCFDCF089581E187BFE89527B602
:107A200020FCFDCF08950E94D93E580120E805E8CA
:107A300011E00E94183EA801209005023090060235
:107A40000215130521F081E08093080243C0E4DFB2
:107A500066270EC0262E3324220C331C85E891E0C5
:107A6000F101E80FF91F208131818101CCDF63959D
:107A7000603480F38501AEDFCFDF01C0CDDF27B6F4
:107A800026FCFCCF4427552727E030E085010E94E3
:107A9000EB3E580166270AC0F501C4902C2C332414
:107AA000420D531D6395C50101965C016038A0F33A
:107AB000409550954F5F5F4F209005023090060231
:107AC0004215530521F080E18093080203C022246F
:107AD000209208020C94E23E2A928A932FB62A92B0
:107AE00086E186BD20908201222029F0822D8150DE
:107AF0008093820103C022242092840129902FBE0A
:107B0000899129901895222425BC86E186BD24BC44
:107B100081E080936E0085E085BD0895A89584B7C7
:107B2000877F84BF88E180936000009360000895A0
:107B300022242092C1002092C00086E08093C200DF
:107B40008CE08093C4002092C50088ED8093C10032
:107B5000209284012092800108952A920A938A93A8
:107B60009A93EA93FA932FB62A920091C600209036
:107B70008401222019F40B3B09F02DC020908401D0
:107B8000222019F486E08093820180E491E0E09164
:107B90008401FF27E80FF91F0083809184018F5F24
:107BA00080938401809142018A5F2090840128168D
:107BB00091F485E491E0E0914201FF27E80FF91F7D
:107BC00080818C3C41F42224209282012092840105
:107BD00081E08093800129902FBEF991E9919991DC
:107BE00089910991299018952A923A928A939A93A9
:107BF000EA93FA932FB62A92809183018F5F809344
:107C0000830120908101382E821548F480E091E0B4
:107C1000E32DFF27E80FF91F20802092C60029904E
:107C20002FBEF991E99199918991399029901895F0
:107C30000E94C13E44275527AA2408C0F80120808D
:107C40003324420D531D0F5F1F4FA394A216B0F3B0
:107C5000409550958A010F5F1F4F0C94C63EAA9223
:107C6000BA92A02E8BEB809300018AE380930101EE
:107C700081E080930201A092030123E001E011E082
:107C8000D7DF58011501232C332420920401A09240
:107C900005018CEC8093060187E08093810122240A
:107CA00020928301209000012092C600B990A990F3
:107CB00008950E94CB3E809141018033B1F422248B
:107CC000209208022090430120920702A0904401D4
:107CD000BB24BA2CAA24209045013324A20CB31C47
:107CE000B0920602A09205024AC080914101813300
:107CF00058F184E320904101821530F1622D6153E7
:107D0000660F660F660F660F660F442713C0242E9A
:107D10003324E62FFF27E20DF31D85E891E0E80FFD
:107D2000F91F83E491E0A22DBB27A80FB91F2C9067
:107D300020824395403258F3809141018433F9F415
