:100000000C943F01FFFFFFFFFFFFFFFF0C9425064D
:100010000C942F060C9443060C944D06FFFFFFFF33
:10002000FFFFFFFFFFFFFFFFFFFFFFFFFFFFFFFFE0
:10003000FFFFFFFF0C947006FFFFFFFFFFFFFFFFB6
:10004000FFFFFFFFFFFFFFFF0C948007FFFFFFFF95
:100050000C94ED07FFFFFFFFFFFFFFFFFFFFFFFF18
:10006000FFFFFFFFFFFFFFFFFFFFFFFFFFFFFFFFA0
:10007000FFFFFFFFFFFFFFFFFFFFFFFFFFFFFFFF90
:10008000FFFFFFFFFFFFFFFFFFFFFFFFFFFFFFFF80
:10009000FFFFFFFFFFFFFFFFFFFFFFFFFFFFFFFF70
:1000A000FFFFFFFFFFFFFFFFFFFFFFFFFFFFFFFF60
:1000B000FFFFFFFFFFFFFFFFFFFFFFFFFFFFFFFF50
:1000C000FFFFFFFFFFFFFFFFFFFFFF7FFF5FFF5E01
:1000D000F75EF74E774E734E00000544474A4244A0
:1000E0000B4C482D4750313553303031470C3D0CC7
:1000F000320C270C1B0C0E0C010CF30BE50BD60B72
:10010000C60BB60BA40B930B800B6D0B580B440B5B
:100110002E0B180B000BE90AD00AB60A9C0A810ABA
:10012000650A490A2C0A0E0AEF09D009B00990099C
:100130006F094D092B090909E608C2089E087A08CB
:10014000560831080C08E707C1079C0777075107D5
:100150002C070607E106BC06970672064D0629061F
:100160000506E205BE059C0579055705360515050A
:10017000F404D404B504960477045A043C0420041F
:100180000404E803CD03B3039903800367034F031B
:10019000380321030B03F502E002CC02B802A402EB
:1001A00091027F026D025B024A023A022A021A029F
:1001B0000B02FC01EE01E001D201C501B901AC0165
:1001C000A00195018A017F0174016A016001560155
:1001D0004D0143013B0132012A0122011A011201A2
:1001E0000B010401FD00F600EF00E900E300DD0073
:1001F000D700D200CC00C700C200BD00B800B300D9
:10020000AF00AA00A600A2009E009A0096009200ED
:100210008F008B008800840081007E007B007800C6
:100220007500720070006D006A0068006500630070
:1002300061005F005C005A005800560054005200F4
:1002400051004F004D004B004A0048004600450059
:1002500043004200010204081020408000000745CE
:100260000000000000004A443232343438384A3149
:10027000423244346D0100000000000000FFCFEF67
:10028000D8E0CDBFDEBFC253D0400AEA08830024C5
:10029000EDE1F1E015E0EE30F10711F00192FBCF56
:1002A0000083E0E6F2E0A0E0B1E012E000E00BBF86
:1002B000ED37F10721F0C89531960D92F9CF0E94E4
:1002C000A904FFCF01C0A895F999FDCF12BD01BDCA
:1002D00020BDFA9AF99AF999FECF089501C0A89520
:1002E000F999FDCF12BD01BDF89A00B508950E949D
:1002F000E42AF89400271127F1DF0A3531F562E38B
:1003000074E044270AC0042F1127005F1F4FE6DF67
:10031000FB0100836F5F7F4F4395403CA0F300EFEC
:1003200010E0DCDFA02EBB24BA2CAA2401EF10E0E1
:10033000D5DFC02E4C2D242E33242501420C531C16
:100340005092DF024092DE0202C00E94241001E0BF
:1003500010E0C4DFC02E0A3509F073C060E273E01C
:1003600044270BC0042F1127085A1D4FB7DFC02E9A
:10037000FB01C0826F5F7F4F4395423598F344275E
:1003800028C080E293E0E42FFF27EE0FFF1FE80F65
:10039000F91FC080D18080E090EAA0E0B0E01601B3
:1003A0004424552482159305A405B5052CF0C101FC
:1003B0008039E1E09E0760F480E293E0E42FFF27BC
:1003C000EE0FFF1FE80FF91F80E090E1918380831B
:1003D00043954E31B0F280E090EAA0E0B0E020908A
:1003E0006C0330906D034424552482159305A405B5
:1003F000B5052CF0C1018039E1E09E0730F480E0C2
:1004000090E190936D0380936C0380E090EAA0E00C
:10041000B0E020906E0330906F0344245524821581
:100420009305A405B50534F0C1018039E1E09E07CC
:1004300008F039C080E090E190936F0380936E03E1
:1004400032C044270DC080E293E0E42FFF27EE0F77
:10045000FF1FE80FF91F80E090E1918380834395AF
:100460004E3188F344270DC08CE593E0E42FFF273D
:10047000EE0FFF1FE80FF91F222433243182208260
:100480004395483088F380E090E190936D0380932A
:100490006C0390936F0380936E0322243324309275
:1004A00071032092700302E010E018DFC02E0A35BD
:1004B00039F562EF74E044270BC0042F1127005E6A
:1004C0001C4F0CDFC02EFB01C0826F5F7F4F439536
:1004D000443098F384E293E05C0168EF72E04427D3
:1004E0000CC0242E33248501020D131DF7DEC02E0F
:1004F000FB01C0826F5F7F4F4395463190F302C08E
:100500000E945F0F78940C94ED2A0E94CC2A42E35B
:1005100054E0222700271127D5DE66270BC0A895B7
:10052000FA012081062F1127005F1F4FCBDE4F5F9E
:100530005F4F6395603C98F32AE500271127C2DEE0
:100540000C94D12A0E94CC2A40E253E0222701E0F9
:1005500010E0B8DE66270AC0FA012081062F1127B5
:10056000085A1D4FAFDE4F5F5F4F63956235A0F3B2
:100570002AE501E010E0A6DEA8950C94D12A0E949D
:10058000D62A222702E010E09DDE42EF54E06627E3
:100590000AC0FA012081062F1127005E1C4F92DE4F
:1005A0004F5F5F4F63956430A0F384E293E05C019A
:1005B00048EF52E066270BC0FA012081262E332433
:1005C0008501020D131D7EDE4F5F5F4F639566311F
:1005D00098F32AE502E010E075DE0C94DD2A4A93D8
:1005E00022270CEB12E06EDE209126010DEB12E0CB
:1005F00069DE44270DC08FE191E0E42FFF27E80F6B
:10060000F91F2081042F112702541D4F5BDE4395F3
:10061000463088F32AE50CEB12E054DE4991089548
:10062000AA924A930CEB12E059DE0A35C1F40DEBA5
:1006300012E054DE0093260144270EC0042F112738
:1006400002541D4F4BDEA02E8FE191E0E42FFF27D7
:10065000E80FF91FA0824395463080F303C081E084
:10066000809326014991A99008954A935A935698E8
:1006700002E00E94A00644275527579804E00E94F4
:10068000A0064F9908C01A014F5F5F4FC101843621
:10069000E0E09E0790F3569A02E00E94A006579A67
:1006A00002E00E94A0065991499108954A935A93F5
:1006B000569A02E00E94A00644275527579804E066
:1006C0000E94A0064F9908C01A014F5F5F4FC101F9
:1006D0008436E0E09E0790F3569802E00E94A00660
:1006E0005991499108950E94E42AA02E4427662733
:1006F0007727569802E00E94A006CC2419C0440F28
:1007000066277727579804E00E94A0064F9908C0F3
:100710001B016F5F7F4FC1018436E0E09E0790F3BD
:100720004E9B01C04160579A02E00E94A006C3940C
:100730008C2D883020F38A2D813011F4569A01C017
:10074000569802E00E94A00666277727579804E093
:100750000E94A0064F9908C01B016F5F7F4FC10127
:100760008436E0E09E0790F3579A02E00E94A006CC
:10077000569802E00E94A006042F0C94ED2A0E94D5
:10078000D62AA02E44271EC0A7FE02C0569801C03C
:10079000569A02E00E94A00666277727579804E041
:1007A0000E94A0064F9908C01B016F5F7F4FC101D7
:1007B0008436E0E09E0790F3AA0C579A02E00E946C
:1007C000A0064395483000F3569802E00E94A00628
:1007D00066277727579804E00E94A0064F9908C023
:1007E0001B016F5F7F4FC1018436E0E09E0790F3ED
:1007F0004E9902C0442701C041E0579A02E00E948E
:10080000A006042F0C94DD2A28988BB18F738BB926
:100810008AB18F738AB908950E94B72AE22E602F99
:10082000AA84CC84DD8421DF0AE00E94A006062F82
:10083000A6DF402F02E30E94A006442351F50E2DAF
:100840009EDF402F02E30E94A006442311F50DDF36
:1008500002E30E94A006062F016091DFE02E4E2DDC
:1008600002E30E94A006EE20A1F409C001E03BDFF4
:10087000E02EF601E1926F0102E30E94A0066A2DCC
:100880006150A62EAA2091F700272DDFA02EF60199
:10089000A08202E30E94A00609DF413011F4002784
:1008A00001C001E00C94AC2A0E94B72AE22E402F2E
:1008B000CA84AC84BD84D9DE0AE00E94A006042F5D
:1008C0005EDF402F02E30E94A0064423E1F40E2DD8
:1008D00056DF402F0023B9F4662777270FC002E3C5
:1008E0000E94A006FB01EA0DFB1D008148DFE02EFF
:1008F0004E2D013009F407C06F5F7F4F2C2C33243D
:100900006215730560F302E30E94A006CFDE41305A
:1009100011F4002701C001E00C94AC2A81E285B9F2
:1009200087E084B9222428B887B92BB88EEF8AB91A
:10093000089520906C0430906D0424FC01C008C020
:100940002090020130900301222011F4332001F0A5
:100950000895A89508EE13E00E94AD06F8940E9451
:10096000C40F78940EEF10E00E946E01053501F07F
:100970002224332430920A052092090581E08093D5
:1009800008058091F4048F5F8093F404209203059E
:100990002092FF04209201052092FC042092F90489
:1009A000419A88E08093FB04209227012092250140
:1009B000A89520902601222019F081E0809325013E
:1009C00017D00E945908209007052220C9F3A89546
:1009D0000E94BB060E9454140E94A0180E94F31BA0
:1009E0000E941B1D0E9414280E949904E1CF0895C3
:1009F000AA92BA92269782E02090FA04821530F4E7
:100A00002090F604222011F40E94680782E02090D2
:100A1000FA04821518F4529A5A9A02C0529A5A98B5
:100A20002090FA04222021F0222420921D0109C1E5
:100A300022242A8220922501F894A8952092C100B0
:100A4000209281002092F6042090FC042220A1F53F
:100A500020901D01222081F59E012E5F3F4F04E072
:100A60000E946F128A818F7E8A83282F04E00E9461
:100A7000D31202E010E00E94AD069E012E5F3F4FB0
:100A800005E00E946F128A818F7B8A83282F05E000
:100A90000E94D31208EE13E00E94AD0620E334E07A
:100AA00000270E946F12209030042220F1F0222DA6
:100AB00000270E94D31219C08091FC048130A9F450
:100AC0000E94040402E010E00E94AD069E012E5F29
:100AD0003F4F05E00E946F128A818F7B8A8380627C
:100AE0008A83282F05E00E94D31281E080931D01A4
:100AF000289A409838988BB18F738BB98AB18F73CD
:100B00008AB980E280936B0088E080936C0081E07A
:100B100080936D0087E0809368008BBB8BEE8093A1
:100B2000640000E60E949606789485E083BF88956D
:100B30000000000000000000222423BEA8950DE064
:100B40000E94960680E280936B0081E080936800AB
:100B500087E08BBB2224209264008091FC048230C9
:100B600061F52092FC040E94040420E334E0002795
:100B70000E946F122090300427FE18C0CE01039609
:100B80009983888322E002E30E949612AB80BB2403
:100B9000BA2CAA242C803324A20CB31C85010E94F9
:100BA000AB162091300400270E94D31280913004AC
:100BB000837019F08AE08093FA04209086033090C5
:100BC000870321FE03C022242092F90486E42090AA
:100BD000F904821518F482E08093FA042090FA0454
:100BE000222061F1F89422242092FC042092F9043E
:100BF0000E945E060E94040482E02090FA0482159E
:100C000010F40E94680778949E012E5F3F4F04E025
:100C10000E946F128A8180618A83282F04E00E94DB
:100C2000D3129E012E5F3F4F05E00E946F128A8112
:100C300080648A83282F05E00E94D3122224209208
:100C400007052696B990A99008958A938FB78A933D
:100C50008AE08093FA0489918FBF899118952A922E
:100C60008A932FB62A922090FC04222021F48AE055
:100C70008093FA0403C082E08093FC0429902FBE85
:100C80008991299018958A938FB78A938AE08093E7
:100C9000FA0489918FBF899118958A939A938FB797
:100CA0008A9381E08093FC048091F9048F5F8093A4
:100CB000F90489918FBF99918991189522242092E6
:100CC00081008CEF8093850083EF809384002092D5
:100CD000800081E080936F0085E08093810008951B
:100CE0002A928A932FB62A928CEF8093850083EF05
:100CF0008093840081E08093070520908A0222205F
:100D000081F0822D815080938A02813051F4222417
:100D100020928A0220908C02222019F02224209214
:100D20008C0229902FBE899129901895A89584B797
:100D3000877F84BF88E180936000009360000895FE
:100D40004A9307C0442702C0A89543954430E0F376
:100D50000A950023B9F7499108954A935A93A80137
:100D600004C004E6EDDF4150504040304507C9F76C
:100D70005991499108950E94CC2A22242092070576
:100D8000209000013324822D8F5F80930001822DFB
:100D90008A3008F49BC0222420920001209006058E
:100DA000222011F40E94FA124EE053E066270AC096
:100DB000FA012080222019F08081815080834F5FCA
:100DC0005F4F63956231A0F32090FA04222029F04E
:100DD0008091FA0481508093FA0480910E0381304F
:100DE00011F40E945D112090F0023090F1024090C9
:100DF000E0025090E1024214530490F080E08093AE
:100E0000E2028093E3028093E4028093E5022224CD
:100E100033243092E1022092E00281E080930405C5
:100E20002090FD04222021F0822D81508093FD042A
:100E300020901E03222049F48091090590910A0513
:100E40008E7F90930A058093090580910B058C5F36
:100E500080930B0520907E0330907F0326FE09C00F
:100E60002090FA04222029F080910C058F5F809356
:100E70000C052090020130900301222011F4332050
:100E800049F0809102019091030101979093030131
:100E9000809302012090FB04222021F0822D8150BA
:100EA0008093FB0420901E01222029F0822D815086
:100EB00080931E010BC020902601222039F420903F
:100EC0002501222019F02224209225010C94D12AF8
:100ED00022242092C1002092C00086E08093C200AC
:100EE00083E38093C4002092C50088ED8093C10005
:100EF00020928C022092890281E08093F60408956A
:100F00002A920A938A939A93EA93FA932FB62A9293
:100F10000091C6008AE08093FA0485E08093F8048B
:100F20008AE080931E0120908C02222019F40D3D4E
:100F300009F04AC020908C02222019F484E08093AA
:100F40008A0282EF91E0E0918C02FF27E80FF91FFF
:100F5000008380918C02863920F48F5F80938C020D
:100F600007C0222420928C0220928A022092F20151
:100F70008091F2018D3D41F580918C02823059F4CF
:100F80008091F3018A3539F0853A29F022242092A4
:100F90008A0220928C028091F501895F20908C0258
:100FA000281691F488EF91E0E091F501FF27E80F12
:100FB000F91F8081873741F481E0809389022224E0
:100FC00020928A0220928C0229902FBEF991E991F9
:100FD000999189910991299018952A923A928A9328
:100FE0009A93EA93FA932FB62A9280918B028F5F9D
:100FF00080938B0220908802382E821548F48AE272
:1010000091E0E32DFF27E80FF91F20802092C60012
:1010100029902FBEF991E991999189913990299060
:1010200018950E94C22A44275527AA2408C0F8010F
:1010300020803324420D531D0F5F1F4FA394A2162F
:10104000B0F3409550958A010F5F1F4F0C94C72A4B
:10105000AA92BA92A02E8DED80932A012090F401DD
:1010600020922B0180E880932C01AA2019F02224E1
:1010700020922C01222420922D0122E00CE211E08A
:10108000D0DF58011501232C332420922E01A09289
:101090002F0187E78093300187E080938802222424
:1010A00020928B0220902A012092C600B990A9902C
:1010B00008950E94E42A20908902222009F4B3C1F5
:1010C000809189028230C1F40E94A80E22242092CD
:1010D0008902CC24DD240AC082EF91E0F601E80FFA
:1010E000F91F22242082C60101966C01C6018A30B4
:1010F000E0E09E0788F397C180918902813009F072
:1011000092C12224209289022091F5012E5F04EFE2
:1011100011E087DF580186EF91E0E091F501FF27AC
:10112000E80FF91FC080DD24DC2CCC2487EF91E090
:10113000E091F501FF27E80FF91F20803324C20C4E
:10114000D31C0C151D0519F0002782DF6CC180919E
:10115000F301853A29F58091F401833028F086E087
:101160002090F401821520F48091F4018A3A11F460
:101170005CD159C18091F401803108F454C18DEAE9
:101180002090F401821508F44EC12090090530909A
:101190000A0520FE02C09AD246C1002759DF43C18A
:1011A0008091F3018A3509F03CC12090F40122209E
:1011B00049F58091F501823029F5A090F601BB2414
:1011C000BA2CAA242090F7013324A20CB31CC50129
:1011D0008837E6E59E0799F420902501222079F0D2
:1011E00001E036DF8091090590910A0581609093B6
:1011F0000A058093090588E780931E0314C1002720
:1012000027DF11C18091F401813099F58091F501BA
:10121000823079F5A090F601BB24BA2CAA24209044
:10122000F7013324A20CB31C01E012DF8091090501
:1012300090910A058E7F90930A05809309052224D8
:101240003324309283032092820320921E03C5012F
:101250008832E8E29E0709F0E6C0209001052220CE
:1012600021F481E080930305DEC082E080930105D4
:10127000DAC08091F4018230F1F4A090F601BB2431
:10128000BA2CAA242090F7013324A20CB31CC50168
:101290008433E2E19E0779F4F89422270EEF10E000
:1012A0000E94620128E80FEF10E00E94620108E04E
:1012B0000E949606FFCF8091F401863038F089E0D5
:1012C0002090F401821510F072D4ADC08091F40129
:1012D000803190F08BEA2090F401821568F0209024
:1012E000090530900A0520FE04C0D7D201E0B0DE27
:1012F0009AC00027ADDE97C08091F4018D3A90F03E
:101300008FED2090F401821568F02090090530904F
:101310000A0520FE04C050D301E09ADE84C00027F5
:1013200097DE81C08091F401803EB9F58091F5018E
:10133000823099F5A090F601BB24BA2CAA24209003
:10134000F7013324A20CB31C150144245524309218
:10135000E7022092E6025092E9024092E8023092BF
:10136000F3022092F20240E458E360E070E05A9207
:101370004A923A922A928A019B010E94632A109310
:10138000E7020093E6023093E9022093E80281E04D
:101390008093080501E05CDE46C08091F401813E47
:1013A00031F58091F501823011F520902501222040
:1013B000D9F0A090F601BB24BA2CAA242090F70102
:1013C0003324A20CB31CB0928903A09288032AE5AF
:1013D00000E713E00E9462012A2D01E713E00E945A
:1013E000620101E035DE1FC0002732DE1CC08091A3
:1013F000F401823E99F48091F501823079F4A09055
:10140000F601BB24BA2CAA242090F7013324A20CA5
:10141000B31CA092010101E01BDE05C0002718DE0D
:1014200002C0002715DE0C94ED2A0E94D62A4AE25B
:1014300051E08DEDFA0181932090F4012192222454
:101440002192AF012090F401222009F43DC1809146
:10145000F401833009F0A7C080912E04880F895EC3
:10146000FA0181932090740330907503232C332468
:10147000219220907403309075032192209076037E
:1014800030907703232C33242192209076033090E0
:101490007703219220907C0330907D03232C33240A
:1014A000219220907C0330907D0321922090320481
:1014B00030903304232C3324219220903204309036
:1014C000330421922090400430904104232C332493
:1014D00021922090400430904104219220903C04BD
:1014E00030903D04232C3324219220903C043090F2
:1014F0003D0421922090820330908303232C3324D7
:1015000021922090820330908303219220908403C3
:1015100030908503232C3324219220908403309033
:10152000850321922090860330908703232C332457
:1015300021922090860330908703219280E281934C
:1015400020907A0330907B03219220902F042192E7
:101550002090700430907104219220902E042192EA
:10156000AF0166271BC08EED93E0E62FFF27EE0F3D
:10157000FF1FE80FF91F20803180232C3324FA014C
:101580002192AF01E62FFF27EE0FFF1FE80FF91F93
:1015900020803180FA012192AF01639520902E04C2
:1015A000621508F372C08091F401843009F030C0F4
:1015B0002090700430907104220C331CFA012192A7
:1015C000AF0166271BC082EF93E0E62FFF27EE0FE7
:1015D000FF1FE80FF91F20803180232C3324FA01EC
:1015E0002192AF01E62FFF27EE0FFF1FE80FF91F33
:1015F00020803180FA012192AF0163952090700420
:1016000030907104462E552442145304E0F23DC03C
:101610008091F4018530B9F42090B204FA0121924E
:10162000AF0166270BC083EB94E0E62FFF27E80F9E
:10163000F91F2080FA012192AF0163952090B20436
:10164000621588F322C08091F4018A3A09F03CC007
:1016500086E1FA018193AF0188EF92E05C01662791
:1016600012C0F50120803180232C3324FA0121920D
:10167000AF01F50120803180FA012192AF01C5014F
:1016800002965C0163956B3060F320912D012E5F13
:101690000CE211E0C6DC58011501232C3324FA01B9
:1016A0002192A192AF0187E78083222420928B02AE
:1016B00080912D01895F8093880220902A012092D9
:1016C000C60022242092F4010C94DD2A0E94E42A10
:1016D0004AE251E08DEDFA0181932090F4012192CC
:1016E00022242192AF018091F4018833F0F482E347
:1016F00094E0E091F401FF2770975F01AA0CBB1CF6
:10170000A80EB91E82E0FA018193AF01F501208095
:101710003180232C3324FA012192AF01F50120807E
:101720003180FA012192AF019AC08091F401803496
:10173000C8F482E894E0E091F401FF27F8976F0184
:10174000CC0CDD1CC80ED91E82E0FA018193AF01DA
:10175000F601DA0101906F010D922080FD012192C6
:10176000AF017DC08091F401803AC9F48091920468
:101770008F5FFA018193AF0166270BC082E994E085
:10178000E62FFF27E80FF91F2080FA012192AF0111
:101790006395809192048F5F681780F360C0809199
:1017A000F401813AC9F48091B2048F5FFA01819308
:1017B000AF0166270BC082EB94E0E62FFF27E80F0E
:1017C000F91F2080FA012192AF0163958091B20444
:1017D0008F5F681780F343C08091F401823AC9F4A7
:1017E0008091D2048F5FFA018193AF0166270BC00D
:1017F00082ED94E0E62FFF27E80FF91F2080FA0121
:101800002192AF0163958091D2048F5F681780F3B6
:1018100026C08091F4018A3A09F01EC086E1FA01DF
:101820008193AF0188EF92E05C01662712C0F50159
:1018300020803180232C3324FA012192AF01F5015D
:1018400020803180FA012192AF01C50102965C012E
:1018500063956B3060F303C00027FADB1CC0209156
:101860002D012E5F0CE211E0DCDB58011501232C69
:101870003324FA012192A192AF0187E780832224C9
:1018800020928B0280912D01895F809388022090A5
:101890002A012092C6000C94ED2AAA92BA9226EF51
:1018A00031E08091F4018833E0F4843209F4A895A2
:1018B00082E394E0E091F401FF2770975F01AA0CA6
:1018C000BB1CA80EB91E0091F6011127102F00278E
:1018D0002090F7013324020D131DF50111830083BD
:1018E00068C08091F4018034A0F482E894E0009113
:1018F000F401112708531040000F111F080F191F82
:101900002090F601F80121922090F70121928F0199
:1019100050C08091F401803AB9F4F90120802092FE
:10192000920400270BC082E994E0E02FFF27E80F24
:10193000F91FD9012D909D01208203958091920479
:101940008F5F081780F335C08091F401813AB9F4B4
:10195000F90120802092B20400270BC082EB94E0B2
:10196000E02FFF27E80FF91FD9012D909D0120825C
:1019700003958091B2048F5F081780F31AC080919D
:10198000F401823AB1F4F90120802092D2040027B8
:101990000BC082ED94E0E02FFF27E80FF91FD9017B
:1019A0002D909D01208203958091D2048F5F0817AE
:1019B00080F3B990A99008950E94E42AA090F601BE
:1019C000BB24BA2CAA242090F7013324A20CB31C08
:1019D00081E0809301058091F4018D3A99F4209083
:1019E000CC033090CD03309271032092700380E0DD
:1019F00090E190936F0380936E0390936D038093B7
:101A00006C03D3C08091F4018E3A09F03EC020905F
:101A1000700330907103C090CC03D090CD03C218F6
:101A2000D30815014424552440E050E160E070E003
:101A30005A924A923A922A928A019B010E94632A00
:101A40001601442455245A924A923A922A920E94AC
:101A5000E92910936D0300936C0340E050EA60E0C5
:101A600070E018014424552442155305640575059A
:101A70002CF00039E1E01E0708F097C080E090E10B
:101A800090936D0380936C0390C08091F4018F3A22
:101A900009F043C02090700330907103C090CC03D4
:101AA000D090CD03C218D308C601809590950196B9
:101AB0006C0115014424552440E050E160E070E0E1
:101AC0005A924A923A922A928A019B010E94632A70
:101AD0001601442455245A924A923A922A920E941C
:101AE000E92910936F0300936E0340E050EA60E031
:101AF00070E018014424552442155305640575050A
:101B00002CF00039E1E01E0708F04FC080E090E1C2
:101B100090936F0380936E0348C08091F401803BE3
:101B2000A0F08FEC2090F401821578F0822D992797
:101B3000805B90406C018031E0E09E0708F035C08A
:101B40009501082F0E942A1830C08091F401803D31
:101B500060F18FED2090F401821538F1822D9927E4
:101B6000805D90406C018830E0E09E07F0F41C013D
:101B7000220C331C31018CE593E0F101E80FF91FD1
:101B8000208031802501420C531C8EED93E0F3013F
:101B9000E80FF91F20803180421853088CE593E04C
:101BA000F301E80FF91F518240820C94ED2AAA92AA
:101BB0004A9321978091F401863031F58091F501A7
:101BC000873019F0002744DA92C0809126018130D5
:101BD00031F481E08093250101E03ADA88C086E0A3
:101BE000888327EF31E00FE111E085D0002331F049
:101BF00081E08093250101E02BDA79C0002728DA03
:101C000022242092250173C08091F401873009F0CD
:101C10004FC08091F5018D3019F0002719DA67C0A7
:101C2000809126018130E1F444270FC08DEF91E0CF
:101C3000E42FFF27E80FF91F20808FE191E0E42FC8
:101C4000FF27E80FF91F20824395463078F381E0A3
:101C50008093270101E0FCD922242092260147C06D
:101C600086E0888327EF31E00FE111E044D00023C4
:101C7000E1F022242092260181E08093270144276D
:101C80000FC08DEF91E0E42FFF27E80FF91F2080B0
:101C90008FE191E0E42FFF27E80FF91F20824395A1
:101CA000463078F301E0D4D922C00027D1D91FC033
:101CB0008091F401883009F41AC08091F4018930D0
:101CC000B1F486E0888327EF31E00EE011E013D015
:101CD000A02E002351F081E08093260180932501FE
:101CE0008093270101E0B4D902C00027B1D9219621
:101CF0004991A9900895AA92CA92CA80AA240FC0B5
:101D0000EA2DFF27E20FF31F2080EA2DFF27E00FC7
:101D1000F11F3080321411F0002704C0A394AC14DA
:101D200078F301E0C990A99008950E94BD2AAA24E1
:101D3000BB24CC2408C0F80120803324A20CB31C9F
:101D40000F5F1F4FC394C216B0F385010C94972AFE
:101D50000E94E42AAA24A3942091F5012D5F03EFA9
:101D600011E0E3DF680187EF91E0E091F501FF27E3
:101D7000E80FF91F60817727762F662786EF91E0BD
:101D8000E091F501FF27E80FF91F20803324620D51
:101D9000731D0617170709F090C04AE251E08AE365
:101DA000FA0181932090F30121922090F401219275
:101DB000AF01C090F401DD24C6018830E0E09E0749
:101DC000B1F08A30E0E09E0709F425C08B30E0E0F6
:101DD0009E0709F432C08830E0E09E070CF449C049
:101DE000C6018038E0E09E0709F431C042C084E0BB
:101DF000FA0181936091EE037091EF03CB01907033
:101E00008193CB01892F992790708193222421926D
:101E10002192AF012FC081E0FA018193AF012090A0
:101E2000090530900A0525FE03C08193AF0122C049
:101E30002224FA012192AF011DC081E0FA018193B1
:101E400020907A0330907B032192AF0113C081E090
:101E5000FA018193AF01209086033090870334FE0E
:101E600003C08193AF0106C02224FA012192AF0181
:101E700001C0AA24AA2009F120912D012D5F0BE2B7
:101E800011E053DFB801CB019070FA018193CB01CF
:101E9000892F9927907081938DE08193AF018AE01B
:101EA0008083222420928B0280912D01885F809371
:101EB000880220902A012092C6000C94ED2A222448
:101EC0002092F2042092F3042092F4042092F5046C
:101ED00008EF12E0222707C022243324F8012192C0
:101EE00031928F0123952B30B8F381E08093020566
:101EF000089520908D042092130320908C0420924A
:101F0000120320908B042092100320908A042092C8
:101F100011032090870420921403209086042092BD
:101F200015032090890420921603209217030C9425
:101F3000BF134A93DEDF8EE18093FA0480EC90E0D9
:101F400090937F0380937E0344270DC082EF93E03C
:101F5000E42FFF27EE0FFF1FE80FF91F80E19EE03F
:101F60009183808343954F3088F380E19EE0909386
:101F70008B0380938A0390938B0380938A0383E07F
:101F800080930E03499108950DE00E9496060E94E9
:101F90008E040E945E060E9404040E9468072224A8
:101FA00025BE20926E002092700020926C0020923C
:101FB0006D002DBA2092690080E280936B0081E071
:101FC000809368008BBB2092640078940E94FA1280
:101FD0000E947701AEDF2090DE023090DF02309267
:101FE000EB022092EA0220907C0330907D03309235
:101FF000F3022092F20220903404309035043092A3
:10200000F1022092F002209032043090330430929A
:10201000EF022092EE0200E713E00E946E010A3503
:1020200039F02224332430928903209288030AC095
:1020300001E713E00E946E01202E332430928903C1
:10204000209288030C94100388EE93E09093DF02B3
:102050008093DE02909333048093320480E2909365
:1020600035048093340486E390E1909337048093A1
:10207000360488EB9BE0909339048093380482E027
:1020800090E090933B0480933A0488E690E290932A
:102090003D0480933C042224332430923F04209258
:1020A0003E04309241042092400483E09DE09093EE
:1020B0004304809342048FE99CE09093450480930D
:1020C00044048BEA9AE0909347048093460489E79E
:1020D000909349048093480485E39DE090934B04DA
:1020E00080934A0481ED9CE090934D0480934C04CE
:1020F0008DED9AE090934F0480934E048BEA909379
:1021000051048093500480E099E1909353048093AC
:10211000520480E797E1909355048093540488E635
:1021200090E1909357048093560484E991E1909351
:102130005904809358048AE990E190935B0480935A
:102140005A0486E390935D0480935C048CE89AE0E3
:1021500090935F0480935E0480EF9093610480937A
:10216000600480ED97E0909363048093620488E4B8
:1021700094EF909365048093640480E19EE09093D3
:1021800067048093660482E390E0909369048093EF
:1021900068048CEC90E190937F0480937E0484EC3F
:1021A00099E090938104809380048FEB8093820464
:1021B0008FE78093830480EF8093840480E2809390
:1021C000850484E08093860485E08093870480936F
:1021D00088048093890480938A0480938B0480937D
:1021E0008C0480938D0480938E048FE080938F0401
:1021F00085E08093900480E28093910484E190E0F4
:1022000090936B0480936A0482E090936D048093B2
:102210006C0483E090936F0480936E048FE090933E
:102220007104809370048EE1909373048093720420
:10223000909375048093740480EA9FE090937704F0
:102240008093760488ED9EE09093790480937804DF
:1022500080E190937B0480937A0484EE9CE09093D9
:102260007D0480937C0400270FC08AED90E0E02F6E
:10227000FF27E80FF91F249082E994E0E02FFF2761
:10228000E80FF91F20820395063078F300270FC06E
:1022900080EE90E0E02FFF27E80FF91F249082EBFB
:1022A00094E0E02FFF27E80FF91F208203950C3000
:1022B00078F322242092D20408950E94B72A6097CE
:1022C0002090740330907503442455242C863D8659
:1022D0004E865F862C843D844E845F844AE050E0C5
:1022E00060E070E05A924A923A922A928A019B01E7
:1022F0000E94632A0C871D872E873F8720907004D9
:10230000309071043324442455240C851D852E857A
:102310003F855A924A923A922A920E94E92968018C
:102320002090360430903704398228822090760439
:10233000309077043B822A82209078043090790490
:102340003D822C8220907A0430907B043F822E8242
:1023500020907C0430907D043986288620903804B3
:10236000309039043B862A862090EE023090EF02AE
:10237000442455242C863D864E865F86EE240EC06E
:10238000CE01EE2DFF27EE0FFF1FE80FF91F208073
:1023900031802C143D0408F404C0E3948E2D853064
:1023A00078F304E11E2D010384E6A82EA018153051
:1023B00009F433C0CE01EE2DFF27EE0FFF1FE80F0B
:1023C000F91F60807180CE01EE2DFF273197EE0F4F
:1023D000FF1FE80FF91F208031802618370844249A
:1023E000552488249924C601AA27BB278619970952
:1023F000A809B90944E150E060E070E0BA93AA93FB
:102400009A938A938A019B010E94632A5A924A9264
:102410003A922A920E94E929A00E2A2C33244424BD
:1024200055240C851D852E853F855A924A923A92F5
:102430002A920E94632A44E650E060E070E07A93BA
:102440006A935A934A930E94E9290C871D872E8725
:102450003F872C843D844E845F8440E458E360E0F1
:1024600070E05A924A923A922A928A019B010E9403
:10247000632A1093E7020093E6023093E902209367
:10248000E8022C843D843092F3022092F20280E034
:102490008093E2028093E3028093E4028093E5025A
:1024A000222433243092E1022092E00281E08093E2
:1024B000080560960C94AC2A4A9348E0022707FD71
:1024C00002C0000F05C087E0202E220C2826022D16
:1024D000842F8150482F882391F7499108950E94B5
:1024E000BB2A5901C02E2697CE0104969B838A836E
:1024F00082E088832C2D00E10E940C04002391F0DF
:10250000CC2421E10C2DD8DF2C81D6DFE02ECE2C7F
:102510002D80021511F0002706C02C80F5012082C5
:1025200001E001C0002726960C949C2A0E94B92A3B
:10253000E22EA02EEF972197FE01E85BFF4FC080AF
:10254000D180CE0104969B838A832E2C220C288274
:102550002A2D00E10E940C04002301F1AA2421E1AC
:102560000A2DAADF2C81A8DF402FA42E2D80021572
:1025700011F0002714C0AA240DC0CE010496EA2D44
:10258000FF27EE0FFF1FE80FF91F2080F6012192B1
:102590006F01A394AE1488F301E001C00027EF9609
:1025A00021960C94A32AAA92CA92C22EA02E2697F4
:1025B000CC8222242D8220E1022D7EDF0D832A2D64
:1025C0007BDF0D832C2D78DFC02ECD82CE010496CB
:1025D0009B838A8382E088832A2D00E10E94540431
:1025E000A02E002311F4002701C001E02696C99017
:1025F000A9900895AA92BA9221973A9A429808EE21
:1026000013E00E94AD063A9A429A08EE13E00E9447
:10261000AD06409A08EE13E00E94AD064098389847
:102620000E9404049E0100275ADF002321F4222483
:102630002092060540C081E08093060529E10BE069
:10264000B2DF04E10E94A00620E334E0002747DF68
:1026500020903004222019F0222D0027A4DF28E149
:1026600004E0A1DF23E405E09EDF9E0109E537DFFA
:1026700025E030E008811127007E10700E94C629F5
:1026800058019E0100E52BDF88818C708883282EFD
:10269000220C28823324A20CB31C822D9927835943
:1026A0009E4F909315018093140126E131E001E5DE
:1026B00016DF65D0A8952196B990A99008950E943B
:1026C000D62A580124972090160127FE0EC03324E5
:1026D000C5018219930980509F4F1C014424552441
:1026E000288239824A825B820DC0209016013324F1
:1026F00025014218530812014424552428823982A6
:102700004A825B82288039804A805B8048EE53E0B1
:1027100060E070E05A924A923A922A928A019B01B2
:102720000E94632A088319832A833B832090140123
:102730003090150144245524088119812A813B8158
:102740005A924A923A922A920E94E929088319835E
:102750002A833B8384E090E0088119812A813B81B0
:102760008A930E94522B088319832A833B832880F3
:1027700039804A805B80022D24960C94DD2AAA922F
:102780002091820406E00FDF2091830407E00BDF35
:102790002091840408E007DF00917E0410917F04FB
:1027A0008EDFA02E2A2D09E0FEDE0091800410911C
:1027B000810485DFA02E2A2D0AE0F5DE222701E024
:1027C000F2DE222702E0EFDE222703E0ECDEA99012
:1027D0000895AA9221979E0106E081DE209082044E
:1027E0003880321459F080913E0490913F04019654
:1027F00090933F0480933E04C2DF53C09E0107E0E4
:102800006EDE209083043880321459F0B8DF809156
:102810003E0490913F04019690933F0480933E04C0
:1028200040C09E0108E05BDE2090840438803214B2
:1028300059F0A5DF80913E0490913F04019690935A
:102840003F0480933E042DC000917E0410917F04CC
:1028500036DFA02E9E0109E042DE28802A1459F0BE
:102860008EDF80913E0490913F04019690933F0447
:1028700080933E0416C000918004109181041FDFF4
:10288000A02E9E010AE02BDE28802A1451F077DF6B
:1028900080913E0490913F04019690933F04809371
:1028A0003E042196A99008950E94B72AAF978FE021
:1028B0008EA78EE120901701821528F52224209200
:1028C00006052092170180918603909187039860F6
:1028D0009093870380938603EE2412C082EF93E0E7
:1028E000EE2DFF27EE0FFF1FE80FF91F84E690E0A3
:1028F0009183808386E99093750380937403E394B6
:102900000EA4E01458F320900605222031F48091A3
:1029100017018F5F80931701BEC120E334E00027C9
:10292000DEDD002331F4809117018F5F8093170162
:10293000B2C1809117018F5F8093170180E190E011
:1029400020907004309071048215930588F0E0E1C6
:10295000F0E0E219F309EE0FFF1F88EC90E0E80FBA
:10296000F91F25903490309229012092280106C049
:102970008FEF9FEF909329018093280120903004DE
:1029800027FE89C126DF22242092170181E080934F
:10299000FF048091860390918703977F909387032C
:1029A00080938603CE0106969983888322E002E312
:1029B000BDDDCE80DD24DC2CCC242F803324C20C62
:1029C000D31C8601C8D1CE010696998388832EA593
:1029D000220F0CE0ABDDAA24EE247BC02E2D332782
:1029E00001E010E00E94382B20902801309029014E
:1029F00020223122222019F4332009F469C0CE01AB
:102A00000696EE2DFF27EE0FFF1FE80FF91FC0807F
:102A1000DD24DC2CCC24CE010796EE2DFF27EE0F13
:102A2000FF1FE80FF91F20803324C20CD31C1601AE
:102A3000442455242A823B824C825D8220901401DA
:102A400030901501442455240A811B812C813D813D
:102A50005A924A923A922A920E94632A0A831B83CC
:102A60002C833D8348EE53E060E070E00A811B81D7
:102A70002C813D817A936A935A934A930E94E92963
:102A80000A831B832C833D83CA80DB802090160140
:102A900033242601420C531C80E993E0EA2DFF27E2
:102AA000EE0FFF1FE80FF91F5182408220901601A0
:102AB00027FE0DC02A2C3324220C331C280E391E6D
:102AC000F101808191818050914091838083A39412
:102AD000E3940EA4E01408F481CFCE010696998306
:102AE000888324E00EE222DDAA24EE2484C0CE01F5
:102AF0000696EE2DFF27EE0FFF1FE80FF91FC0808F
:102B0000DD24DC2CCC24CE010796EE2DFF27EE0F22
:102B1000FF1FE80FF91F20803324C20CD31C1601BD
:102B2000442455242A823B824C825D822A803B8049
:102B30004C805D804EE751E060E070E05A924A922E
:102B40003A922A928A019B010E94632A0A831B837C
:102B50002C833D8348EE53E060E070E00A811B81E6
:102B60002C813D817A936A935A934A930E94E92972
:102B70000A831B832C833D83CA80DB8086018ED031
:102B800068018EEC93E0EE2DFF27EE0FFF1FE80F9C
:102B9000F91FD182C0822E2D332701E010E00E9460
:102BA000382B20906E0430906F0420223122222096
:102BB00011F43320F9F0CA2CDD24CC0CDD1C8CE59B
:102BC00093E0F601E80FF91F208031808EEC93E04E
:102BD000EE2DFF27EE0FFF1FE80FF91F40805180F9
:102BE000420C531C8EED93E0F601E80FF91F518261
:102BF0004082A394E3948E2D823008F478CFA09283
:102C00002E04C090DE03D090DF03AA2019F485EAD9
:102C10009BE06C015601EE242BC08EED93E0EE2D6F
:102C2000FF27EE0FFF1FE80FF91F208031802A14C5
:102C30003B0440F4EE2DFF27EE0FFF1FE80FF91FB6
:102C4000A080B1808EED93E0EE2DFF27EE0FFF1FE9
:102C5000E80FF91F20803180C214D30440F4EE2D18
:102C6000FF27EE0FFF1FE80FF91FC080D180E3940C
:102C700020902E04E21488F2D092EF03C092EE036B
:102C8000B092F103A092F0032091300400278BDC76
:102C900081E080930505AF960C94AC2A0E94D62A59
:102CA000A8014634ECE05E0718F00FE719E051C0C8
:102CB00082E490E08417950718F007E810E149C016
:102CC000AA240FC08CEE90E0EA2DFF27EE0FFF1F25
:102CD000E80FF91F259034902416350608F404C037
:102CE000A3948A2D843B70F38CEE90E0EA2DFF27AD
:102CF000EE0FFF1FE80FF91F25903490421953097A
:102D0000EA2DFF27EE0FFF1FE80FF91F25903490E3
:102D1000EA2DFF273197EE0FFF1FE80FF91F65918E
:102D20007491621973090AE010E09A010E94532A13
:102D30009B010E94CF29A8016A2D77270AE010E0A5
:102D40009B010E94532AB8016158764F8B01040FF2
:102D5000151F0C94DD2A0E94E42A68012497AA24F6
:102D6000D7FE07C0C094D094C60101966C01AA2476
:102D7000A394160144245524288239824A825B8216
:102D8000288039804A805B804CE453E060E070E04A
:102D90005A924A923A922A928A019B010E94632A8D
:102DA000088319832A833B8344E650E060E070E0A7
:102DB000088119812A813B817A936A935A934A93B5
:102DC0000E94E929088319832A833B8320906A049F
:102DD00030906B0444245524088119812A813B8159
:102DE0005A924A923A922A920E94E92908831983B8
:102DF0002A833B83288039803092CD032092CC03F4
:102E0000AA2041F0C1018095909501969093CD0341
:102E10008093CC03209070033090710337FE34C050
:102E2000C1018095909501966C01AA20E9F01C01E2
:102E300044245524688079808A809B802614370436
:102E40004804590458F4442455246218730884082B
:102E50009508688279828A829B824AC080E0888352
:102E600089838A838B8344C0160144245524688057
:102E700079808A809B80620C731C841C951C6882FC
:102E800079828A829B8234C0AA2099F020907003B4
:102E90003090710344245524688079808A809B8017
:102EA000620C731C841C951C688279828A829B82C6
:102EB0001FC0209070033090710344245524688013
:102EC00079808A809B80261437044804590458F47A
:102ED000442455246218730884089508688279820E
:102EE0008A829B8205C080E0888389838A838B8362
:102EF000AA20D1F020906E0330906F034424552413
:102F0000088119812A813B815A924A923A922A92E7
:102F10000E94632A8CE090E08A930E94522B0883DF
:102F200019832A833B8319C020906C0330906D0372
:102F300044245524088119812A813B815A924A925E
:102F40003A922A920E94632A8CE090E08A930E942F
:102F5000522B088319832A833B8344E150E060E0CD
:102F600070E0288039804A805B80421553056405F3
:102F7000750508F050C08AE08093FA04222420925C
:102F80001F03AA2049F18091090590910A058F7DC0
:102F900090930A0580930905288039804A805B80D8
:102FA00040E050E061E070E042195309640975099E
:102FB000488359836A837B838FEF9FEF90937303DA
:102FC000809372038091090590910A058064909323
:102FD0000A058093090518C0222433243092730314
:102FE000209272038091090590910A058F7B90933E
:102FF0000A05809309058091090590910A05806270
:1030000090930A05809309052880398030927703D0
:10301000209276031CC0222433243092770320921E
:1030200076038091090590910A058F7D90930A059A
:1030300080930905309273032092720380910905F1
:1030400090910A058F7B90930A0580930905249639
:103050000C94ED2A0E94E42A6901A02E249780E2B4
:1030600093E0EA2DFF27EE0FFF1FE80FF91F2080E6
:103070003180222061F4332051F4EA2DFF27EE0F36
:10308000FF1FE80FF91F80E090E19183808380E9C2
:1030900093E0EA2DFF27EE0FFF1FE80FF91F2080B6
:1030A00031804424552436018824992440E050E19D
:1030B00060E070E09A928A927A926A928A019B0109
:1030C0000E94632A5A924A923A922A920E94E929CD
:1030D000088319832A833B8380E293E0EA2DFF274C
:1030E000EE0FFF1FE80FF91F288039803182208200
:1030F000EA2DFF27EE0FFF1FE80FF91F6080718098
:1031000040E050EA60E070E0130144245524421589
:103110005305640575052CF0C1018039E1E09E0777
:1031200060F480E293E0EA2DFF27EE0FFF1FE80F27
:10313000F91F80E090E19183808324960C94ED2A1E
:10314000209008052220D9F0222420920805209002
:103150003204309033043092EF022092EE0220903D
:10316000F2023090F30230927D0320927C03209093
:103170003404309035043092F1022092F0020DD0E8
:1031800020900005222019F0222420920005209092
:103190000505222009F01CD208950E94D62A2897FE
:1031A0002090FF04222009F410C222242092FF0460
:1031B0002090760330907703442455242C823D825E
:1031C0004E825F822C803D804E805F80E32DE078D0
:1031D000E9F040E050E06FEF7FEF242A352A462ADD
:1031E000572A8090F6029090F7026090F402709057
:1031F000F502620C731C841C951C7092F50260929F
:10320000F4029092F7028092F60218C02C803D8062
:10321000442455248090F6029090F7026090F402C6
:103220007090F502620C731C841C951C7092F50260
:103230006092F4029092F7028092F6028091DD0291
:103240008F5F8093DD02843008F4BFC181E08093FA
:10325000000522242092DD0244E050E060E070E0AE
:103260002091F6023091F7020091F4021091F502DC
:103270007A936A935A934A930E94EF290C831D8391
:103280002E833F8340E050E060E070E82C803D807A
:103290004E805F80421553056405750508F041C0F6
:1032A0004BEE5FEF6FEF7FEF2416350646065706AD
:1032B000C0F541E050E060E070E04090F6025090D0
:1032C000F7022090F4023090F5022094309440945C
:1032D0005094240E351E461E571E8090E402909096
:1032E000E5026090E2027090E302620C731C841CA1
:1032F000951C7092E3026092E2029092E502809245
:10330000E40240E458E360E070E0830194017A93C2
:103310006A935A934A930E94E9291093E102009319
:10332000E0028DE892E0E091D102FF27EE0FFF1F4F
:10333000EE0FFF1FE80FF91F2C803D804E805F804D
:10334000208231824282538280E08093F402809313
:10335000F5028093F6028093F7028091D1028F5F8D
:103360008093D1028F3018F022242092D10280E085
:10337000888389838A838B83AA241BC08DE892E08B
:10338000EA2DFF27EE0FFF1FEE0FFF1FE80FF91FBB
:103390002080318042805380688079808A809B8041
:1033A000620C731C841C951C688279828A829B82C1
:1033B000A3948A2D8F3010F34FE050E060E070E06E
:1033C000088119812A813B817A936A935A934A939F
:1033D0000E94EF29088319832A833B832880398040
:1033E00030927903209278032090090530900A05E5
:1033F00025FE06C080917A0390917B03843608F500
:103400002090D4022220E9F482E090E00881198122
:103410002A813B818A930E943F2B4090E802509082
:10342000E9022090E6023090E702200E311E421E93
:10343000531E3092E7022092E6025092E902409237
:10344000E80240E050E060E070E84090E802509010
:10345000E9022090E6023090E70242155305640528
:10346000750548F480E08093E6028093E70280933C
:10347000E8028093E9022090EE023090EF024424AB
:10348000552440E458E360E070E05A924A923A9240
:103490002A928A019B010E94632A4090E802509080
:1034A000E9022090E6023090E70202151305240598
:1034B0003505D0F42090EE023090EF0244245524DC
:1034C00040E458E360E070E05A924A923A922A92BD
:1034D0008A019B010E94632A1093E7020093E6028F
:1034E0003093E9022093E8022090090530900A0504
:1034F00021FE4AC02090090530900A0527FC44C0EF
:10350000288039804A805B80E52DE07809F43CC052
:1035100082E090E081019201009510952095309510
:103520008A930E943F2B1801290141E050E060E09E
:1035300070E0240E351E461E571E8090DB029090D0
:10354000DC026090D9027090DA02620C731C841C59
:10355000951C7092DA026092D9029092DC028092FD
:10356000DB0240E050E060E070E846155705680572
:10357000790550F48FEF8093D9028093DA0280931B
:10358000DB028FE08093DC0228803980309279035F
:103590002092780340E458E360E070E02091E80274
:1035A0003091E9020091E6021091E7027A936A9362
:1035B0005A934A930E94E9291093F3020093F2026E
:1035C000180130927D0320927C0328960C94DD2A0A
:1035D0000E94D62A28972090090530900A0521FEDE
:1035E0000FC02090090530900A0525FE09C0809182
:1035F000090590910A058D7F90930A05809309052E
:103600002090090530900A0524FE3DC080910905EF
:1036100090910A058F7E90930A058093090520906A
:10362000EE023090EF024424552440E458E360E079
:1036300070E05A924A923A922A928A019B010E9421
:10364000632A1093E7020093E6023093E902209385
:10365000E8022090EE023090EF023092F3022092C6
:10366000F20280917A0390917B038D3548F480912A
:1036700080039091810380689093810380938003FD
:1036800081E0809308052090D302222041F022247B
:103690002092D30281E0809308050E948502209049
:1036A000F2023090F3024424552444E650E060E0F6
:1036B00070E05A924A923A922A928A019B010E94A1
:1036C000632A088319832A833B832090EE0230907B
:1036D000EF0244245524088119812A813B815A92A2
:1036E0004A923A922A920E94E9290C831D832E83E2
:1036F0003F832090EE023090EF024424552408814D
:1037000019812A813B815A924A923A922A920E94C6
:10371000EB292090EE023090EF0236942794442457
:103720005524201631064206530680F441E050E04D
:1037300060E070E02C803D804E805F80240E351E5E
:10374000461E571E2C823D824E825F822C803D8019
:1037500030927B0320927A0320900405222009F402
:103760003FC022242092040580914004909141049E
:10377000019690934104809340048091D2028F5F20
:103780008093D202A82EA694A6948DE08A15B0F05C
:10379000809131048F3090F4282E2A0C209231042D
:1037A00084E12090D202821548F4809180039091A8
:1037B000810380689093810380938003209140046B
:1037C000309141040EE110E00E946201209140041A
:1037D00030914104232F33270FE110E00E94620152
:1037E00028960C94DD2A0E94D62A28972090090555
:1037F00030900A0525FE05C0222420920B05209258
:103800000C0580910B05893D08F49FC0222420926D
:103810000B0580911F038F5F80931F038091DE0350
:103820009091DF038B3AEAE09E0710F4AA240FC0C0
:1038300024E630E00091DE031091DF030B5A1A40BA
:103840000E94CF29A02E87E0801708F4A82E84E5D7
:1038500092E0EA2DFF27E80FF91FA4904090E802BC
:103860005090E9022090E6023090E70228823982E7
:103870004A825B8220903A0430903B0444245524D1
:10388000088119812A813B815A924A923A922A925E
:103890000E94632A2A2C3324442455245A924A92A3
:1038A0003A922A920E94632A088319832A833B83CF
:1038B00040E05AEB6BED70E0088119812A813B8171
:1038C0007A936A935A934A930E94E9290883198349
:1038D0002A833B832090090530900A0521FE18C0F9
:1038E000288039804A805B808090D7029090D802EF
:1038F0006090D5027090D602620C731C841C951CDB
:103900007092D6026092D5029092D8028092D7022D
:10391000288039804A805B808090E8029090E9029C
:103920006090E6027090E7026218730884089508B8
:103930007092E7026092E6029092E9028092E802B9
:1039400081E0809300058093080580910C05893DF6
:1039500008F450C0222420920C050CE512E00E94CD
:10396000242B0C831D832E833F830C811D812E818C
:103970003F810E945E2B088319832A833B8320901A
:10398000090530900A0521FE18C0288039804A8038
:103990005B808090D7029090D8026090D5027090A2
:1039A000D602620C731C841C951C7092D602609225
:1039B000D5029092D8028092D702288039804A801E
:1039C0005B808090E8029090E9026090E60270903F
:1039D000E70262187308840895087092E702609203
:1039E000E6029092E9028092E80281E0809300056D
:1039F0008093080528960C94DD2A0E94C12928800E
:103A000039804A805B80E52DE07879F081E090E0B4
:103A1000A0E0B0E0810192010095109520953095CD
:103A2000080F191F2A1F3B1F04C0088119812A8112
:103A30003B8124960895209003052220B9F1A89592
:103A4000F8942224209203050E945F0F0E948502B1
:103A50000E94790F20903204309033043092DF02BC
:103A60002092DE022091DE023091DF02232F3327E5
:103A700000EF10E00E9462012091DE023091DF022F
:103A8000307001EF10E00E946201789481E0809331
:103A9000080522243324309287032092860383E092
:103AA00080930E033092830320928203809101055C
:103AB000823039F4F8942224209201050E94A20257
:103AC000789420900205222039F0F8942224209244
:103AD00002050E94BF02789420902701222039F02D
:103AE000F8940E94EF0278942224209227012090DB
:103AF00005052220E1F02224209205052BD02090FC
:103B0000090530900A0520FE0EC02090090530906E
:103B10000A0520FE0AC02090010180E0821528F4E9
:103B2000822D843010F40E944A27A2D68FD7C0D0AD
:103B30002090090530900A0520FE0AC02090090552
:103B400030900A0520FE05C080910101807F09F0B8
:103B5000FED508950E94B72A249780E08883898340
:103B60008A838B832224332430928B0320928A030E
:103B70008FEF9FEF90938D0380938C0380E993E008
:103B80005C01CC242DC0F501E080F18080E293E05F
:103B9000EC2DFF27EE0FFF1FE80FF91F208031806B
:103BA0004424552487019801222733275A924A92A8
:103BB0003A922A920E94632A8CE090E08A930E94B3
:103BC000522B780182EF93E0EC2DFF27EE0FFF1FC1
:103BD000E80FF91FF182E082C50102965C01C394EF
:103BE00020907004309071044C2C552442145304DE
:103BF00008F4C9CF82EF93E05C01CC243AC0F50110
:103C00002080318044245524688079808A809B807C
:103C1000620C731C841C951C688279828A829B8248
:103C200020908A0330908B03408051802414350407
:103C300060F42080318030928B0320928A032C2CF8
:103C4000332430928F0320928E0320908C03309087
:103C50008D03F501408051804214530430F42080DC
:103C6000318030928D0320928C03C50102965C0155
:103C7000C39420907004309071044C2C552442144D
:103C8000530408F4BCCF4AE050E060E070E00881E3
:103C900019812A813B817A936A935A934A930E94AD
:103CA000E929109375030093740324960C94AC2AAD
:103CB0000E94D62A2497A0907E03B0907F03209084
:103CC000090530900A0525FE04C0C5018F7B5C0103
:103CD00003C0C50180645C01A6FE04C0C5019F77D6
:103CE0005C0105C0A5FE03C0C50190685C01209081
:103CF000540430905504442455246090740370900B
:103D0000750388249924621473048404950470F064
:103D10002090090530900A0526FE16C08091760392
:103D2000909177038733EFEF9E0770F480918603BD
:103D3000909187038B7F90938703809386032090D5
:103D40008B04209210033DC020908603309087039F
:103D500022FC37C020905204309053044424552450
:103D6000609074037090750388249924621473041E
:103D70008404950428F420908B042092100303C03F
:103D80008AE08093FA04209010032220D1F48091DD
:103D900086039091870384609093870380938603C2
:103DA0008091F2048F5F8093F20480910A039091D6
:103DB0000B03019690930B0380930A0381E0809399
:103DC00002052090580430905904442455246090F2
:103DD00074037090750388249924261437044804CA
:103DE000590478F02090090530900A0525FE17C087
:103DF00088EC90E02090760330907703821593054D
:103E000070F48091860390918703877F9093870356
:103E10008093860320908A04209211033DC0209055
:103E200086033090870323FC37C0209056043090DF
:103E300057044424552460907403709075038824BB
:103E40009924261437044804590428F420908A043D
:103E50002092110303C08AE08093FA04209011039A
:103E60002220D1F4809186039091870388609093FB
:103E70008703809386038091F3048F5F8093F3041C
:103E800080910C0390910D03019690930D03809304
:103E90000C0381E08093020520905C0430905D0467
:103EA00040908A0350908B034214530470F020908A
:103EB000090530900A0526FE16C080917603909180
:103EC00077038733EFEF9E0770F48091860390911C
:103ED00087038E7F909387038093860320908D04C1
:103EE000209212033BC0209086033090870320FC71
:103EF00035C020905A0430905B0440908A03509063
:103F00008B034214530428F420908D042092120352
:103F100003C08AE08093FA0420901203222021F04B
:103F20002090300422FE1AC080918603909187036E
:103F3000816090938703809386038091F2048F5F62
:103F40008093F2048091FE029091FF02019690937B
:103F5000FF028093FE0281E08093020520906004BE
:103F60003090610440908C0350908D0324143504EC
:103F700078F02090090530900A0525FE17C088ECDE
:103F800090E020907603309077038215930570F4CB
:103F900080918603909187038D7F90938703809310
:103FA000860320908C04209213033BC0209086034C
:103FB0003090870321FC35C020905E0430905F0470
:103FC00040908C0350908D032414350428F42090E5
:103FD0008C042092130303C08AE08093FA0420909B
:103FE0001303222021F02090300423FE1AC0809178
:103FF0008603909187038260909387038093860362
:104000008091F3048F5F8093F3048091000390917B
:1040100001030196909301038093000381E0809354
:10402000020580918603909187038570907080309F
:10403000890719F485E080931C0320901C0322203B
:1040400031F481E08093FE0485E08093FD0480914B
:104050008603909187038A7090708030890719F4E5
:1040600085E080931D0320901D032220B1F42224BB
:10407000332430927D0320927C0380E08093E6021B
:104080008093E7028093E8028093E9023092F30282
:104090002092F20281E0809308052090090530907B
:1040A0000A0526FE03C022242092190320908603CD
:1040B0003090870330FE13C020901903222009F0AE
:1040C0004FC080918603909187039E7F90938703D2
:1040D0008093860320908E042092190341C0209083
:1040E00062043090630444245524288239824A8231
:1040F0005B82A6FC0FC0288039804A805B8060907C
:1041000076037090770388249924621473048404DE
:10411000950420F420908E04209219032090190316
:104120002220F1F48091860390918703916090930F
:1041300087038093860320908F0420921903809137
:10414000F2048F5F8093F2048091FA029091FB0257
:1041500001969093FB028093FA0281E0809302051E
:10416000A6FC73C080918603909187038F73909310
:104170008703809386032090880420921703209061
:1041800089042092160384FD0FC0209042043090D1
:1041900043044090EE035090EF034214530420F484
:1041A0002090870420921403209086033090870388
:1041B00025FC0FC020904604309047044090F00347
:1041C0005090F1032414350420F4209086042092AA
:1041D0001503209014032220C9F480918603909146
:1041E00087038061909387038093860320908704E0
:1041F00020921403809102039091030301969093FF
:1042000003038093020381E080930205209015034D
:10421000222009F091C080918603909187038062EB
:104220009093870380938603209086042092150341
:104230008091040390910503019690930503809368
:10424000040381E08093020577C020900905309037
:104250000A0526FE71C080918603909187038F7CAA
:104260009093870380938603209086042092150301
:10427000209087042092140386FD0FC020904A04EA
:1042800030904B044090EE035090EF0342145304DF
:1042900020F4209089042092160320908603309009
:1042A000870327FC0FC020904E0430904F044090AD
:1042B000F0035090F1032414350420F42090880476
:1042C00020921703209016032220C9F480918603C0
:1042D0009091870380649093870380938603209056
:1042E000890420921603809106039091070301969A
:1042F000909307038093060381E08093020520904A
:1043000017032220C9F48091860390918703806867
:10431000909387038093860320908804209217034C
:10432000809108039091090301969093090380936B
:10433000080381E08093020520904C0430904D04E6
:104340004090EE035090EF034214530448F48091E0
:104350008603909187038F7B9093870380938603D6
:1043600020905004309051044090F0035090F1039D
:104370002414350448F480918603909187038F7745
:1043800090938703809386032090440430904504E3
:104390004090EE035090EF034214530448F4809190
:1043A0008603909187038F7E909387038093860383
:1043B00020904804309049044090F0035090F1035D
:1043C0002414350448F480918603909187038F7DEF
:1043D0009093870380938603B3FE0CC020907C03E8
:1043E00030907D03222011F43320A9F1C501977F7D
:1043F0005C0131C0209086033090870321FC08C007
:1044000020907C0330907D03222029F4332019F47E
:10441000C50198605C012090090530900A0521FED5
:104420001AC02090090530900A0527FC14C020907E
:1044300038043090390440908C0350908D0342141E
:10444000530448F48091090590910A05806890937F
:104450000A0580930905A5FE4EC080917A039091CC
:104460007B03803608F05FC02090090530900A0574
:1044700024FC59C0C5018F7D5C0122242092FE04DA
:104480008091090590910A05826090930A058093B6
:10449000090580E08093D5028093D6028093D702ED
:1044A0008093D8022090EE023090EF0244245524ED
:1044B00040E458E360E070E05A924A923A922A92BD
:1044C0008A019B010E94632A180129018090E80259
:1044D0009090E9026090E6027090E7022618370893
:1044E000480859083092DA022092D9025092DC0230
:1044F0004092DB0218C02090FE042220A1F0C501EA
:1045000080625C0122242092FE04332430928303D3
:10451000209282038091090590910A058061909311
:104520000A05809309058091860390918703817025
:1045300091708030890731F4C501807290718030AC
:10454000890721F0C50190645C0103C0C5019F7B10
:104550005C0180917A0390917B038630E0E09E07B6
:1045600010F0B3FE04C0C50180615C010AC084E1A3
:1045700020907A0330907B03821518F4C5018F7E5A
:104580005C01209086033090870332FC26C0209087
:10459000300421FE60C0809186039091870394606F
:1045A00090938703809386038AE08093FA04209097
:1045B0008504209218038091F3048F5F8093F304A5
:1045C0008091F8029091F90201969093F9028093FC
:1045D000F80281E0809302053EC080911803885F55
:1045E0008093FA0420906C0430906D0421FE18C072
:1045F000209018012220B9F4219A299A22982A9A07
:1046000001E010E00E94AD0620908504209218037E
:104610001A9B03C081E0809318012A98299803C04F
:1046200081E080931801209018032220A1F42090AB
:104630001801222081F080918603909187039B7F4F
:10464000909387038093860320908504209218031B
:1046500022242092180120906404309065044424A0
:104660005524288239824A825B82209086033090CA
:10467000870331FC3FC0209076033090770337FEEC
:104680000FC0288039804A805B80609076037090EC
:10469000770388249924261437044804590420F405
:1046A0002090900420921A0320901A03222021F0D7
:1046B0002090300420FE44C08091860390918703AF
:1046C00092609093870380938603209091042092B8
:1046D0001A038091FC029091FD0201969093FD02D5
:1046E0008093FC0281E080930205822D885F809395
:1046F000FA0426C02090090530900A0525FE0CC05A
:1047000088EC90E020907603309077038215930533
:1047100018F4222420921A038AE08093FA0420904D
:104720001A03222069F480918603909187039D7F6C
:1047300090938703809386032090900420921A031D
:10474000B0927F03A0927E0324960C94DD2A2197D9
:10475000222428822090880330908903222011F49B
:10476000332051F08091860390918703906190935C
:1047700087038093860309C0809186039091870305
:104780009F7E909387038093860380918603909108
:1047900087038A7C96708030890771F420906C04BE
:1047A00030906D0420FE02C01D9906C02090880341
:1047B0003090890321FE06C080912F048D7F809365
:1047C0002F0405C080912F04826080932F04809174
:1047D000860390918703807390708030890779F405
:1047E000809186039091870385709170803089074E
:1047F00031F4209088033090890320FE06C0809118
:104800002F048E7F80932F0405C080912F04816038
:1048100080932F042090090530900A0525FE0EC0D4
:1048200088EC90E020907603309077038215930512
:1048300028F480912F04826080932F049E0105E06C
:104840000E946F1280912F04837098819370981743
:1048500069F088818C7F888380912F048370288001
:10486000282A2882222D05E00E94D312219608953D
:104870000E94D62A249720907E0330907F0326FE44
:1048800013C080918C0390918D03883BEBE09E07D1
:1048900038F4222420921B0180EF80930F03D3C0B1
:1048A00082E080931B01CFC0A0901B01BB24AA20F3
:1048B00011F4BB2081F0C5018130E0E09E0721F1B9
:1048C0008230E0E09E0709F43BC08330E0E09E07C1
:1048D00009F44BC0B8C020900F03222071F088EB80
:1048E0009BE020908C0330908D038215930508F097
:1048F000AAC082E080931B01A6C081E080931B01C7
:1049000080EF80930F039FC020900F032220A1F01F
:1049100088EB9BE020908C0330908D0382159305EB
:1049200020F482E080931B018EC0222420921B0180
:1049300080EF80930F0387C0222420921B0183C045
:10494000209036043090370480918A0390918B0335
:104950008C599F4F2816390608F075C083E0809364
:104960001B0185E08093FD046EC020900905309006
:104970000A0525FE65C02090740330907503442419
:104980005524288239824A825B82288039804A8075
:104990005B804AE050E060E070E05A924A923A92BE
:1049A0002A928A019B010E94632A088319832A8321
:1049B0003B83209070043090710444245524088176
:1049C00019812A813B815A924A923A922A920E94F4
:1049D000E929088319832A833B8320903604309089
:1049E000370444245524688079808A809B8026146B
:1049F00037044804590420F580EA9FE082159305A6
:104A000060F482E390E02090760330907703821583
:104A1000930518F485E08093FD042090FD04222086
:104A200091F481E08093FE042224332430928303A6
:104A30002092820385E080931B018093FD0403C0D4
:104A400085E08093FD0424960C94DD2A0E94D62AEA
:104A50002C9722242092D40220907E0330907F0352
:104A600026FC4FC12090090530900A0525FEB7C1EC
:104A70002090090530900A0527FEB1C12090EE0272
:104A80003090EF02442455242C823D824E825F8276
:104A90008091090590910A058F7790930A0580937C
:104AA000090549E150E060E070E0009132041091A6
:104AB0003304222733277A936A935A934A930E94A6
:104AC000E9291801290140E458E360E070E02091F1
:104AD000DB023091DC020091D9021091DA027A9364
:104AE0006A935A934A930E94E92938014901620C5A
:104AF000731C841C951C40E458E360E070E0209136
:104B0000D7023091D8020091D5021091D6027A9343
:104B10006A935A934A930E94E929600E711E821E7D
:104B2000931E688679868A869B8620906C043090D6
:104B30006D0426FCBEC04AE050E060E070E00091E9
:104B4000DE021091DF02222733277A936A935A9369
:104B50004A930E94E929088319832A833B83288486
:104B600039844A845B840C811D812E813F81021926
:104B70001309240935090E94FD1C288039804A80C8
:104B80005B80021513052405350548F42884398413
:104B90004A845B842C823D824E825F822AC02884B4
:104BA00039844A845B846C807D808E809F8026144B
:104BB00037044804590468F4288039804A805B80AF
:104BC00062187308840895086C827D828E829F82A9
:104BD00010C0288039804A805B806C807D808E8008
:104BE0009F80620C731C841C951C6C827D828E825B
:104BF0009F822090DE023090DF02442455242882D8
:104C000039824A825B8282E090E0088119812A81A0
:104C10003B818A930E94522B288039804A805B8096
:104C2000200E311E421E531E288239824A825B8228
:104C3000288039804A805B806C807D808E809F8058
:104C4000261437044804590420F42C823D824E82F5
:104C50005F822090DE023090DF02442455242882B7
:104C600039824A825B8282E090E0088119812A8140
:104C70003B818A930E94522B288039804A805B8036
:104C8000201A310A420A530A288239824A825B82F8
:104C9000288039804A805B806C807D808E809F80F8
:104CA000621473048404950420F42C823D824E82A5
:104CB0005F8248EC50E060E070E02C803D804E80E8
:104CC0005F80421553056405750540F43092EF028C
:104CD0002092EE02309233042092320481E08093DD
:104CE000D30280918003909181038F779093810309
:104CF0008093800322242092D20282E080933104A8
:104D00006EC02090090530900A0526FC01C067C0DE
:104D10008091DE039091DF038837EAE09E0708F474
:104D20005EC020907403309075034424552428827B
:104D300039824A825B82288039804A805B804AE0DF
:104D400050E060E070E05A924A923A922A928A01C8
:104D50009B010E94632A088319832A833B83209046
:104D600070043090710444245524088119812A81EB
:104D70003B815A924A923A922A920E94E9290883E8
:104D800019832A833B83A880B9802090380430900F
:104D900039042A143B0400F180911C018F5F809339
:104DA0001C018630E0F080E08093E6028093E70209
:104DB0008093E8028093E9022090090530900A056B
:104DC00021FE0DC08091090590910A05806890939D
:104DD0000A058093090503C0222420921C012C9609
:104DE0000C94DD2A0E94C22A44275527AA242EC0EB
:104DF0002A2C3324220C331C310182EF93E0F10181
:104E0000E80FF91F208031804090660450906704BD
:104E100024143504D0F0F301E80FF91F208031800D
:104E200040908C0350908D032418350840906804FE
:104E3000509069042414350440F02A2D332701E0F2
:104E400010E00E94382B402B512BA394209070042B
:104E5000309071044A2C55244214530408F4C8CFEE
:104E600020908E0330908F0320FE03C04A7A5A7A36
:104E700002C04575557550938303409382032224E5
:104E8000332430928503209284038AE08093FA04CD
:104E90000C94C72A0E94B72AEE24CC24AA246627A1
:104EA0002090090530900A0520FE24C0209082033E
:104EB00030908303222011F4332019F0E0D0A801B0
:104EC00002C044275527CA018F719070E82E25E053
:104ED00030E08A010E944B2BC8018F719070C82E60
:104EE0002AE030E08A010E944B2BC8018F7190703C
:104EF000A82E8CC020906C0430906D0422FC17C04A
:104F0000222701E00E94D312222702E00E94D3123E
:104F1000222703E00E94D3122224332430928303F9
:104F20002092820330928503209284037BC02090DC
:104F300066043090670440908A0350908B034214BB
:104F4000530408F43FC020908C0330908D03421826
:104F5000530820906804309069044214530490F17F
:104F600020906C0430906D0423FE13C0209009053E
:104F700030900A0525FE02C061E02EC022243324B1
:104F8000309283032092820330928503209284031F
:104F900023C02090090530900A0525FC08C0209008
:104FA000090530900A0526FC02C061E015C02224E4
:104FB000332430928303209282033092850320921F
:104FC00084030AC022243324309283032092820374
:104FD00030928503209284036623C1F003DF4FD013
:104FE000A801CA018F719070E82E25E030E00E9480
:104FF0004B2BC8018F719070C82E2AE030E08A01D7
:105000000E944B2BC8018F719070A82E2E2D01E0AD
:105010000E94D3122C2D02E00E94D3122A2D03E00D
:105020000E94D3120C94AC2A2090090530900A05F6
:1050300020FE24C00091010111270130E0E01E078D
:1050400049F00230E0E01E0761F00330E0E01E07A7
:1050500079F014C085E595E59093830380938203EE
:105060000DC08AEA9AEA909383038093820306C074
:1050700022243324309283032092820308950E94D5
:10508000CC2A80917004909171048F30E0E09E07EB
:1050900028F0409182035091830370C18091700485
:1050A000909171048E30E0E09E0769F44091820394
:1050B000509183035F71209082033090830335FE0B
:1050C0005DC150645BC180917004909171048D301A
:1050D000E0E09E0739F540918203509183035070C0
:1050E0006091820370918303672F77276F707070D0
:1050F00029E030E08B010E94382B402B512B2CE013
:1051000030E000918203109183030E944B2BB80181
:10511000617070702EE030E08B010E94382B402BC4
:10512000512B2CC180917004909171048C30E0E07F
:105130009E0709F042C0409182035091830347705B
:105140005070609182037091830376956795769590
:105150006795769567956F7070701B01220C331CF4
:10516000220C331C220C331C220C331C42295329E1
:1051700027E030E000918203109183030E944B2BC3
:10518000B8016F70707029E030E08B010E94382BFD
:10519000402B512B2BE030E00091820310918303D0
:1051A0000E944B2BB801617070702EE030E08B01D3
:1051B0000E94382B402B512BE1C0809170049091BC
:1051C00071048B30E0E09E0709F042C040918203F9
:1051D00050918303477050706091820370918303F4
:1051E0007695679576956795769567956F707070EB
:1051F0001B01220C331C220C331C220C331C220CEE
:10520000331C4229532927E030E00091820310919A
:1052100083030E944B2BB8016770707029E030E067
:105220008B010E94382B402B512B2AE030E000915B
:105230008203109183030E944B2BB8016170707040
:105240002EE030E08B010E94382B402B512B96C072
:1052500080917004909171048A30E0E09E0709F01B
:1052600042C0409182035091830347705070609117
:105270008203709183037695679576956795769509
:105280006795677070701B01220C331C220C331C55
:10529000220C331C220C331C4229532926E030E017
:1052A00000918203109183030E944B2BB801677019
:1052B000707029E030E08B010E94382B402B512B7D
:1052C00029E030E000918203109183030E944B2B70
:1052D000B801617070702EE030E08B010E94382BB5
:1052E000402B512B4BC080917004909171048930F8
:1052F000E0E09E0709F040C0409182035091830393
:105300004370507060918203709183037695679526
:1053100076956795677070701B01220C331C220C08
:10532000331C220C331C220C331C4229532925E048
:1053300030E000918203109183030E944B2BB8014F
:105340006770707029E030E08B010E94382B402B91
:10535000512B29E030E000918203109183030E94D9
:105360004B2BB801617070702EE030E08B010E9411
:10537000382B402B512B02C0442755278A010C940F
:10538000D12A3A932A931A930A930895222321F05B
:10539000159507952A95FACF0895689401C0E89469
:1053A000EA92FA928A93EE24FF2480E1000F111F03
:1053B000EE1CFF1CE216F30618F0E21AF30A03953E
:1053C0008A95A1F716F40E2D1F2D8991F990E99079
:1053D0000895E89401C0689430D0CC2409C0E894C2
:1053E00001C068942AD037FD0E94F62AB7FD52D03A
:1053F000772488249924AA24BB2442D0C1F045D024
:10540000B1F0E8E2000F111F221F331F771C881C28
:10541000991CAA1CBB1C88169906AA06BB0628F074
:10542000881A990AAA0ABB0A0395EA9559F726F43D
:10543000082D192D2A2D3B2D13C07A928A929A920B
:10544000AA92BA92CA92EA938A939A93AA93BA9327
:105450008B859C85AD85BE85C32E0EF0CB26089529
:10546000C7FC0E94F62AB991A99199918991E99175
:10547000C990B990A99099908990799024960895AF
:10548000E02FE12BE22BE32B0895E82FE92BEA2B09
:10549000EB2B089580959095A095B0958F5F9F4FC9
:1054A000AF4FBF4F08950A921A928A939A93029F20
:1054B000C001129F900D039F900D8C0199918991CD
:1054C0001990099008950E94FF2A7A920E94182B41
:1054D00059F177240E941E2B19F48C019D0124C0E0
:1054E0000A921A92089FB02CA12C289F902C812CF4
:1054F000189FA00C911C871C099FA00C911C871C55
:10550000199F900C811C0A9F900C811C389F800C65
:10551000299F800C1A9F800C0B9F800C199009907A
:105520000B2D1A2D292D382D79900C940D2BA99027
:10553000B990C990D9900895A990B990C990D9907F
:10554000E990F9900895A990B990C990D990E990FF
:10555000F990499159910895A990B990C990D9901D
:10556000E990F990499159916991799108957A93C7
:105570006A935A934A93FA92EA92DA92CA92BA9248
:10558000AA9208955A934A93BA92AA920895A9901A
:10559000B9904991599108957A936A935A934A938D
:1055A0000895499159916991799108957A936A93EF
:1055B0005A934A93BA92AA920895A990B9904991A0
:1055C00059916991799108957A936A935A934A937C
:1055D000DA92CA92BA92AA920895A990B990C99003
:1055E000D9904991599169917991089500951095B3
:1055F000209530950F5F1F4F2F4F3F4F08958A9290
:105600009A92AA92BA92EA938A939A93AA93BA9395
:1056100089859A85AB85BC850895B991A9919991A1
:105620008991E991B990A9909990899024960895CB
:10563000EE27E02BE12BE22BE32B0895EE27E82B5E
:10564000E92BEA2BEB2B0895EA93FA930A92E02FC9
:10565000F12FC895002D3196C895102D3196C8951B
:10566000202D3196C895302D0990F991E991089532
:10567000222321F0000F111F2A95FACF08950F92CF
:105680000990002031F0000F111F221F331F0A94D0
:10569000F8CF0F900895222321F0169507952A95AB
:1056A000FACF08950F920990002031F03695279592
:1056B000179507950A94F8CF0F9008954A925A9239
:1056C0006A928A930E94A02B11F15520E2F08FE19B
:1056D0004816C0F487E14816D1F058F4419489EE99
:1056E000481A05C035952795179507954A94D1F71F
:1056F0000EC087E1481A000F111F221F331F4A9462
:10570000D1F705C03FE7232F132F032F04C06620D6
:1057100011F00E94F62A8991699059904990089554
:105720000FD029F0662011F00E94F62A989408956F
:10573000002329F4112319F4222309F433230895B3
:10574000F7DF99F08A93632E80E86822220F331FD7
:10575000432E8FE7481A55248827580A269530E8A3
:10576000232B332789919894089544245524662443
:105770000895DEDF09F40895AA93BA93D2019A93AB
:105780008A938EE790E0332349F036952795179555
:105790000795A817B907CCF41196F5CF8095909589
:1057A00001962223BAF0000F111F221FA817B90774
:1057B00014F01197F6CF002711272227332789915C
:1057C00099912D01B991A991089533270FEF102FC9
:1057D0002FE7322F899199912D0102C0AA93BA9394
:1057E000A7DF49F0D201A158BF4F2D01342D220F60
:1057F000369527953629B991A99108954A925A92DA
:105800006A927A928A929A92AA92BA92CA92DA92F8
:10581000EA92FA928A939A93089599918991F990CC
:10582000E990D990C990B990A99099908990799070
:105830006990599049900895FFFFFFFFFFFFFFFF18
:10584000FFFFFFFFFFFFFFFFFFFFFFFFFFFFFFFF68
:10585000FFFFFFFFFFFFFFFFFFFFFFFFFFFFFFFF58
:10586000FFFFFFFFFFFFFFFFFFFFFFFFFFFFFFFF48
:10587000FFFFFFFFFFFFFFFFFFFFFFFFFFFFFFFF38
:107800000C94643CFFFFFFFFFFFFFFFFFFFFFFFF44
:10781000FFFFFFFFFFFFFFFFFFFFFFFFFFFFFFFF78
:10782000FFFFFFFFFFFFFFFFFFFFFFFFFFFFFFFF68
:10783000FFFFFFFFFFFFFFFFFFFFFFFFFFFFFFFF58
:107840000C946C3DFFFFFFFF0C94AD3DFFFFFFFF6D
:107850000C94F43DFFFFFFFFFFFFFFFFFFFFFFFF63
:10786000FFFFFFFFFFFFFFFFFFFFFFFFFFFFFFFF28
:10787000FFFFFFFFFFFFFFFFFFFFFFFFFFFFFFFF18
:10788000FFFFFFFFFFFFFFFFFFFFFFFFFFFFFFFF08
:10789000FFFFFFFFFFFFFFFFFFFFFFFFFFFFFFFFF8
:1078A000FFFFFFFFFFFFFFFFFFFFFFFFFFFFFFFFE8
:1078B000FFFFFFFFFFFFFFFFFFFFFFFFFFFFFFFFD8
:1078C000FFFFFFFFFFFFFFFF01E005BF02E005BF75
:1078D000CFEFD8E0CDBFDEBFCE51D0400AEA08835B
:1078E0000024E0E0F1E012E0EB30F10711F001924A
:1078F000FBCF0083E8ECF8E7A0E0B1E018E700E098
:107900000BBFE83CF10721F0C89531960D92F9CFF5
:107910000E94B83CFFCFF999FECF12BD01BD20BD3A
:10792000FA9AF99AF999FECF0895F999FECF12BD06
:1079300001BDF89A00B50895F89400270E948E3D85
:1079400081E085BF82E085BF26982E98399A419ABA
:107950000E94983D0E94833D222420926B00209239
:107960006C002DBA209269002092680078940895E6
:1079700000270E948E3D22242FBE0EEF10E00E94B1
:10798000953C602F0FEF10E00E94953C402F65352D
:1079900041F4083831F081E085BF222425BE0C94E3
:1079A0000000CADF2224209208022090080227FE4D
:1079B00005C00091070211270E94133D209080010D
:1079C000222029F02224209280010E94593EA8956D
:1079D000ECCF0895AA92BA92580127E030E08501D1
:1079E0000E94EB3E5801F50183E087BFE89527B67A
:1079F00020FCFDCF85E087BFE89527B620FCFDCFB2
:107A0000B990A9900895F801090181E087BFE89530
:107A100027B620FCFDCF089581E187BFE89527B602
:107A200020FCFDCF08950E94D93E580120E805E8CA
:107A300011E00E94183EA801209005023090060235
:107A40000215130521F081E08093080243C0E4DFB2
:107A500066270EC0262E3324220C331C85E891E0C5
