:100000000C9434000C943E000C943E000C943E0082
:100010000C943E000C943E000C943E000C943E0068
:100020000C943E000C943E000C943E000C943E0058
:100030000C943E000C943E000C943E000C943E0048
:100040000C943E000C943E000C943E000C943E0038
:100050000C943E000C943E000C943E000C943E0028
:100060000C943E000C943E0011241FBECFEFD8E04C
:10007000DEBFCDBF0E9440000C9463000C940000D2
:1000800087E690E00E9451002FEF89E698E1215029
:1000900080409040E1F700C0000081E60E945C00D3
:1000A000F3CF9093C5008093C40088E18093C10092
:1000B0008EE08093C20008959091C00095FFFCCF20
:0A00C0008093C6000895F894FFCF66
:00000001FF
