:100000000C9434000C9449000C9449000C94490061
:100010000C9449000C9449000C9449000C9449003C
:100020000C9449000C9449000C9449000C9449002C
:100030000C9449000C9449000C9449000C9449001C
:100040000C9449000C9449000C9449000C9449000C
:100050000C9449000C9449000C9449000C944900FC
:100060000C9449000C94490011241FBECFEFD8E036
:10007000DEBFCDBF11E0A0E0B1E0E6E7F3E002C0F3
:1000800005900D92A031B107D9F70E940B010C9495
:10009000B9010C94000092E39A95F1F70895089540
:1000A000B7E0A0ED002409D032F40A94E1F71197EB
:1000B000C9F7289408C0A89406C0A8944F9901C015
:1000C00028940000089508955F98579AE4DF5698A1
:1000D0005E9AE1DF57985F9ADEDF4F9BE1DF5E9823
:1000E000569AD9DF27D0089581E090E008958F9344
:1000F000F1E0E4EF8F918F934F9BD2DF5E98569A99
:10010000CADF18D0882321F407D0319709F0F2CF45
:1001100099270F90089508955F98579A5E98569A78
:10012000BADF57985F9AB7DF4F9BBADF56985E9A4F
:10013000B2DF08950894881F01C0880FD9F05F9836
:10014000579A00000000000020F4000056985E9AC4
:1001500003C05E98569A00C09EDF57985F9AA89495
:100160000000000000004F9B9BDF12F4882715C0A1
:1001700092DFE3CF5F98579A0000000056985E9A8E
:100180008ADF9927882757985F9AA89400004F9B89
:1001900087DF62F34E9B81E07EDF000000005F9806
:1001A000579A089581E090E0089571E05F98579A1A
:1001B00056985E9A0000000000006DDF57985F9A25
:1001C0006ADFA8940000000000004F9B69DFD2F0B6
:1001D00088944E990894771F48F75F98579A803013
:1001E00019F056985E9A02C05E98569A0000000078
:1001F000000051DF57985F9AA894000000004F9BC1
:100200004FDF49DF000000005F98579A872F99273A
:10021000089580E2089580E895E20E944101209AC5
:10022000389A2898409A80E10E947700892BC9F07B
:1002300080E00E949A0081E10E94640081E090E0E9
:100240000E94D50090E00E9468010E948C002FEF70
:1002500089E698E1215080409040E1F700C000001D
:10026000E2CF80E091E00E9468012FEF89E698E1FB
:10027000215080409040E1F700C0000080E090E015
:100280000895CF93DF931F92CDB7DEB79C0140E076
:1002900050E060E271EA87E090E00E94780121502E
:1002A000298389811092C50089818093C40088E1E7
:1002B0008093C1008EE08093C2000F90DF91CF91B8
:1002C00008959091C00095FFFCCF8093C6000895DB
:1002D000CF93DF93EC018991882339F09091C0008E
:1002E00095FFFCCF0E946101F6CFDF91CF91089579
:1002F000052E97FB1EF400940E948F0157FD07D036
:100300000E94970107FC03D04EF40C948F01509586
:100310004095309521953F4F4F4F5F4F08959095F1
:100320008095709561957F4F8F4F9F4F0895A1E203
:100330001A2EAA1BBB1BFD010DC0AA1FBB1FEE1F5F
:10034000FF1FA217B307E407F50720F0A21BB30BAA
:10035000E40BF50B661F771F881F991F1A9469F726
:1003600060957095809590959B01AC01BD01CF0182
:060370000895F894FFCF90
:100376004932432064657669636520627573790046
:00000001FF
