:100000000C9434000C9449000C9449000C94490061
:100010000C9449000C9449000C9449000C9449003C
:100020000C9449000C9449000C9449000C9449002C
:100030000C9449000C9449000C9449000C9449001C
:100040000C9449000C9449000C9449000C9449000C
:100050000C9449000C9449000C9449000C944900FC
:100060000C9449000C94490011241FBECFEFD8E036
:10007000DEBFCDBF11E0A0E0B1E0EAE6F1E002C0F2
:1000800005900D92A030B107D9F70E944B000C9457
:10009000B3000C94000080E895E20E94520080E0DA
:1000A00090E00895CF93DF931F92CDB7DEB79C0108
:1000B00040E050E060E271EA87E090E00E94720068
:1000C0002150298389811092C50089818093C400C1
:1000D00088E18093C1008EE08093C2000F90DF9191
:1000E000CF910895052E97FB1EF400940E9489007D
:1000F00057FD07D00E94910007FC03D04EF40C94EA
:10010000890050954095309521953F4F4F4F5F4F57
:10011000089590958095709561957F4F8F4F9F4F73
:100120000895A1E21A2EAA1BBB1BFD010DC0AA1F38
:10013000BB1FEE1FFF1FA217B307E407F50720F050
:10014000A21BB30BE40BF50B661F771F881F991FCB
:100150001A9469F760957095809590959B01AC0114
:0A016000BD01CF010895F894FFCF10
:00000001FF
