S01C00004368696E656573655F41646F70745F562E302E312E737265631B
S11300000C9434000C9446000C9446000C94460066
S11300100C9446000C9446000C9446000C94460044
S11300200C9446000C9446000C9446000C94460034
S11300300C9446000C9446000C9446000C94460024
S11300400C9446000C9446000C9448000C94460012
S11300500C9446000C9446000C9446000C94460004
S11300600C9446000C94460011241FBECFEFD8E038
S1130070DEBFCDBF21E0A0E0B1E001C01D92A13000
S1130080B207E1F70E9470000C9482000C94000007
S11300901F920F920FB60F9211248F938091C0007C
S11300A087FFFCCF8091C600809300018F910F9051
S11300B00FBE0F901F901895F8949093C5008093ED
S11300C0C40088E18093C1008EE08093C2007894DC
S11300D008959091C00095FFFCCF8093C6000895C9
S11300E083E390E00E945C002FEF89E698E12150C1
S11300F080409040E1F700C00000809100010E9420
S10B01006900F2CFF894FFCF6F
S9030000FC
