S01C00004368696E656573655F41646F70745F562E302E312E737265631B
S11300000C9434000C943E000C943E000C943E007E
S11300100C943E000C943E000C943E000C943E0064
S11300200C943E000C943E000C943E000C943E0054
S11300300C943E000C943E000C943E000C943E0044
S11300400C943E000C943E000C943E000C943E0034
S11300500C943E000C943E000C943E000C943E0024
S11300600C943E000C943E0011241FBECFEFD8E048
S1130070DEBFCDBF0E9453000C945B000C940000C3
S11300809093C5008093C40088E18093C1008EE002
S11300908093C2000895E0ECF0E0908195FFFDCFDD
S11300A08093C600089587E690E00E94400081E6B0
S10D00B00E944B00FCCFF894FFCF30
S9030000FC
